:020000040800F2
:10000000681A0020713B0008D9010008DB010008D4
:10001000DF010008E3010008E7010008000000001C
:10002000000000000000000000000000EB010008DC
:10003000ED01000800000000EF010008F1010008D8
:100040008B3B00088B3B00088B3B00088B3B000878
:100050008B3B00088B3B0008070200088B3B000825
:100060008B3B00088B3B00088B3B00088B3B000858
:100070008B3B00088B3B00088B3B00088B3B000848
:100080008B3B00088B3B00088B3B0008F30100080A
:10009000F50100088B3B00088B3B00088B3B0008F8
:1000A0008B3B00088B3B00088B3B00088B3B000818
:1000B0008B3B00088B3B00088B3B00088B3B000808
:1000C0008B3B00088B3B00088B3B00088B3B0008F8
:1000D0008B3B0008F7010008FF0100088B3B00087C
:1000E0008B3B00088B3B00088B3B00088B3B0008D8
:1000F0008B3B00088B3B00088B3B00088B3B0008C8
:100100008B3B00088B3B00088B3B00088B3B0008B7
:100110008B3B00088B3B00088B3B00088B3B0008A7
:100120008B3B00088B3B00088B3B00088B3B000897
:1001300000F002F800F041F80AA090E8000C8244B8
:100140008344AAF10107DA4501D100F036F8AFF295
:10015000090EBAE80F0013F0010F18BFFB1A43F0A5
:100160000103184788480000A8480000103A24BF3F
:1001700078C878C1FAD8520724BF30C830C144BF0C
:1001800004680C607047000000230024002500264E
:10019000103A28BF78C1FBD8520728BF30C148BFEA
:1001A0000B607047642903F04185002070471FB53C
:1001B00004F005FB1FBD10B510BD03F096FE1146FF
:1001C000FFF7F5FF00F04EFB03F0B4FE03B4FFF7BA
:1001D000F2FF03BC00F00EFD704700BFFEE700BF5A
:1001E000FEE700BFFEE700BFFEE7704770477047BD
:1001F00070477047704710B500F0B3FD10BD10B5E3
:1002000000F0C9FD10BD10B5012002F044F86848A7
:100210000078401C6649087008460078012818D10B
:10022000644908604FF000006349C1F8A0016349C8
:10023000088004E061480088401C604908805F48ED
:1002400000882828F6DB01205A4908605C49C1F87B
:10025000B80157480078022873D100205949087026
:1002600059490880594908605948D0F8000420F0DD
:100270000100584908604FF000005749086057498D
:1002800008604FF0010008604FF0000008604FF078
:10029000010008604849C1F8A4014FF0320000F0A5
:1002A000C0F900204E490860444908806FE04D487D
:1002B0004449097830F8110040490988884241D101
:1002C00000204949088031E047480088A02828DA02
:1002D0000020424908604FF001003949C1F8B401DB
:1002E000424880683749097801EB8101404A02EBB6
:1002F00041113D4A128888544FF000003749086088
:100300004FF0010008604FF0000008604FF001005E
:1003100008604FF0000008604FF001002849C1F864
:10032000B40131480088401C2F4908802E480088BD
:10033000B0F5A07FC8DB23480078401C2149087035
:1003400020E033E000202849088016E000202349FF
:1003500008604FF001001A49C1F8B4014FF00000E5
:100360001E4908604FF001001549C1F8B4011E484C
:10037000008800F101001C4908801B480088B0F586
:10038000A07FE3DB0D480088401C0C4908800B4827
:100390000088F0288BDB0120114908604FF0000035
:1003A000034908704FF001001249087010BD0000A9
:1003B00000000020A0012242000022420200002092
:1003C000008021428800002080000020B881214266
:1003D0000000014000040140A4012242B4812142F6
:1003E000BC812142C24800080400002000100140E6
:1003F000F00000208200002000210020674A1268DF
:1004000042F48032654B1A6000BF644A126802F4FD
:100410000030491C10B9B1F5A06FF6D15F4A1268DF
:1004200012F4003F01D0012000E00020012842D159
:100430005B4A126842F01002594B1A601A46126861
:1004400022F003021A601A46126842F002021A6091
:10045000524A5268514B5A601A4652685A601A46BC
:10046000526842F480625A601A46526822F47C1242
:100470005A601A46526842F4E8125A601A461268E4
:1004800042F080721A6000BF444A126812F0007F86
:10049000FAD0424A526822F00302404B5A601A4690
:1004A000526842F002025A6000BF3C4A526802F0B1
:1004B0000C02082AF9D1704710B5FFF79DFF10BD57
:1004C00010B53648006840F001003449086008461D
:1004D000406834490840314948600846006832495C
:1004E00008402E4908600846006820F48020086013
:1004F0000846406820F4FE0048604FF41F00886002
:10050000FFF7DAFF4FF000602849086010BD10B512
:10051000002100200022214B5B6803F00C0121B177
:10052000042906D0082928D107E0214B214C23605B
:1005300027E01F4B1F4C236023E0184B5B6803F43C
:100540007010164B5B6803F48032022303EB90407B
:1005500022B9194B4343174C23600DE00F4B5B68E6
:1005600013F4003F04D0144B4343124C236003E0C8
:100570000F4B43430F4C236003E00D4B0D4C2360A6
:1005800000BF00BF054B5B68C3F303130B4CE15C7A
:10059000084B1B68CB40074C236010BD0010024085
:1005A000002002400000FFF8FFFFF6FE08ED00E02B
:1005B00000127A000C00002000093D00100000200D
:1005C0004FF0E021096921F004014FF0E0221161B0
:1005D000C21700EB5272D2101F4B1A7019460978DD
:1005E0004FF47A7251431D4A1180704701461B4AED
:1005F00012884A434FF0E0235A6100229A61012297
:100600001A6100BF4FF0E022106910F0010F02D014
:1006100010F4803FF6D000224FF0E0231A619A6177
:10062000704701460C4A12784A434FF0E0235A6162
:1006300000229A6101221A6100BF4FF0E022106986
:1006400010F0010F02D010F4803FF6D000224FF0DE
:10065000E0231A619A6170472000002022000020E8
:100660001CB5012001F017FE0021084601F098FF9B
:100670000120009000208DF8040008208DF805006E
:1006800001208DF80600684601F087FD012001F089
:10069000DCFD1CBD00B587B041F61F40ADF814006D
:1006A000C820ADF810000020ADF81600ADF812001B
:1006B00004A9ED4802F052FA6020ADF800000120D4
:1006C000ADF802004FF4FC70ADF806000020ADF864
:1006D00008006946E44802F07EFA0821E24802F088
:1006E000A5FE6946E04802F0B8FA0821DE4802F0AB
:1006F000A6FE0121DC4802F069FE0121DA4802F081
:100700005CFD0121D84802F061FE0121D64802F0CB
:1007100054FD07B000BD1FB54FF4E130009000203C
:10072000ADF80400ADF80600ADF80800ADF80C0017
:100730000C20ADF80A006946CC4803F056F80121B8
:10074000CA4803F0DEF81FBD08B506208DF800008A
:1007500001208DF801008DF802008DF80300684635
:1007600001F095FC08BD08B5C020ADF800001820C8
:100770008DF8030003208DF802006946BC4801F0A3
:10078000FBFD1120ADF8000004208DF803000320CC
:100790008DF802006946B64801F0EEFD4FF4007096
:1007A000ADF8000018208DF8030003208DF802003A
:1007B0006946AF4801F0E0FD4FF48060ADF80000FD
:1007C00004208DF803006946A94801F0D5FD08BD55
:1007D00010B5A848806940F00100A6498861084624
:1007E000806940F0040088610846806940F0080094
:1007F00088610846806940F0100088614FF08830B9
:100800009D4908604FF0333048604FF6FF70C86074
:100810004FF03330994908609949C1F800084FF604
:10082000FF70984908604FF033309749086001F134
:10083000040108604FF6FF709149C1F80C084FF0B1
:10084000020001F0B5F810BD10B5FFF739FE012127
:1008500044F61D0002F043F801214FF0021002F0AF
:100860004BF810BD1CB5FFF7EFFF4820FFF7A8FEBF
:10087000FFF7AEFFFFF777FFFFF766FFFFF74BFFCE
:10088000FFF708FFFFF7ECFE002080490860804971
:10089000C1F8B0014FF01400FFF7A8FE01207D4918
:1008A000086000F0E1FB00BF01F05CF80128FBD11B
:1008B00005230222CDE900230C23482201216C48A4
:1008C00000F046F94FF47A70FFF790FE40F21220E4
:1008D000714908804FF0010211466B4801F0FBFDA1
:1008E00001220221684801F0F6FD4FF47A70FFF70B
:1008F0007DFE4FF47A70FFF779FE4FF47A70FFF7C0
:1009000075FE4FF47A70FFF771FE4FF40C7001F032
:1009100090FB6CE061480078012868D1604800686D
:1009200020F001005649C1F800040846D0F814042C
:1009300040F001005B4908604FF000005749087023
:100940004FF0010001F078F901F07EF901F0FCF9B7
:1009500001F03AFA5448B0F900000F281DDA524865
:10096000B0F9000010F10F0F17DD00204F490860AB
:100970004F480068401C4E4908600846006804283B
:1009800003DC40F21D2001F054FB494800680428B4
:1009900003DD40F2222001F04CFB4348B0F9000097
:1009A0000F2805DC4048B0F9000010F10F0F17DAEE
:1009B0003E480068401C3D49086000203C490860F2
:1009C0003A480068032803DC40F2192001F031FBAB
:1009D00036480068032803DD40F2232001F029FB9C
:1009E0002F48006840F001002549C1F8000491E754
:1009F00000B587B041F61F40ADF81400C820ADF82F
:100A000010000020ADF81600ADF8120004A9294826
:100A100002F0A4F86020ADF800000120ADF802005B
:100A20000420ADF804004FF40770ADF80600022072
:100A3000ADF808000820ADF80A0069461D4802F02C
:100A4000CAF808211B4802F0F1FC0121194802F004
:100A5000BDFC0121174802F0B0FB0121154802F04E
:100A6000B8FB07B000BD00000004004000380140A2
:100A7000000801400010024000100140040801403D
:100A8000000001400C080140000C0140B00121426F
:100A900000802142B08121423404004082000020C5
:100AA000000401401404014066000020780000208A
:100AB0007C000020002C014010B50446204601F0C7
:100AC000E1FA00214FF0006001F01CFB10BD02466E
:100AD000002100BF08E0404850F82100904201D1B9
:100AE00008467047481CC1B20629F4DB0020F8E72D
:100AF0000246002100BF08E0384830F8110090425B
:100B000001D108467047481CC1B21029F4DB00200F
:100B1000F8E72DE9F84307460D4616461C464FF008
:100B200000083846FFF7D3FF80462D4951F82800CA
:100B3000012101F0D4FE8DF80360ADF800500CB136
:100B40008DF802406946384601F016FCBDE8F8838E
:100B50002DE9FE4F07460D4690461E46DDE90C9AEC
:100B60004FF0000B00243846FFF7B1FF83462846BC
:100B7000FFF7BEFF04460023424629463846FFF7EA
:100B8000C8FF0121084601F0AAFE164A115D164A67
:100B900012F80B0001F004FD144850F824000190F5
:100BA00000208DF808008DF8096001208DF80A00FA
:100BB00001A801F0F2FA0E48005D8DF800008DF8F2
:100BC00001908DF802A001208DF80300684601F025
:100BD0005EFABDE8FE8F00008C000020004900088E
:100BE00020490008434900083C49000854490008CE
:100BF00094490008014600BF704770B504460D4691
:100C000000BF4021F84802F05AFF0028F9D0E1B2B5
:100C1000F54802F0E6FE204670BD38B505460C46A4
:100C2000E8B28DF8000000208DF801008DF8024038
:100C300001208DF80300684601F029FA38BD38B567
:100C400004460D46E94A115DE94A32F81400FFF7FF
:100C5000E4FFE84951F82410E74A52F8242041EA19
:100C60000200012101F03BFE34B9E44951F82400AF
:100C7000012101F034FE05E0E04951F82400012192
:100C800001F03AFE18208DF80300DD4830F814001A
:100C9000ADF8000003208DF80200DA4951F8240075
:100CA000694601F069FB04208DF80300D64830F84E
:100CB0001400ADF80000D54951F82400694601F050
:100CC0005BFBD34951F82400294602F08EFDD04940
:100CD00051F82400012240F2255102F01EFECC49B9
:100CE00051F82400012102F00CFE38BD70B5044615
:100CF0000D4600BFC64951F82400402102F0DFFE36
:100D00000028F7D0C24951F82400294602F069FEB4
:100D100070BD1FB5044600940020ADF80400ADF886
:100D20000600ADF80800ADF80C000C20ADF80A0084
:100D300069460020FFF783FF1FBD1FB504460094DE
:100D40000020ADF80400ADF80600ADF80800ADF8DD
:100D50000C000C20ADF80A0069460120FFF76FFF78
:100D60001FBD10B540F225519F4802F0BEFE30B1C4
:100D70009D4802F03AFEA749A74A12788854A6482F
:100D80000078A6490978884204DAA3480078401C14
:100D9000A149087010BD10B540F22551A04802F0DD
:100DA000A4FE58B19E4802F020FEC1B29D480278D0
:100DB0000078401C9B4B18709B48815410BD10B5A7
:100DC000044600BF4021884802F079FE0028F9D08F
:100DD0002146854802F005FE10BD10B5044600BF4F
:100DE00040218F4802F06BFE0028F9D021468C4844
:100DF00002F0F7FD10BD10B50446AA20FFF7DFFF93
:100E00002046FFF7DCFF5520FFF7D9FF10BD2DE985
:100E1000F05F054688461646002405F0FF09C5F335
:100E2000072AC5F3074B2F1684F00904744084EA9F
:100E30000700C4B284EA0B0484EA0A0484EA0904C1
:100E4000AA20FFF7BCFF0920FFF7B9FF3046FFF7E4
:100E5000B6FFB8F1000F0CD0F8B2FFF7B0FF58465C
:100E6000FFF7ADFF5046FFF7AAFF4846FFF7A7FF81
:100E70000BE04846FFF7A3FF5046FFF7A0FF584698
:100E8000FFF79DFFF8B2FFF79AFF2046FFF797FFA5
:100E90005520FFF794FFBDE8F09F10B5044603E02E
:100EA00014F8010BFFF78BFF20780028F8D110BD54
:100EB00010B503460A46002158480078904201D0F8
:100EC0005648027054480078544C2478A0420FD100
:100ED000002104E04F48405C5854481CC1B24F48C0
:100EE00000788142F6DB00204B4C2070012010BDC1
:100EF0000020FCE77EB5054600200090019002909E
:100F00000024002609216846FFF7D2FFC0B19DF8F2
:100F10000000AA2814D19DF80800552810D10324F8
:100F200007E01DF80400E11EC90088400643601C6C
:100F3000C4B2072CF5DB9DF802003C4908702E6016
:100F40003A4800787EBD10B5044603E02078FFF7EC
:100F500036FF641C20780028F8D110BD3EB5054648
:100F600009240DE00A20B5FBF0F100FB11503030F0
:100F7000C0B20DF804000A20B5FBF0F5601E44B2C3
:100F8000002CEFDA002406E01DF80400302800D021
:100F900003E0601C44B2092CF6DB00BF05E01DF83D
:100FA0000400FFF70CFF601C44B20A2CF7DB3EBDC7
:100FB0007CB5044600208DF8060030208DF8000036
:100FC00078208DF80100052508E004F00F0018498D
:100FD000085C0DF805002411681EC5B2022DF4DA74
:100FE0006846FFF7B0FF7CBD00380140C8490008E3
:100FF000C4490008AC490008B4490008A4490008E5
:10100000BC490008B0000020C0490008B80000201A
:10101000A8000020CE130020C0000020C100002046
:1010200000440040C2000020EC130020C300002058
:10103000CA49000810B504463020FFF7C0FE7820EA
:10104000FFF7BDFE074901EB24110878FFF7B7FE53
:1010500004F00F01034A505CFFF7B1FE2020FFF7B8
:10106000AEFE10BDCA490008B448806940F00800CF
:10107000B2498861B248006820F47F40B149C1F8A4
:10108000040C0846D0F8040C40F44C50C1F8040C91
:101090000846D0F80C0C40F44060C1F80C0C7047C6
:1010A00010B50120A84908604FF06400FFF7B9FAB5
:1010B0000120A649C1F8A8016420FFF7B2FA002078
:1010C000A14908604FF06400FFF7ABFA00209F4988
:1010D000C1F8A8016420FFF7A4FA10BD10B50020E4
:1010E000994908604FF06400FFF79BFA0120974987
:1010F000C1F8A8016420FFF794FA01209249086022
:101100004FF06400FFF78DFA10BD10B501208E4935
:1011100008604FF06400FFF784FA01208B49C1F8A2
:10112000A8016420FFF77DFA0020894908604FF08C
:101130006400FFF776FA00208449C1F8AC0164200E
:10114000FFF76FFA10BD10B57D48006820F47040BD
:101150007C49C1F8040C0846D0F8040C40F4405017
:10116000774908604FF00100774908604FF064004C
:10117000FFF757FA01207549C1F8A8016420FFF76D
:1011800050FA00207149C1F8A8016420FFF749FA1C
:1011900001206E49C1F8AC0110BD10B501206C49A9
:1011A00008604FF06400FFF73CFA6648D0F8040C82
:1011B00020F470406349C1F8040C0846D0F8040CD0
:1011C00040F400405E4908604FF06400FFF729FAE0
:1011D0005E48D0F82C01C4B26420FFF722FA002048
:1011E0005B4908604FF06400FFF71BFA204610BD12
:1011F00070B5064600241EE006FA04F010F0800FD9
:1012000003D001205049086002E000204E490860E8
:101210006420FFF706FA01204D4908604FF0640092
:10122000FFF7FFF900204949C1F8A8016420FFF742
:10123000F8F9601CC4B2082CDEDB6420FFF7F1F97A
:101240003F48006820F470403E49C1F8040C08464D
:10125000D0F8040C40F40040C1F8040C4FF06400D6
:10126000FFF7DFF901203A4908604FF47A70FFF781
:10127000D8F93648D0F82C01012801D1002500E02A
:1012800001250020324908604FF06400FFF7C9F9DA
:101290002C48D0F8040C20F470402A49C1F8040C02
:1012A0000846D0F8040C40F4405025490860284610
:1012B00070BD70B500242248006820F470402149B8
:1012C000C1F8040C0846D0F8040C40F40040C1F802
:1012D000040C4FF06400FFF7A4F908251BE064201C
:1012E000FFF79FF901201A4908604FF06400FFF7EB
:1012F00098F96006040E1548D0F82C01012801D198
:10130000601CC4B20020124908604FF06400FFF76F
:1013100088F9681EC5B2002DE1DC0948006820F498
:1013200070400849C1F8040C0846D0F8040C40F499
:101330004050C1F8040C204670BD0000001002406F
:10134000040C014000000140AC8121420080214298
:10135000A881214270B505460C46FFF7A1FE422048
:10136000FFF746FF18B9FFF7B9FE002070BD6420F3
:10137000FFF757F92846FFF73BFF18B9FFF7AEFE16
:101380000020F3E76420FFF74CF92046FFF730FF19
:1013900018B9FFF7A3FE0020E8E7FFF79FFE012042
:1013A000E4E770B50446FFF77BFE4220FFF720FF1D
:1013B00018B9FFF793FE002070BD4FF4FA70FFF7E5
:1013C00030F92046FFF714FF18B9FFF787FE002019
:1013D000F2E7FFF783FE4FF4FA70FFF722F9FFF709
:1013E0005FFE4320FFF704FF18B9FFF777FE0020E8
:1013F000E2E74FF4FA70FFF714F9FFF75AFF0546DA
:10140000FFF783FEFFF76AFEFFF768FE2846D3E783
:1014100010B504213A20FFF79DFFD0214020FFF7AF
:1014200099FF14211220FFF795FF80213220FFF74A
:1014300091FF16211720FFF78DFF04211820FFF7D9
:1014400089FF02211920FFF785FF7B211A20FFF772
:1014500081FF06210320FFF77DFF00210C20FFF70D
:1014600079FF00213E20FFF775FF3A217020FFF73A
:1014700071FF35217120FFF76DFF11217220FFF7F9
:1014800069FF00217320FFF765FF0221A220FFF70B
:1014900061FF81211120FFF75DFF20217A20FFF7F6
:1014A00059FF1C217B20FFF755FF28217C20FFF7E7
:1014B00051FF3C217D20FFF74DFF55217E20FFF796
:1014C00049FF68217F20FFF745FF76218020FFF745
:1014D00041FF80218120FFF73DFF88218220FFF717
:1014E00039FF8F218320FFF735FF96218420FFF7F6
:1014F00031FFA3218520FFF72DFFAF218620FFF7C5
:1015000029FFC4218720FFF725FFD7218820FFF777
:1015100021FFE8218920FFF71DFFE0211320FFF7BD
:1015200019FF00210846FFF715FF00211020FFF7E3
:1015300011FF00210D20FFF70DFF28211420FFF7D8
:1015400009FF0521A520FFF705FF0721AB20FFF7C5
:1015500001FF75212420FFF7FDFE63212520FFF701
:10156000F9FEA5212620FFF7F5FE78219F20FFF741
:10157000F1FE6821A020FFF7EDFE0321A120FFF777
:10158000E9FEDF21A620FFF7E5FEDF21A720FFF718
:10159000E1FEF021A820FFF7DDFE9021A920FFF752
:1015A000D9FE9421AA20FFF7D5FEE5211320FFF7ED
:1015B000D1FE61210E20FFF7CDFE4B210F20FFF75A
:1015C000C9FE02211620FFF7C5FE37211E20FFF7B6
:1015D000C1FE02212120FFF7BDFE91212220FFF74D
:1015E000B9FE07212920FFF7B5FE0B213320FFF7B5
:1015F000B1FE0B213520FFF7ADFE1D213720FFF78F
:10160000A9FE71213820FFF7A5FE2A213920FFF716
:10161000A1FE78213C20FFF79DFE40214D20FFF7E1
:1016200099FE20214E20FFF795FE00216920FFF74B
:1016300091FE60216B20FFF78DFE19217420FFF7CA
:1016400089FE4F218D20FFF785FE00218E20FFF7B8
:1016500081FE00218F20FFF77DFE00219020FFF703
:1016600079FE00219120FFF775FE00219220FFF7FF
:1016700071FE00219620FFF76DFE80219A20FFF772
:1016800069FE8421B020FFF765FE0C21B120FFF731
:1016900061FE0E21B220FFF75DFE8221B320FFF72D
:1016A00059FE0A21B820FFF755FE14214320FFF709
:1016B00051FEF0214420FFF74DFE34214520FFF775
:1016C00049FE58214620FFF745FE28214720FFF715
:1016D00041FE3A214820FFF73DFE88215920FFF7BF
:1016E00039FE88215A20FFF735FE44215B20FFF7A1
:1016F00031FE67215C20FFF72DFE49215D20FFF7B9
:1017000029FE0E215E20FFF725FE04216420FFF74D
:1017100021FE20216520FFF71DFE05216620FFF731
:1017200019FE04219420FFF715FE08219520FFF7EC
:1017300011FE0A216C20FFF70DFE55216D20FFF7E9
:1017400009FE11216E20FFF705FE9F216F20FFF794
:1017500001FE40216A20FFF7FDFD40210120FFF737
:10176000F9FD40210220FFF7F5FDE7211320FFF7E7
:10177000F1FD00211520FFF7EDFD80214F20FFF73F
:10178000E9FD80215020FFF7E5FD00215120FFF702
:10179000E1FD22215220FFF7DDFD5E215320FFF7FE
:1017A000D9FD80215420FFF7D5FD9E215820FFF759
:1017B000D1FD08214120FFF7CDFD00213F20FFF79B
:1017C000C9FD05217520FFF7C5FDE1217620FFF752
:1017D000C1FD00214C20FFF7BDFD01217720FFF75F
:1017E000B9FDC2213D20FFF7B5FD09214B20FFF7D0
:1017F000B1FD6021C920FFF7ADFD38214120FFF781
:10180000A9FD40215620FFF7A5FD11213420FFF747
:10181000A1FD02213B20FFF79DFD8921A420FFF7B8
:1018200099FD00219620FFF795FD30219720FFF7C5
:1018300091FD20219820FFF78DFD30219920FFF7A1
:1018400089FD84219A20FFF785FD29219B20FFF740
:1018500081FD03219C20FFF77DFD4C219D20FFF79A
:1018600079FD3F219E20FFF775FD04217820FFF7C9
:1018700071FD01217920FFF76DFDF021C820FFF7F0
:1018800069FD0F217920FFF765FD0021C820FFF7D2
:1018900061FD10217920FFF75DFD7E21C820FFF753
:1018A00059FD0A217920FFF755FD8021C820FFF757
:1018B00051FD0B217920FFF74DFD0121C820FFF7D5
:1018C00049FD0C217920FFF745FD0F21C820FFF7C6
:1018D00041FD0D217920FFF73DFD2021C820FFF7B4
:1018E00039FD09217920FFF735FD8021C820FFF758
:1018F00031FD02217920FFF72DFDC021C820FFF71F
:1019000029FD03217920FFF725FD4021C820FFF79D
:1019100021FD05217920FFF71DFD3021C820FFF7AB
:1019200019FD26217920FFF715FD00210920FFF779
:1019300011FD10211220FFF70DFD14213A20FFF7B1
:1019400009FD80213D20FFF705FD11216720FFF7EC
:1019500001FDFF216820FFF7FDFCC0214020FFF7BB
:10196000F9FC10BD70B5FFF77FFB802421461220E3
:10197000FFF7F0FC08B9002070BD0A20FEF736FE24
:101980001220FFF70EFD05462946084802F029F807
:1019900000BF8021054802F092F80028F9D06420A9
:1019A000FEF724FEFFF734FD0120E5E70038014093
:1019B00001464906084A926942F00102064B9A61C3
:1019C000064A526822F0E062044B5A601A46526896
:1019D0000A435A60704700000010024000000140B6
:1019E00070B50446002506E028466A1CD5B2215C85
:1019F0000020FFF77BF9605D0028F5D170BD002263
:101A0000FF4B1A604FF00102FE4BC3F8B421FE4AAF
:101A10001268D0B24FF00002F94B1A604FF0010289
:101A2000F84BC3F8B421F84A1268D1B24FF0000263
:101A3000F34B1A604FF00102F24BC3F8B421F24AA3
:101A40001268D1B24FF00002ED4B1A604FF0010264
:101A5000EC4BC3F8B421ED4AD2F8082CD1B2704750
:101A600000201AE00022E64B1A604FF00102E54B1D
:101A7000C3F8B421E44A1268D1B24FF00002E04B3F
:101A80001A604FF00102DF4BC3F8B421DF4AD2F8ED
:101A9000082CD1B200F1010290B2B0F5A07FE1DBD9
:101AA000704730B5002411E0002501E0681C85B2C4
:101AB000A02DFBDBFFF7D4FFFFF7D2FFFFF7D0FF2E
:101AC000FFF7CEFFFFF7CCFF601C84B21E2CEBDBD0
:101AD00030BD0146002901DB084670474842C0B2CC
:101AE000FBE770B5FF21CA4801F07BFF00BF8021F2
:101AF000C74801F0E4FF0028F9D000242BE00025BE
:101B000025E004EB8400C34901EB4010405DFF2851
:101B10000BD104EB840001EB4010405D401E04EB50
:101B20008401BC4A02EB4111485504EB8400B94AD8
:101B300002EB4010415DB64801F053FF00BF802129
:101B4000B34801F0BCFF0028F9D0681CC5B2A02D35
:101B5000D7DB601CC4B21E2CD1DB70BDF0B50020F9
:101B600000220021002400231E203BE0002400224C
:101B700030E000EB8005A74E06EB4515AD5CA64EA8
:101B80003678B54207DDF42500EB8006A14F07EB60
:101B90004616B55417E0002500EB80069D4F07EB75
:101BA0004616B55400EB80053E4606EB4515AE5C87
:101BB000994D2D786E3DAE4205DA192803DA0528D5
:101BC00001DD651CECB2962C02DD5D1CEBB200E081
:101BD0000023521CA02ACCDB042B02DD01258F4EF2
:101BE0003570401E0028C1DC002022E000EB80059B
:101BF0008B4E366806EB4515691C002216E011F87D
:101C0000015CF42D06D10D7825B94D78F42D01D164
:101C10000D7009E011F8015C35B90D78F42D03D190
:101C20004D780DB900250D70521C491C9E2AE6DB2B
:101C3000401C1E28DADBF0BD10B504467548784913
:101C40000860FFF78BFF10BD2DE9F047002000274B
:101C500000230024844680460025724E3678DFF843
:101C6000C89189F81D601C205CE000230024DFF887
:101C7000B891461C19F806100FE000EB8006DFF85B
:101C8000A091D9F8009009EB4616765C1EB90123A5
:101C9000664E315401214E1EF1B20229EDDC012BBA
:101CA00004D00126DFF8849109F80060DFF878910C
:101CB000461C19F806200FE000EB8006DFF8609163
:101CC000D9F8009009EB4616B65C1EB90124584EAF
:101CD0003254A022561CF2B29E2AEDDB012C04D015
:101CE0009F26DFF84C9109F80060DFF8409119F861
:101CF0000090DFF83CA11AF800A009EB0A0606EBF9
:101D0000D679C9F34709DFF820A10AF800905646B2
:101D1000365C9C2E03DC5646365C042E00DA012528
:101D2000461EF0B2032801DD012D9ED13E4E767E87
:101D3000DFF8F09089F800603B4E367EDFF8F490D3
:101D400089F80060BDE8F08710B51B2222E0364913
:101D50008B5C511E344C615C591AC8B2FFF7B9FE56
:101D6000052815DD21468B5C511C615C591AC8B2EF
:101D7000FFF7AFFE05280BDD511E23465B5C511CAF
:101D8000615C581800EBD071C1F3470123469954A8
:101D9000501EC2B2022ADADC10BD002011E0002180
:101DA00000EB80021B4B03EB42121F4B1B5CD15418
:101DB00000EB8002174B03EB421282F85010411CDB
:101DC000C8B21E28EBDB70472DE9F84F00200090C9
:101DD0001549897A144AD27A881800EBD0714910D3
:101DE0005039154A11801046008814490988401A54
:101DF00000B2134908800846B0F9000022E0000054
:101E0000B481214200802142080C014000000140C1
:101E100000380140F0000020650000202400002070
:101E20008400002063000020B01300202700002061
:101E300045000020640000206600002068000020AB
:101E40006C00002010F1280F04DC7B48B0F9000082
:101E500023280ADC7948B0F9000028280FDB7648EF
:101E6000B0F9000010F1230F09DA7348B0F900004F
:101E7000734908807348B0F90000704908807048C1
:101E8000B0F9000010F1320F1ADB6D48B0F9000014
:101E9000002815DA6A48B0F90000404202F032F931
:101EA0000646694A694B02F045F90446684A694B9F
:101EB00002F082F8824602F04DF88046DFF89891F1
:101EC0005F48B0F90000322819DC5D48B0F9000025
:101ED000002814DD5A48B0F9000002F013F9044656
:101EE000594A5A4B02F026F9064600225B4B02F093
:101EF00063F8824602F02EF88046DFF85C91504885
:101F0000B0F9000032282ADA4D48B0F9000010F18B
:101F1000320F24DD0020524908804848B0F9000003
:101F200002F06EFB0746494602F082FB0546444834
:101F3000B0F9000002F064FB0746414602F078FB6E
:101F40000646294602F0DEFA044602F03DFB00B2E6
:101F5000009040F212210098081A4249088038483F
:101F6000B0F9000010F1320F04DD3548B0F900007F
:101F7000322835DB3A480088401C39490880084639
:101F80000088012818D12E48B0F90000322806DD5B
:101F90004FF4B9703349088001203349087028484C
:101FA000B0F9000010F1320F06DA4FF42A702D4913
:101FB000088002202C4908702948008801280FDD7C
:101FC00029480078012803D14FF4B97025490880C9
:101FD00025480078022803D14FF42A70214908804F
:101FE00020480088B0F5B97F03DC4FF4B9701D4973
:101FF00008801C480088B0F52A7F03DB4FF42A7064
:10200000184908800E48B0F900000B4908801548AF
:1020100003880B48B0F9002014A1174801F0CAFD4D
:102020001548FFF7DDFC0F48008814490880BDE81B
:10203000F88F134908807047680000206C0000206A
:10204000660000206E0000207B14AE47E17A843FDA
:10205000CDCCCCCCCCCC0440CDCC4C3F000004400B
:10206000CA00002074000020C80000200D0A25309E
:102070003364202530336400F6130020340400401C
:102080003804004036490143364A1160704770B544
:10209000002100230F22C4784CB3324C246804F48E
:1020A000E064C4F5E0644FEA1421C1F1040322FAAC
:1020B00001F2447804FA03F1847804EA020444EA61
:1020C00001014FEA0111284C0678A155047804F06B
:1020D0001F054FF0010404FA05F405784FEA651571
:1020E0004FF0E02606EB8505C5F8004109E00478CD
:1020F00004F01F050124AC401C4D0678761145F80C
:10210000264070BD1A4A0A4002431A4B1A607047B3
:1021100041B1194A126842EA00024FF0E023C3F8C5
:10212000102D07E0144A126822EA00024FF0E02363
:10213000C3F8102D7047042808D14FF0E021096939
:1021400041F004014FF0E022116107E04FF0E0217F
:10215000096921F004014FF0E0221161704700008D
:102160000000FA050CED00E000E400E080E100E092
:1021700080FFFF1F08ED00E010ED00E00020474960
:1021800008604749C1F804044649086001F10401A8
:102190000860454845490860704700213F498279F9
:1021A000DAB33F4AD2F8002403689A433C4BC3F8A1
:1021B00000241A46D2F8042403689A4301F1040368
:1021C0001A60027911440A68036842EA03020A604D
:1021D000334AD2F80824036822EA0302304BC3F8DA
:1021E00008241A46D2F80C24036822EA0302304B72
:1021F0001A604279102A11D1294AD2F808240368BA
:102200001A43274BC3F808241A46D2F80C24036853
:102210001A43234BC3F80C240EE007E01F49427910
:1022200011440A6803681A430A6005E00279114400
:102230000A6803689A430A607047002101600171CF
:102240000C2141710021817170471A49096841EAE6
:102250000001134AC2F81014704701460020134AC7
:1022600012680A4201D0012000E0002070470F49A7
:1022700008607047014600200022084B1B6803EAF3
:102280000102074BD3F814340B4202D00AB10120EB
:1022900000E00020704705490860704700040140D5
:1022A0000000014008040140FFFF0F00140401403A
:1022B0000C0401401004014010B50446CA48844291
:1022C00008D10121042000F024FB0021042000F0AB
:1022D00020FB46E0C548844208D10121082000F0D7
:1022E00018FB0021082000F014FB3AE0C0488442AB
:1022F00008D10121102000F00CFB0021102000F07B
:1023000008FB2EE0BB48844208D10121202000F0C8
:1023100000FB0021202000F0FCFA22E0B6488442B5
:1023200008D10121402000F0F4FA0021402000F003
:10233000F0FA16E0B148844208D10121802000F073
:10234000E8FA0021802000F0E4FA0AE0AC48844278
:1023500007D10121801500F0DCFA0021A01500F062
:10236000D8FA10BD10B50121084600F0D2FA0021BC
:10237000012000F0CEFA10BD2DE9F0410246002503
:102380000026002000230024002791F803C00CF051
:102390000F0591F803C01CF0100F03D091F802C094
:1023A0004CEA0505B1F800C01CF0FF0F31D01468ED
:1023B00000202BE04FF0010C0CFA00F3B1F800C044
:1023C0000CEA03069E4220D183004FF00F0C0CFA5A
:1023D00003F7BC4305FA03FC4CEA040491F803C07C
:1023E000BCF1280F06D14FF0010C0CFA00FCC2F82A
:1023F00014C00AE091F803C0BCF1480F05D14FF0BA
:10240000010C0CFA00FCC2F810C0401C0828D1D303
:102410001460B1F800C0BCF1FF0F34DD5468002037
:102420002EE000F1080C4FF0010808FA0CF3B1F8A7
:1024300000C00CEA03069E4221D183004FF00F0C2E
:102440000CFA03F7BC4305FA03FC4CEA040491F8C8
:1024500003C0BCF1280F05D100F1080C08FA0CF8F4
:10246000C2F8148091F803C0BCF1480F07D100F105
:10247000080C4FF0010808FA0CF8C2F81080401C54
:102480000828CED35460BDE8F0814FF6FF7101807B
:10249000022181700421C1707047024600209368B8
:1024A0000B4201D0012000E00020704701468868FF
:1024B00080B2704702460020D3680B4201D0012051
:1024C00000E0002070470146C86880B27047016193
:1024D0007047416170470AB1016100E04161704796
:1024E000C16070474FF480320A438261816182612A
:1024F00082698269704702460020424B18684FF695
:102500008073184040EA021008433E4B1860704741
:102510003D49C8617047F0B50A46002300240021F8
:10252000002500F00046B6F1004F02D1354EF169AA
:1025300001E0344E7168C0F3034583B200F44016E5
:10254000B6F5401F08D121F070612E4E766826F056
:1025500070662C4F7E6012E000F48016B6F5801F86
:1025600006D1032606FA05F4A14341F0706106E0A6
:10257000460D360103FA06F6B14341F0706122B10F
:10258000460D360103FA06F6314300F00046B6F177
:10259000004F02D11B4EF16101E01A4E7160F0BD97
:1025A00030B500228B071C0F0F2303FA04F2154BE2
:1025B00008338C1053F824309343124C08348D1098
:1025C00044F8253023468C1053F824308C07240F10
:1025D00000FA04F423430B4C08348D1044F82530E2
:1025E00030BD0A490860704700080140000C0140F6
:1025F000001001400014014000180140001C01407F
:10260000002001400000014000002042DC00204288
:10261000DB48006840F00100D9490860084640687E
:10262000D8490840D649486008460068D64908405D
:10263000D34908600846006820F4802008600846F6
:10264000406820F4FE0048604FF41F008860704727
:10265000CB49096821F48031C94A116011460968E3
:1026600021F480211160B0F5803F03D0B0F5802FB8
:102670000ED106E0C249096841F48031C04A1160B8
:1026800007E0BF49096841F4A021BD4A116000E09C
:1026900000BF00BF704710B5014600220023002094
:1026A0004A11012A02D1B64C236806E0022A02D15F
:1026B000B34C236A01E0B24C636A01F01F020124AB
:1026C00094401C4201D0012000E0002010BD70B5F4
:1026D00000240025002600BF3120FFF7DCFF06465E
:1026E000641CB4F5A06F01D0002EF5D03120FFF7A7
:1026F000D2FF08B1012500E00025284670BD014643
:1027000000209F4A106820F0F80040EAC1001060E5
:1027100070479E490860704702460020984B5868F1
:1027200020F47C1042EA01031843954B586070472F
:1027300096490866704701460020914A506820F08B
:1027400003000843506070478D48406800F00C005B
:102750007047014600208A4A506820F0F000084384
:102760005060704701460020854A506820F4E060C0
:1027700008435060704701460020814A506820F4A9
:10278000605040EAC1005060704729B17C4A527ADB
:1027900002437B4B5A7206E0794A527AC343DBB25A
:1027A0001A40774B5A727047794908607047014662
:1027B0000020734A506820F440400843506070473E
:1027C0000021744A11706E4A82F82010012802D04C
:1027D000042808D103E001216E4A117004E00521AC
:1027E0006C4A117000E000BF00BF70476A49086082
:1027F00070476349096A0143614A1162704767493A
:102800000860704730B500210022002400235C4D91
:102810006D6805F00C0121B1042905D0082923D1E8
:1028200005E05F4D056022E05D4D05601FE0544D01
:102830006D6805F47012524D6D6805F48034022500
:1028400005EB92421CB9574D554305600BE04C4DCA
:102850006D6815F4003F03D0524D5543056002E00A
:102860004F4D5543056002E04D4D056000BF00BF70
:10287000434D6D6805F0F00109094B4D6B5C05682F
:10288000DD4045603E4D6D6805F4E061090A464D46
:102890006B5C4568DD408560394D6D6805F46051BD
:1028A000C90A414D6B5C4568DD40C560344D6D68BB
:1028B00005F44041890B3D4D6B5CC568B5FBF3F5F4
:1028C000056130BD29B12E4A526902432C4B5A6131
:1028D00004E02B4A52698243294B5A61704729B15F
:1028E000274A92690243264B9A6104E0244A92697E
:1028F0008243234B9A61704729B1214AD26902432E
:102900001F4BDA6104E01E4AD26982431C4BDA6134
:10291000704729B11A4AD2680243194BDA6004E0C1
:10292000174AD2688243164BDA60704729B1144ABD
:1029300012690243124B1A6104E0114A1269824380
:102940000F4B1A6170471A49086070470F49C864F5
:1029500070470B49C87170470948406A40F0807061
:1029600007494862704701460020054A92680A42BA
:1029700001D0012000E000207047014988727047B3
:10298000001002400000FFF8FFFFF6FE0000424288
:10299000D800424220100240800442423C0442429D
:1029A00000127A0000093D00CC000020DC0000206D
:1029B0004004424210B50446FF48844208D1012138
:1029C000C014FFF7A6FF0021E014FFF7A2FFC4E048
:1029D000B4F1804F08D101210846FFF7A7FF00217D
:1029E0000120FFF7A3FFB8E0F448844208D1012199
:1029F0000220FFF79BFF00210220FFF797FFACE0CA
:102A0000EF48844208D101210420FFF78FFF002105
:102A10000420FFF78BFFA0E0EA48844208D101219F
:102A20000820FFF783FF00210820FFF77FFF94E0D5
:102A3000E548844208D101211020FFF777FF0021EB
:102A40001020FFF773FF88E0E048844208D101219D
:102A50002020FFF76BFF00212020FFF767FF7CE0BD
:102A6000DB48844208D101214014FFF752FF0021C6
:102A70006014FFF74EFF70E0D648844209D101216F
:102A8000C804FFF746FF00214FF40020FFF741FF85
:102A900063E0D148844209D101210805FFF739FFDD
:102AA00000214FF48010FFF734FF56E0CB488442FA
:102AB00009D101214805FFF72CFF00214FF4001038
:102AC000FFF727FF49E0C648844208D10121402092
:102AD000FFF72CFF00214020FFF728FF3DE0C14811
:102AE000844208D101218020FFF720FF00218020AF
:102AF000FFF71CFF31E0BC48844208D1012180155A
:102B0000FFF714FF0021A015FFF710FF25E0B748DD
:102B1000844209D101210804FFF7FBFE00214FF494
:102B20008030FFF7F6FE18E0B148844209D1012158
:102B30004804FFF7EEFE00214FF40030FFF7E9FEF6
:102B40000BE0AC48844208D101218804FFF7E1FE84
:102B500000214FF48020FFF7DCFE10BD0022028828
:102B6000954B98420ED09A4B98420BD0B0F1804FC3
:102B700008D0924B984205D0914B984202D0914B8D
:102B8000984204D14FF68F731A404B881A438E4BEC
:102B9000984207D08D4B984204D04FF6FF431A401D
:102BA000CB881A4302808B8883850B880385824BF0
:102BB00098420BD0864B984208D08C4B984205D057
:102BC0008B4B984202D08B4B984201D10B7A0386F3
:102BD00001238382704770B5002400220023058CF6
:102BE0004FF6FE7635400584028C8388048B4FF6C1
:102BF0008F752C40B51E2C400D882C43751E2A4025
:102C00000D892A434D882A436B4DA8420BD0704D45
:102C1000A84208D0754DA84205D0754DA84202D0F3
:102C2000744DA84213D14FF6F7752A404D892A43B7
:102C30004FF6FB752A408D882A434FF6FF652B40DF
:102C40004FF6FF552B408D892B43CD892B43838035
:102C50000483CD888586028470BD70B5002400226F
:102C60000023058C4FF6EF7635400584028C83886F
:102C7000048B48F6FF752C404FF6FF452C400D881D
:102C80002D0644EA15444FF6DF752A400D892D05BF
:102C900042EA15424D882D0542EA1542464DA842AA
:102CA00002D04B4DA8421BD14FF67F752A404D896B
:102CB0002D0542EA15424FF6BF752A408D882D0535
:102CC00042EA15424FF6FF352B404FF2FF752B407D
:102CD0008D89AD0443EA1543CD89AD0443EA15431C
:102CE00083800483CD880587028470BD70B500247D
:102CF00000220023058C4FF6FF6635400584028CC8
:102D00008388848B4FF68F752C404FF6FC752C40D2
:102D10000D882C434FF6FF552A400D892D0642EAB7
:102D200015424D882D0642EA1542234DA84202D095
:102D3000274DA8421BD14FF2FF752A404D892D0621
:102D400042EA15424FF6FF352A408D882D0642EAA9
:102D500015424EF6FF752B404DF6FF752B408D89C1
:102D60002D0543EA1543CD892D0543EA154383809C
:102D70008483CD888587028470BD70B500220023CE
:102D80000024058C4EF6FF7635400584038C84883C
:102D9000828B48F6FF752A404FF6FF452A400D8882
:102DA0002D0642EA15424DF6FF752B400D892D0781
:102DB00043EA15434D881FE0002C01400004004009
:102DC00000080040000C00400010004000140040CB
:102DD00000340140004C01400050014000540140CB
:102DE00000180040001C004000200040004001404E
:102DF00000440140004801402D0743EA1543F94DC6
:102E0000A84202D0F84DA84206D14BF6FF752C40DF
:102E10008D89AD0544EA154484808283CD88A0F86D
:102E20004050038470BD828B4FF2FF331A4082837F
:102E3000828B0B0642EA134282837047F0B50C4640
:102E40001546002200210026078C4EF6FF7C07EA7B
:102E50000C070784828B018C27073E0C40F6FF4746
:102E60003A402F0642EA17421F0742EA1742DD4F57
:102E7000B8420ED0DC4FB8420BD0B0F1804F08D032
:102E8000DA4FB84205D0DA4FB84202D0D94FB84233
:102E900006D14DF6FF77394046F48057394305E0B7
:102EA00047F6FF57394044F4805739438283018401
:102EB000F0BD828B4FF6F3731A408283828B0A43F4
:102EC00082837047F0B50C4615460022002100268B
:102ED000078C4FF6FF6C07EA0C070784828B018C86
:102EE00027063E0C4FF60C773A401F0545EA174778
:102EF0003A43BC4FB8420ED0BB4FB8420BD0B0F1F2
:102F0000804F08D0B94FB84205D0B94FB84202D06F
:102F1000B84FB84206D14FF6FF57394046F4807794
:102F2000394305E04FF2FF57394044F48077394385
:102F300082830184F0BD028B4FF2FF331A4002837B
:102F4000028B0B0642EA134202837047F0B50C462F
:102F50001546002200210026078C4FF6EF7C07EA79
:102F60000C070784028B018C27053E0C40F6FF47B7
:102F70003A401F0742EA17422F0642EA1742994F8A
:102F8000B8420ED0984FB8420BD0B0F1804F08D065
:102F9000964FB84205D0964FB84202D0954FB842EE
:102FA00006D14FF6DF77394046F01007394305E088
:102FB0004FF65F77394044F01007394302830184AC
:102FC000F0BD028B4FF6F3731A400283028B0A4363
:102FD00002837047F0B50C46154600220021068C8E
:102FE0004FF6FE773E400684028B018C4FF60C763E
:102FF00032401E0545EA164632437A4EB0420ED0A4
:10300000794EB0420BD0B0F1804F08D0774EB0422D
:1030100005D0774EB04202D0764EB04206D14FF680
:10302000FD76314044F00106314305E04FF6F57678
:10303000314044F00106314302830184F0BD70B594
:1030400005460C46674885420ED0674885420BD03E
:10305000B5F1804F08D06548854205D06448854267
:1030600002D06448854200D100E000BF208850B9FA
:103070002389A28861882846FFF7ACFFE1882846AB
:10308000FFF79FFF25E0208804280AD12389A28822
:1030900061882846FFF75AFFE1882846FFF74BFF73
:1030A00017E0208808280AD12389A2886188284649
:1030B000FFF708FFE1882846FFF7FBFE09E02389B8
:1030C000A28861882846FFF7B9FEE1882846FFF705
:1030D000AAFE70BD2DE9F04105460C4600260127E9
:1030E000608808B9022600E00026A088012801D1E6
:1030F000022700E001272088A0B92389A2886188DF
:103100002846FFF767FFE1882846FFF75AFF238923
:103110003A4631462846FFF719FFE1882846FFF76F
:103120000AFF13E02389A28861882846FFF70EFF73
:10313000E1882846FFF7FFFE23893A4631462846B4
:10314000FFF748FFE1882846FFF73BFFBDE8F08125
:103150000A884B881A438B881A43CB881A430B89F9
:103160001A434B891A438B891A43A0F844207047AD
:103170004FF6FF71818000210180C1804180017282
:1031800070470021018041808180C180018141819F
:103190008181C181704700210180418001218180AE
:1031A0000021C18001817047002101804180818020
:1031B000C180018141818181704721B1028842F043
:1031C0000102028004E002884FF6FE731A4002807A
:1031D000704789B1B0F8442042F40042A0F844207E
:1031E00010E00000002C01400034014000040040C9
:1031F00000080040000C0040B0F84420C2F30E026A
:10320000A0F84420704710B51AB183890B4383811D
:1032100004E08389CC43A4B22340838110BD818222
:10322000704741EA0203A0F84830704710B51AB160
:1032300083890B43838104E08389CC43A4B2234078
:10324000838110BD01894FF6F872114001817047EA
:103250000A46002101894FF68F73194011430181FD
:10326000704730B504460D4629462046FFF7F0FF6B
:10327000208940F00700208130BD2DE9F04104464F
:103280000D4616461F46602D06D13B4601223146AB
:103290002046FFF75BFE05E03B4601223146204613
:1032A000FFF798FE29462046FFF7D2FF208940F01D
:1032B00007002081BDE8F08130B50C46002101896E
:1032C000C9B21D0642EA154525432943018130BD97
:1032D0002DE9F04105460E46174698460024434620
:1032E0003A4631462846FFF7E7FF2C894FF6F8713A
:1032F0000C4044F007044FF68F710C4044F070040A
:103300002C81BDE8F081F0B504460D4616461F46F7
:103310003B46324629462046FFF7CEFF208940F43F
:1033200080402081F0BD0185828270470A460021DD
:1033300001884FF68F731940114301807047F0B533
:103340000C4615461E460021002200230189028BEF
:10335000038C4FF6F877394021434FF6FC473A404B
:1033600040F201173A434FF6DD773B40370545EA17
:1033700017473B43018102830384F0BD0A460021C5
:10338000018B4FF68F7319401143018370470A4632
:103390000021018B48F6FF731940130641EA1341DF
:1033A000018370470A460021818B4FF68F731940C5
:1033B0001143818370470A460021818B48F6FF73D1
:1033C0001940130641EA13418183704721B10288F5
:1033D00042F08002028004E002884FF67F731A40B8
:1033E0000280704721B1828842F00402828004E0AA
:1033F00082884FF6FB731A408280704721B1828821
:1034000042F00802828004E082884FF6F7731A4087
:103410008280704721B1828842F00102828004E0FC
:1034200082884FF6FE731A40828070470A46002158
:10343000018B4FF6F77319401143018370470A4619
:103440000021018B4FF2FF731940130641EA13412B
:10345000018370470A460021818B4FF6F7731940AC
:103460001143818370470A460021818B4FF2FF731D
:103470001940130641EA1341818370470A4600212F
:10348000018B4FF6FB7319401143018370470A46C5
:103490000021018B4FF6FF331940130641EA134117
:1034A000018370470A460021818B4FF6FB73194058
:1034B0001143818370470A460021818B4FF6FF3309
:1034C0001940130641EA1341818370470A460021DF
:1034D000018B4FF67F7319401143018370470A46F1
:1034E0000021018BC1F30E01130641EA1341018350
:1034F00070470A460021818B4FF67F7319401143B4
:10350000818370470A460021818BC1F30E011306A7
:1035100041EA1341818370470A460021018C4FF62E
:10352000FD7319401143018470470A460021018C44
:103530004FF6F77319401143018470470A46002182
:10354000018C4FF6DF731940130541EA13410184E2
:1035500070470A460021018C4FF67F73194013050E
:1035600041EA1341018470470A460021018C4FF65D
:10357000FF531940130641EA1341018470470A467C
:103580000021018C4FF2FF731940130641EA1341E9
:10359000018470470A460021018C4DF6FF731940E3
:1035A000130741EA13410184704730B50023012419
:1035B0008C40A3B2048CDD43ADB22C400484048C57
:1035C00002FA01F5ADB22C43048430BD30B50023BE
:1035D00004248C40A3B2048CDD43ADB22C4004849F
:1035E000048C02FA01F5ADB22C43048430BD70B5F1
:1035F0000346002000241846183001258D40ACB247
:103600001D8CE643B6B235401D8409B1082909D1A5
:1036100000EB6100056825F070050560056815433D
:1036200005600CE00D1FADB200EB6500056825F4E8
:10363000E04505600568160645EA1645056070BD5B
:1036400021B1028842F00202028004E002884FF6B3
:10365000FD731A400280704721B1028842F00402D3
:10366000028004E002884FF6FB731A400280704724
:1036700021B1828842F08002828004E082884FF685
:103680007F731A408280704702884FF6F7731A40A2
:10369000028002880A430280704782884FF68F7347
:1036A0001A40828082880A438280704702894FF6DE
:1036B000F8731A40028102890A4302817047028925
:1036C0004FF67F731A40028102890A4302817047D4
:1036D0008184704781857047818670470187704774
:1036E00081877047A0F84010704702884FF6FF436B
:1036F0001A40028002880A43028070470146888E81
:1037000070470146088F70470146888F7047014611
:10371000B1F8400070470146888C70470146088D1B
:10372000704702460020138A0B4201D0012000E0BE
:1037300000207047CA430282704730B5024600201D
:1037400000230024158A05EA0103958905EA01048E
:1037500013B10CB1012000E0002030BDCA43028249
:103760007047000010B50446FC48844209D101218D
:103770008803FFF7CEF800214FF48040FFF7C9F827
:1037800032E0F748844209D101214804FFF7CEF81E
:1037900000214FF40030FFF7C9F825E0F1488442DA
:1037A00009D101218804FFF7C1F800214FF48020DE
:1037B000FFF7BCF818E0EC48844209D10121C804A5
:1037C000FFF7B4F800214FF40020FFF7AFF80BE04B
:1037D000E648844208D101210805FFF7A7F8002137
:1037E0004FF48010FFF7A2F810BD2DE9F04786B026
:1037F00005460E460024A24600BFA1460027B08918
:1038000000B100BF2F462C8A4CF6FF700440F088B0
:1038100004432C82AC894EF6F3100440B088318901
:103820000843718908430443AC81AC8A4FF6FF40DA
:103830000440B0890443AC8201A8FEF7E3FFC74807
:10384000874202D1DDF810A001E0DDF80CA0A889C4
:1038500010F4004F08D00AEBCA0000EB0A103168E0
:103860004900B0FBF1F807E00AEBCA0000EB0A10D0
:1038700031688900B0FBF1F86420B8FBF0F0040176
:103880002009642101FB1089A88910F4004F08D099
:10389000322000EBC900B0FBF1F000F00700044358
:1038A00008E0322000EB09106421B0FBF1F000F0D9
:1038B0000F0004432C8106B0BDE8F0874FF4165189
:1038C000016000218180C18001810C2141810021A2
:1038D0008181704710B502460020108A4FF2FF0325
:1038E00018400B884C8823438C882343CC8823437F
:1038F0001843108210BD0021018041808180C18069
:10390000704721B1828942F40052828104E08289A9
:103910004DF6FF731A4082817047F0B503460024CC
:10392000002600250020A1F510676A3F00D100BFE6
:103930001846C1F3421401F01F06012707FA06F5E5
:10394000012C01D10C3004E0022C01D1103000E038
:1039500014301AB107682F43076002E00768AF43CD
:103960000760F0BD10B51AB1838A0B43838204E06F
:10397000838ACC43A4B22340838210BD028A4FF6CF
:10398000F0731A400282028A0A43028270478289D7
:103990004FF2FF731A40828182890A438281704705
:1039A00021B1828942F00202828104E082894FF6CD
:1039B000FD731A4082817047028A4FF6DF731A4006
:1039C0000282028A0A430282704721B1028A42F4CB
:1039D0008042028204E0028A4BF6FF731A400282A0
:1039E0007047C1F308028280704701468888C0F39F
:1039F00008007047818941F0010181817047028B85
:103A0000D2B20283028B42EA012202837047028B08
:103A100002F47F420283028B0A430283704721B182
:103A2000828A42F02002828204E0828A4FF6DF73AB
:103A30001A408282704721B1828A42F0100282824B
:103A400004E0828A4FF6EF731A408282704721B1F8
:103A5000828A42F00802828204E0828A4FF6F7737B
:103A60001A408282704721B1828942F400428281E9
:103A700003E08289C2F30E028281704721B1828AFB
:103A800042F40062828204E0828A4FF2FF731A409D
:103A900082827047828A4FF6FB731A408282828A42
:103AA0000A438282704721B1828A42F002028282F6
:103AB00004E0828A4FF6FD731A4082827047024604
:103AC0000020B1F5007F00D100BF13880B4201D068
:103AD000012000E00020704701F40072B2F5007F81
:103AE00000D100BFCA430280704770B5024600246F
:103AF000002300250020A1F510666A3E00D100BF1A
:103B0000C1F3421501F01F03012606FA03F3012D4C
:103B100002D19689334006E0022D02D1168A334045
:103B200001E0968A33400C12012606FA04F4168846
:103B3000344013B10CB1012000E0002070BD10B57D
:103B400000220023A1F510646A3C00D100BF0A12D4
:103B500001249440A3B2DC43048010BD003801402E
:103B60000044004000480040004C0040005000402D
:103B70000948804709480047FEE7FEE7FEE7FEE701
:103B8000FEE7FEE7FEE7FEE7FEE7FEE7044805493D
:103B9000054A064B70470000C104000831010008C7
:103BA00068140020681A002068160020681600209B
:103BB000704700000FB41CB5074B06AA7B4469464A
:103BC0000090059800F071F90020694600F080F936
:103BD0001CBC5DF814FB00001103000070B5044626
:103BE000856900683026C10600D42026C00708D0A9
:103BF00070BDD4E9012130469047206A00F10100F0
:103C000020626D1EF5D570BD70B5044685690068EB
:103C1000C00708D170BDD4E9012120209047206A57
:103C200000F1010020626D1EF5D570BD2DE9F04157
:103C30008046002610687529414615A512D0AFF3BD
:103C40000080002803DAC0F1000012A508E0D8F8CF
:103C500000108A0701D510A502E0490704D50FA579
:103C6000012601E0AFF30080002408F1240704E0FE
:103C700000F033F930313955641C0028F8D133464F
:103C80002A4621464046BDE8F04100F0AFB80000AA
:103C9000000000002D0000002B00000020000000AC
:103CA0002DE9F05F4FF0000B044689464FF0010A02
:103CB000C0F820B02046E168884798B3252806D090
:103CC000D4E901219047206A401C2062F2E7444F6A
:103CD00000267F442046E16888472028054608DB07
:103CE000312D06D207EB050010F8200C08B1064371
:103CF000F0E7B00701D526F00406C4F81CB0002791
:103D0000C4F818B02A2D0ED05246A5F130010A2968
:103D10002ED2BAF1000F2BD0924604EB8708C8F8D8
:103D200018101AE059E059F8041B204604EB8702EA
:103D30009161E1688847012F05461BD1E0690028A1
:103D400023DA26F0200620E0D8F8180000EB8000E7
:103D500005EB40003038C8F818002046E168884775
:103D6000A0F1300105460A2902D2BAF1000FEBD1C9
:103D7000012F0AD02E2D08D12046E16888477F1CEC
:103D80000546022F46F02006BCDBA069002803DAB6
:103D9000404246F00106A061F00701D026F010066F
:103DA000DDB1A5F14100192802D8203546F400669E
:103DB0004A462946204626604E46FCF7F3F950B1A4
:103DC000012805D0F61D26F0070000F1080971E76B
:103DD00006F104096EE7284672E7206ABDE8F09F05
:103DE000040D000070477047704770472DE9F04799
:103DF0000D4604469246994600F12408016888065B
:103E000004D5E06921F01001216000E001200027C5
:103E1000A84201DDA0EB0507A16907EB050202EB53
:103E20000300A1EB0000A0612068C00602D4204678
:103E3000FFF7D4FE002608E0D4E901211AF80600B5
:103E40009047206A401C761C20624E45F4DB2068B7
:103E5000C0060AD52046FFF7C1FE06E0D4E90121DD
:103E600030209047206A401C2062381EA7F10107CD
:103E7000F4DC07E0D4E9012118F805009047206A36
:103E8000401C2062281EA5F10105F3DC2046FFF747
:103E9000BBFE21680220090600D40120BDE8F0879E
:103EA00001694A1C02610878704700B58FB0CDE9FE
:103EB00001310021059105497944CDE903101146EE
:103EC0006846FFF7EDFE0FB000BD0000E5FFFFFF05
:103ED0000A6802F8010B0A6070474FF00A01B0FB54
:103EE000F1F202FB110110467047754600F028F808
:103EF000AE4605006946534620F00700854618B0D7
:103F000020B5FFF743FEBDE820404FF000064FF01C
:103F100000074FF000084FF0000B21F00701AC46FE
:103F2000ACE8C009ACE8C009ACE8C009ACE8C0091D
:103F30008D4670470446AFF300802046FCF746F9F3
:103F4000004870470414002001487047704700BFC4
:103F50000814002021F00042A2F16052B2F5801F47
:103F600001F0004328BFD2F17F6C0BD95FEA001C3F
:103F700043EAC20242EB507018BF704728BF20F0DE
:103F800001007047B2F5801FBCBF184670474FEA6A
:103F9000410C1CF5001F02D2084600F017BC70B59A
:103FA00000F072F900000089FFF7F6BF4FF0004003
:103FB000A0F580007047000010B591EA030F48BFDC
:103FC00083F0004300F1BC81841A71EB030E05D22B
:103FD000121943EB0E03001B61EB0E01DFF820C149
:103FE0004FEA1154A4EB135E1CEA430F18BF9CEA7E
:103FF000445F71D023EA0C03DEF1200C21EA045166
:1040000043F4801332D322FA0EFC10EB0C0023FA97
:104010000EFC41EB0C01CEF1200C03FA0CFC10EB72
:104020000C0051F10001B1F5801FCEF1200C32D20D
:1040300001EB0451BDE8104012FA0CF258BF704772
:10404000401C38BF5FEA420218BF7047002814BF07
:1040500020F0010041F100014FEA410313F5001F78
:1040600038BF7047A1F1C04100F05CB9012A43EBB1
:104070000302AEF1200EDEF11F0C32BF4FF0000C38
:1040800023FA0EF310EB030041EB0451B4EB115F84
:10409000D0D0A1EB045101F58011490801EB045186
:1040A000BDE810405FEA30000CD350F1000038BF8B
:1040B00012FA0CFC06D1C9E7401C38BF5FEA420285
:1040C000CAD1C3E74FEA410313F5001F38BF704759
:1040D000A1F1C04100F026B99CEA445F08D0BDE8D8
:1040E000104011EA5C0F04BF01F00041002070474E
:1040F000BDE8104070B500F0C7F800BF64FBBE3EDD
:104100000000E0FF10F0004248BF4042B0FA80F3E8
:1041100010FA03F10AD0C3F11D0303F580634FEADF
:10412000415002EB035202EBD12170474FF00000E7
:1041300070470000DFF848C170B51CEA111E1EBFB1
:104140001CEA13159EEA0C0F95EA0C0F00F06F8025
:1041500081EA030423EA4C134EEAD47E21EA4C118F
:1041600041F4801143F48013AE44A1FB024CA0FB48
:104170000365AEF17F7E361955EB0C05A1FB034CB0
:104180004CF10003A0FB021C16EB0C06654153F139
:104190000003094218BF46F0010613F4007F0BD15B
:1041A0004FEA03314FEA0530340341EA155140EA42
:1041B00016506FF003020AE04FEAC3214FEAC52010
:1041C000F40241EA555140EA56506FF0020202EB08
:1041D0002E4201EB025585EACE710AD05FEA440C0B
:1041E00018BF24F0004450F1000041F1000120EA22
:1041F000D47040F2FE7C624500D270BDA84214BF6C
:104200004FF080444FF04044002E08BF0024BEF120
:10421000806FA8BFA1F1C041BDE8704080F28280EC
:104220004FF0000001F1C04101F0004170479EEAEB
:104230000C0F0CEA131518BF95EA0C0F06D04FF0BF
:10424000000081EA030E0EF0004170BD00F01CF882
:104250008900013E00F007B800F009B84FEA430CAE
:104260005FEA5C5C08D081EA030100F05BB84FEACA
:10427000410C5FEA5C5CF6D14FF0000001497047E9
:104280000000FF070000F87F0EF1020E2EF0030E73
:104290005EF8046B364205D4012A43EB030515F59D
:1042A000001F12D8012841EB010C1CF5001F0CD88F
:1042B0000ED14FEAD17C15F5001F0CEB4C0C0CF124
:1042C000020C08BF4CEBD37C04E04FF0080C01E07B
:1042D0004FEAD37C0CEB4C0526FA05F606F00706F0
:1042E000B6F1040C06D20EEB860CBDE870404CF023
:1042F000010C6047DFE80CF0090B02024FF00041AF
:104300004FF00000A1F5002170BD194610460128AC
:1043100051EB010418BFD4F5001484BF002001F054
:10432000004170BD0808A0F500114FEA3101704747
:1043300010B591EA030F48BF83F000433FF544AE48
:10434000841A71EB030E07D212198EF0004E43EB64
:104350000E03001B61EB0E01DFF8A4C14FEA1154FC
:10436000A4EB135E1CEA430F18BF9CEA445F00F005
:10437000B08023EA6C03524221EA0451C3EB6C0380
:1043800038BF5B1EDEF1200C25D322FA0EFC10EBA9
:104390000C0043FA0EFC41EB0C01CEF1200C03FAA9
:1043A0000CFC10EB0C0051F10001CEF1200C29D4D3
:1043B00001EB0451BDE8104012FA0CF258BF7047EF
:1043C000401C1CBFB2F1004F704700280CBF491CB5
:1043D00020F00100704712EB020C43EB030218BF00
:1043E0004FF0010C4CEA4202AEF1200EDEF11E0C41
:1043F00054D943FA0EFC10EB0C0051F1FF31CEF111
:104400001E0CD5D50CF1010C12FA0CFC404141EB0D
:10441000010101EB445E5FEA5E5E10D901EB0451DD
:10442000BDE8104010EBDC7038BFBCF1004F18BF86
:10443000704700280CBF491C20F00100704730D2A3
:104440004FEAD42E11F5001124F400641BD0B1FA08
:1044500081F20B3AA41AA41ED2F12003914030FA43
:1044600003F31943904001EBCE71002C01EB045192
:10447000BDE81040A8BF704701F1C0414FF00000F7
:1044800001F000417047B0FA80F310FA03F100D157
:1044900010BDE41A173C4805C90AE4E701EB0451D2
:1044A00010BD491001EB0451BDE810404FEA300047
:1044B00002E04FF0000170474A0008BF0042F8D008
:1044C000B2F5001F28BF704701F000414FF0000017
:1044D00070479CEA445F07D0BDE8104011EA5C0FCA
:1044E00004BF002100207047BDE8104070B5FFF701
:1044F000CBFE00BF40DFF63E83F000411046704720
:104500000000E0FF90EA010F48BF81F0004100F198
:104510006A81421A3CBF801A89184FEAD0524FF084
:104520007F4C1CEA410FA2EBD15318BF9CEA026FEB
:1045300000F03B804FF0004C4CEA00204CEA012197
:1045400021FA03FC10EB0C0C1ED202F1FF325FEAE1
:104550001C2040EBC25038BF70471CF07F0F4FEA61
:10456000400C18BFBCF17F4F38BF7047C3F1200328
:10457000994008BF20F00100BCF17F4F38BF704761
:10458000A0F1C04000F022B94FEA3C00000A40EB25
:10459000C25028BF1CF0FF0F4FEA400CE6D018BFF6
:1045A000BCF17F4F38BF7047EAE79CEA026F05D045
:1045B00010EA5C0F08BF00F00040704710B500F033
:1045C000B8F800BF64FBBE3E41000B0ED3F19E0263
:1045D00008D950F400034FEA032323FA02F048BF3E
:1045E0004042704710B500F0A4F800BF4992248003
:1045F000002070476FF0004282EA20007047000000
:1046000010F0004148BF4042B0FA80F310FA03F2C4
:10461000C3F19D030BD051EAC35101EB12205306A5
:1046200038BF704700F1010008BF20F0010070475B
:104630004FF47F0C1CEAD0121EBF1CEAD11392EA81
:104640000C0F93EA0C0F00F0478090EA010F48BF6F
:1046500042F480724FF0004C4CEA00204CEA0121F9
:1046600002EB0302A0FB0113A2F50002002918BF10
:1046700043F001035B0028BF4FEA330342EB2242C1
:104680005FEA132C4CEBC2502EBFBCEB436FB2F56C
:104690007C0F70474FEA036CBCF1004F08BF20F05D
:1046A0000100B2F57C0F38BF70470BD582F0FF02D6
:1046B00012F5803FC8BF704700F1C040D8BF00F07E
:1046C0000040704700F5000C5FEA4C0C48BF704793
:1046D000B0F1C04000F07AB890EA010F0CEAD113B3
:1046E00048BF42F48072624538BF634504D280EA15
:1046F000010000F00040704710B500F01AF800BF4C
:104700008900013E00F007B800F009B85FEA410CEB
:104710005FEA1C6C08D080EA010000F057B85FEA3D
:10472000400C5FEA1C6CF6D14FF00040A0F5800011
:1047300070470EF1020E2EF0030E5EF8044B244279
:1047400004D44FEA4102B2F17F4F11D84FEA40033F
:10475000B3F17F4F0CD80ED14FEAD07CB2F17F4F2E
:104760000CEB4C0C0CF1020C08BF4CEBD17C04E0C0
:104770004FF0080C01E04FEAD17C0CEB4C0324FA1B
:1047800003F404F00704B4F1040C06D20EEB840C1D
:10479000BDE810404CF0010C6047DFE80CF0070862
:1047A00002024FF00040A0F5800010BD0846420014
:1047B00018BFD2F1807288BF00F0004010BD10B564
:1047C000FFF7C2FB4FF00001016010BDFF2141EA7D
:1047D000D050C0057047000090EA010F48BF81F03B
:1047E00000413FF596AE421A04D882F00042A0EB99
:1047F000020011444FEAD0524FF07F4C1CEA410FA7
:10480000A2EBD15318BF9CEA026F4AD04FF0004C84
:104810004CEA00204CEA012121FA03FCB0EB0C0C1D
:104820000FD412F0FE0F36D05FEA4C001DD50012F7
:1048300040EBC25038BF70471CF03F0F18BF7047A5
:104840000BE0A2F101025FEA1C2040EBC25038BF2E
:1048500070471CF07F0F18BF7047C3F120039940C9
:1048600014BF401E20F00100704780084FEA122359
:1048700008BF7047B0FA80FCA2EB0C02CCF1280C08
:1048800060FA0CF093EA122F04BF00EBC25070479D
:104890004FEAC3707047130A5FEADC1008BF704725
:1048A000F6E79CEA026F04D010EA5C0F08BF002014
:1048B000704710B5FFF73DFF40DFF63E81F0004046
:1048C000704739003B003C003E004000420044007D
:1048D000460048004A004B004C004E005300580070
:1048E0005B005F00630067006C00710076007B0076
:1048F000810087008D0094009B00A300AB000000A6
:1049000001000200040008001000200040008000A8
:104910000001000200040008001000200040008098
:10492000040000000800000010000000200000004B
:1049300040000000800000000001000000010203B0
:10494000040506000102030405060708090A0B0C0A
:104950000D0E0F0001000000020000000400000026
:1049600008000000100000002000000040000000CF
:1049700080000000000100000002000000040000B0
:1049800000080000001000000020000000400000AF
:1049900000800000060708090A17171717172828AC
:1049A0002828282800400000000002000400000021
:1049B00004000000040000000400000000020400E5
:1049C0000004080025002600000130313233343560
:1049D0003637383941424344454604000008000058
:1049E0000000000000020001000010000C4A000856
:1049F00000000020E00000006C010008EC4A000804
:104A0000E000002088190000880100080000000074
:104A1000000000000000000000A24A0400000000A6
:104A2000000000000102030406070809000000005E
:104A30000000000100000000000000000000000075
:104A40000000000000000000000000000000000066
:104A5000009F0000000000000000000000000000B7
:104A600000000000000000000000000000000050F6
:104A70005082000000000000000000000000000064
:104A80000000000000000000000000000000000026
:104A9000000000000000000000080140000C014080
:104AA000001001400014014000180140001C0140AA
:104AB000002001400038014000440040000801404F
:104AC000000801400008014000080140000000000B
:104AD00000000000000000000000000001020304CC
:0C4AE0000102030406070809020406088E
:0400000508000131BD
:00000001FF
