:020000040800F2
:10000000001E0020693600088501000887010008ED
:100010008B0100088F010008930100080000000018
:100020000000000000000000000000009701000830
:1000300099010008000000009B0100089D010008D4
:1000400083360008833600088336000883360008AC
:1000500083360008833600081B0200088336000838
:100060008336000883360008EF0200088336000854
:10007000833600088336000883360008833600087C
:10008000833600088336000883360008833600086C
:10009000833600088336000883360008833600085C
:1000A000833600088336000883360008833600084C
:1000B000833600088336000883360008833600083C
:1000C000833600088336000883360008833600082C
:1000D00083360008010300088336000883360008D1
:1000E000BF0100088336000883360008DFF80CD013
:1000F00003F018FD0048004775010008001E0020AD
:100100004FF40C7001F042FC12E01948007802280C
:100110000ED1002000F06EF900F07CFF01F040FAF3
:1001200001F08AFA002012490870012000F062F9FB
:10013000EBE710B503F018FA482000F0E1FB01F0FE
:1001400019FB01F01FFC01F0FDFA00F09FF900F02F
:1001500007F900F031F9002405E04FF47A7000F05F
:10016000E5FB601CC4B2032CF7DB00F048FF10BDB8
:100170000400002010B5FFF7DCFFFFF7C1FF0020EF
:1001800010BD0000704700BFFEE700BFFEE700BFE4
:10019000FEE700BFFEE770477047704710B55F4845
:1001A0000068401C5D49086008460068B0F5FA6FB9
:1001B00001DD002008605AA003F0C6FC10BD10B598
:1001C0004FF4806001F0EEFC80B14FF4807157482D
:1001D00001F017FE4FF40071544801F012FE54A0D4
:1001E00003F0B2FC4FF4806001F0EDFC4FF40060CE
:1001F00001F0D8FC80B14FF480714C4801F0FFFD54
:100200004FF40071494801F0FAFD4DA003F09CFC49
:100210004FF4006001F0D7FC10BD10B5012001F0D3
:10022000C1FC002862D04A48007810B1012855D19D
:100230001CE0002000F0DEF84FF48071454801F02A
:10024000DEFD4FF48071434801F0DBFD4FF4807117
:10025000404801F0D4FD4FF48041344801F0CFFD17
:1002600001203B49087000F0C5F83BE0002000F099
:10027000C1F84FF480412D4801F0C3FD4FF40071E7
:10028000344801F0BEFD4FF40051284801F0B9FD9B
:100290004FF40051254801F0B2FD4FF400512348BE
:1002A00001F0AFFD4FF40051204801F0A8FD4FF4DC
:1002B0000071284801F0A3FD012000F037FB4FF446
:1002C00000411A4801F09DFD0020234908800220CA
:1002D0001F490870012000F08DF803E000201C4940
:1002E000087000BF00BF012001F06DFC10BD10B50B
:1002F000102001F057FC10B1102001F064FC10BD7B
:1003000010B540F22551154803F087F8012803D1B4
:10031000124803F002F8C4B210BD000088000020AB
:10032000B6A8CAB1C6F7D6D0B6CF0A00000C0140B5
:10033000B0B4BCFC203120D6D0B6CF0A00000000FB
:10034000B0B4BCFC203220D6D0B6CF0A00000000EA
:100350000400002000100140060000200038014089
:1003600008B50121082001F052FF0121082001F009
:100370004EFF10208DF8030003208DF802004FF48B
:100380008070ADF8000069460A4801F08DFC4FF41A
:100390000070ADF800006946064801F085FC4FF496
:1003A0008071044801F02BFD4FF40071014801F009
:1003B00026FD08BD000C014008B50121102001F008
:1003C00026FF0121102001F022FF04208DF80300F8
:1003D0000002ADF800006946054801F065FC4FF4E5
:1003E0000060ADF800006946014801F05DFC08BD01
:1003F000001001401FB504460121052001F007FF50
:100400004FF4C06001F0D6FA06208DF80C000120F0
:100410008DF80D008DF80E008DF80F0003A801F087
:10042000CEFA0021084601F053FD00208DF80800A7
:100430000C208DF80900012C03D101208DF80A0051
:1004400002E000208DF80A000120019001A801F0CF
:100450003CFB1120ADF8000048208DF803006946F0
:10046000014801F021FC1FBD0008014070B50446A1
:100470000D46E1B2354802F04CFF00BF4021334841
:1004800002F0B5FF0028F9D0204670BD00B585B058
:100490000121052001F0BBFE0121880301F0B7FE18
:1004A0004FF40070ADF8100018208DF813000320F1
:1004B0008DF8120004A9264801F0F6FB4FF4806085
:1004C000ADF8100004208DF8130004A9204801F0B5
:1004D000EBFB4FF4E13000900020ADF80400ADF8E4
:1004E0000600ADF80800ADF80C000C20ADF80A00CD
:1004F0006946164802F011FE0121144802F099FEE7
:10050000012240F22551114802F09FFE40210F4880
:1005100002F07AFF05B000BD08B500214FF0006081
:1005200001F088FA4FF4C06001F044FA25208DF8FC
:10053000000000208DF8010001208DF802008DF8E8
:100540000300684601F03BFA08BD00000038014096
:100550000008014008B503208DF8020014208DF832
:1005600003000121082001F052FE4FF40060ADF8B5
:1005700000006946D14801F097FB0121082001F0F5
:1005800046FE4FF48060ADF800006946CB4801F0AC
:100590008BFB4FF48061C94801F031FC4FF40061DE
:1005A000C64801F02CFC08BD10B54FF40061C348EB
:1005B00001F025FC642000F0D4F94FF48061BF48BD
:1005C00001F01DFC642000F0CCF94FF40061BB4841
:1005D00001F017FC642000F0C4F94FF48061B748C3
:1005E00001F00FFC642000F0BCF910BD10B54FF411
:1005F0000061B24801F005FC642000F0B2F94FF44C
:100600008061AE4801F0FBFB642000F0AAF94FF4D2
:100610000061AA4801F0F3FB642000F0A2F910BDCC
:1006200070B504464FF48061A44801F0EAFB002550
:100630002BE014F0800F05D04FF400619F4801F0CB
:10064000DEFB04E04FF400619C4801F0DAFB600639
:10065000040E642000F085F94FF48061974801F0A2
:10066000CEFB642000F07DF94FF48061934801F0E7
:10067000C8FB642000F075F9072D04D14FF4006128
:100680008E4801F0BCFB681CC5B2082DD1DB70BDE3
:1006900070B500244FF48061884801F0B2FB00255A
:1006A0001BE06006040E4FF48061844801F0A7FB54
:1006B000642000F056F94FF40061804801F085FB9A
:1006C00008B1601CC4B24FF480617C4801F099FB12
:1006D000642000F046F9681CC5B2082DE1DB204615
:1006E00070BD10B500244FF48061744801F089FB9F
:1006F0004FF40061714801F082FB4FF480616F4854
:1007000001F07DFB642000F02CF94FF400616B4890
:1007100001F05BFB08B1012400E000244FF480618C
:10072000664801F06EFB642000F01BF9204610BD06
:1007300010B54FF48061614801F063FB0A2000F0BE
:1007400010F94FF400615D4801F05BFB0A2000F0F6
:1007500008F94FF48061594801F051FB0A2000F07C
:1007600000F94FF48061554801F04BFB0A2000F07E
:10077000F8F810BD10B54FF40061504801F03FFB90
:10078000642000F0EEF84FF480614C4801F037FB34
:10079000642000F0E6F84FF48061484801F031FB36
:1007A000642000F0DEF84FF40061444801F027FBBC
:1007B000642000F0D6F810BD70B504460D46FFF772
:1007C000F3FE642000F0CDF84220FFF729FFFFF789
:1007D00088FF012806D1FFF709FF39A003F0B4F91B
:1007E000002070BD052000F0BCF8E0B2FFF718FF54
:1007F000FFF777FF012806D1FFF7F8FE34A003F0DA
:10080000A3F90020EDE72846FFF70AFFFFF769FF8D
:10081000012806D1FFF7EAFE32A003F095F9002087
:10082000DFE7FFF7E3FE0120DBE770B50446FFF7E3
:10083000BBFE642000F095F84220FFF7F1FEFFF7C1
:1008400050FF012806D1FFF7D1FE1DA003F07CF96F
:10085000002070BD052000F084F82046FFF7E0FE80
:10086000FFF73FFF012806D1FFF7C0FE18A003F0F5
:100870006BF90020EDE7FFF7B9FE4FF4FA7000F0D6
:1008800070F8FFF791FE4320FFF7CAFEFFF729FF3C
:10089000012806D1FFF7AAFE17A003F055F90020A2
:1008A000D7E7642000F05DF8FFF7F2FE0546FFF79A
:1008B00061FFFFF79BFE2846CBE70000000C0140DC
:1008C000C6F7BCFEC3BBD3D0D3A6B4F00A00000069
:1008D000D0B4BCC4B4E6C6F7B5D8D6B7CAA7B0DCA6
:1008E0000A000000D0B4BCC4B4E6C6F7C4DAC8DD60
:1008F000CAA7B0DC0A000000B6C1CAA7B0DC0A0073
:100900004FF0E021096921F004014FF0E02211616C
:10091000C21700EB5272D2101F4B1A701946097899
:100920004FF47A7251431D4A1180704701461B4AA9
:1009300012884A434FF0E0235A6100229A61012253
:100940001A6100BF4FF0E022106910F0010F02D0D1
:1009500010F4803FF6D000224FF0E0231A619A6134
:10096000704701460C4A12784A434FF0E0235A611F
:1009700000229A6101221A6100BF4FF0E022106943
:1009800010F0010F02D010F4803FF6D000224FF09B
:10099000E0231A619A6170470000002002000020E5
:1009A00008B50121102001F032FC0121042001F0E2
:1009B0002EFC0121082001F02AFC48208DF80300BC
:1009C000FF20ADF800006946FF4801F06DF90320F3
:1009D0008DF8020010208DF803000002ADF8000031
:1009E0006946FA4801F060F94FF48050ADF8000014
:1009F0006946F74801F058F94FF40050ADF800008F
:100A00006946F34801F050F94FF40040ADF800009A
:100A10006946EF4801F048F94FF40070ADF8000066
:100A20006946E94801F040F94FF48040ADF8000014
:100A30006946E74801F038F94FF48070ADF80000DE
:100A40006946E14801F030F94FF48050ADF80000FC
:100A50006946DD4801F028F908BD10B54FF4805112
:100A6000DA4801F0CEF94FF48051D94801F0C9F9C4
:100A70001420FFF75BFF4FF48051D54801F0BFF918
:100A800080211220FFF798FE04213A20FFF794FE00
:100A9000D0214020FFF790FE14211220FFF78CFE9A
:100AA00080213220FFF788FE16211720FFF784FEF1
:100AB00004211820FFF780FE02211920FFF77CFE99
:100AC0007B211A20FFF778FE06210320FFF774FE32
:100AD00000210C20FFF770FE00213E20FFF76CFE86
:100AE0003A217020FFF768FE35217120FFF764FE80
:100AF00011217220FFF760FE00217320FFF75CFEDA
:100B00000221A220FFF758FE81211120FFF754FE99
:100B100020217A20FFF750FE1C217B20FFF74CFE9E
:100B200028217C20FFF748FE3C217D20FFF744FE72
:100B300055217E20FFF740FE68217F20FFF73CFE15
:100B400076218020FFF738FE80218120FFF734FED8
:100B500088218220FFF730FE8F218320FFF72CFEB3
:100B600096218420FFF728FEA3218520FFF724FE8D
:100B7000AF218620FFF720FEC4218720FFF71CFE4F
:100B8000D7218820FFF718FEE8218920FFF714FEFF
:100B9000E0211320FFF710FE00210846FFF70CFEAE
:100BA00000211020FFF708FE00210D20FFF704FEB2
:100BB00028211420FFF700FE0521A520FFF7FCFDEA
:100BC0000721AB20FFF7F8FD75212420FFF7F4FD86
:100BD00063212520FFF7F0FDA5212620FFF7ECFD7E
:100BE00078219F20FFF7E8FD6821A020FFF7E4FDB2
:100BF0000321A120FFF7E0FDDF21A620FFF7DCFDA8
:100C0000DF21A720FFF7D8FDF021A820FFF7D4FDB2
:100C10009021A920FFF7D0FD9421AA20FFF7CCFD59
:100C2000E5211320FFF7C8FD61210E20FFF7C4FD69
:100C30004B210F20FFF7C0FD02211620FFF7BCFD5E
:100C400037211E20FFF7B8FD02212120FFF7B4FD58
:100C500091212220FFF7B0FD07212920FFF7ACFDED
:100C60000B213320FFF7A8FD0B213520FFF7A4FD52
:100C70001D213720FFF7A0FD71213820FFF79CFDD3
:100C80002A213920FFF798FD78213C20FFF794FDB9
:100C900040214D20FFF790FD20214E20FFF78CFDD5
:100CA00000216920FFF788FD60216B20FFF784FD9C
:100CB00019217420FFF780FD4F218D20FFF77CFD67
:100CC00000218E20FFF778FD00218F20FFF774FDB3
:100CD00000219020FFF770FD00219120FFF76CFDAF
:100CE00000219220FFF768FD00219620FFF764FDA8
:100CF00080219A20FFF760FD8421B020FFF75CFD82
:100D00000C21B120FFF758FD0E21B220FFF754FD52
:100D10008221B320FFF750FD0A21B820FFF74CFDD8
:100D200014214320FFF748FDF0214420FFF744FD44
:100D300034214520FFF740FD58214620FFF73CFDB8
:100D400028214720FFF738FD3A214820FFF734FDDE
:100D500088215920FFF730FD88215A20FFF72CFD0C
:100D600044215B20FFF728FD67215C20FFF724FD6D
:100D700049215D20FFF720FD0E215E20FFF71CFDBD
:100D800004216420FFF718FD20216520FFF714FDE2
:100D900005216620FFF710FD04219420FFF70CFDCC
:100DA00008219520FFF708FD0A216C20FFF704FDBC
:100DB00055216D20FFF700FD11216E20FFF7FCFC8F
:100DC0009F216F2006E00000001001400008014054
:100DD000000C0140FFF7F0FC40216A20FFF7ECFC1B
:100DE00040210120FFF7E8FC40210220FFF7E4FC4E
:100DF000E7211320FFF7E0FC00211520FFF7DCFCC2
:100E000080214F20FFF7D8FC80215020FFF7D4FC31
:100E100000215120FFF7D0FC22215220FFF7CCFC0B
:100E20005E215320FFF7C8FC80215420FFF7C4FC4B
:100E30009E215820FFF7C0FC08214120FFF7BCFC91
:100E400000213F20FFF7B8FC05217520FFF7B4FC17
:100E5000E1217620FFF7B0FC00214C20FFF7ACFC2D
:100E600001217720FFF7A8FCC2213D20FFF7A4FC59
:100E700009214B20FFF7A0FC6021C920FFF79CFC53
:100E800038214120FFF798FC40215620FFF794FCC1
:100E900011213420FFF790FC02213B20FFF78CFC4E
:100EA0008921A420FFF788FC00219620FFF784FC0D
:100EB00030219720FFF780FC20219820FFF77CFC51
:100EC00030219920FFF778FC84219A20FFF774FCE9
:100ED00029219B20FFF770FC03219C20FFF76CFC6D
:100EE0004C219D20FFF768FC3F219E20FFF764FC0A
:100EF00004217820FFF760FC01217920FFF75CFCDA
:100F0000F021C820FFF758FC0F217920FFF754FC8F
:100F10000021C820FFF750FC10217920FFF74CFC7E
:100F20007E21C820FFF748FC0A217920FFF744FC06
:100F30008021C820FFF740FC0B217920FFF73CFC03
:100F40000121C820FFF738FC0C217920FFF734FC81
:100F50000F21C820FFF730FC0D217920FFF72CFC72
:100F60002021C820FFF728FC09217920FFF724FC65
:100F70008021C820FFF720FC02217920FFF71CFC0C
:100F8000C021C820FFF718FC03217920FFF714FCCB
:100F90004021C820FFF710FC05217920FFF70CFC49
:100FA0003021C820FFF708FC26217920FFF704FC38
:100FB00000210920FFF700FC10211220FFF7FCFBA5
:100FC00014213A20FFF7F8FB80213D20FFF7F4FBC6
:100FD00011216720FFF7F0FBFF216820FFF7ECFBF2
:100FE000C0214020FFF7E8FB4FF48071604800F01B
:100FF00008FF4FF400715E4800F003FF10BD10B50C
:10100000FFF7A8FAFFF7CCFCFFF727FD0120FFF759
:10101000F1F910BD2DE9F041002056490880002665
:1010200074E0062096FBF0F100FB116001284AD124
:1010300000243FE0A02C3BDA4FF400514C4800F074
:10104000E0FE4FF400514A4800F0D9FE4A4880685B
:10105000C5B24FF40051464800F0D3FE4FF40051A2
:10106000434800F0CCFE44488068C7B24FF40051BA
:101070003F4800F0C6FE4FF400513D4800F0BFFE6F
:101080003D488068C7B24FF40051394800F0B9FEBE
:101090004FF40051364800F0B2FE37488068C7B2BE
:1010A0003448008800EB8000344901EB40100555BE
:1010B000601C84B2B4F5A07FBCDB2E480088401CC5
:1010C0002C49088020E000241BE04FF40051284800
:1010D00000F097FE4FF40051254800F090FE26489E
:1010E0008068C7B24FF40051214800F08AFE4FF4E7
:1010F00000511F4800F083FE1F488068C7B2601C83
:1011000084B2B4F5A07FE0DB701C86B2F02E88DBE1
:101110004FF40041164800F072FEBDE8F08170B552
:10112000FF21174802F0F5F800BF4021144802F0F3
:101130005EF90028F9D0002417E0002511E004EB47
:1011400084000E4A02EB4010415D0D4802F0E1F8C8
:1011500000BF40210A4802F04AF90028F9D0681C73
:10116000C5B2A02DEBDB601CC4B2282CE5DB70BD42
:10117000000C01400600002000100140F00000209B
:101180000038014010B50020002100BF1CE0002104
:1011900017E000EB8002FB4B03EB4212525C642A27
:1011A00007DDFE2200EB8003F64C04EB43135A5498
:1011B00006E0002200EB8003F24C04EB43135A5488
:1011C000491CA029E5DB401C2828E0DB002042E088
:1011D00001213DE000EB8002EA4B03EB42134A1E83
:1011E0009A5CFE2A15D100EB8002E64B03EB42121B
:1011F000525C72B900EB800203EB42134A1C9A5C0A
:10120000FE2A06D100EB8003DE4C04EB43135A5454
:101210001DE000EB8002DB4B03EB42134A1E9A5C9D
:10122000AAB900EB8002D74B03EB4212525CFE2AB4
:101230000DD100EB800203EB42134A1C9A5C32B9D9
:10124000002200EB8003CF4C04EB43135A54491C9B
:101250009F29BFDB401C2828BADB10BD2DE9F04FC9
:1012600093B081468A464FF0000800210E460F4693
:101270000C460D46109111910E910F910AF0FF0846
:1012800009E0C14810F80800C04901F80800A8F1B9
:10129000010000F0FF08C845F3DA09F0FF0836E066
:1012A00008FB08F002F077FB32463B46CDE9060129
:1012B00002F0ECF906460F46404602F07DFB22465E
:1012C0002B46CDE9060102F0E1F904460D46AF498F
:1012D00011F8081001FB08F002F05DFBCDE90601F2
:1012E000DDE9102302F0D2F9CDE91001A74911F888
:1012F000080002F061FBCDE90601DDE90E2302F0F2
:10130000C5F9CDE90E0108F1010000F0FF08D04554
:10131000C6DDAAEB090000F1010B22462B46204650
:10132000294602F058FACDE90601584602F033FB8F
:1013300032463B46CDE9020102F04DFACDE9040107
:10134000DDE9062302F041FACDE90C0120462946E9
:10135000DDE90E2302F03FFACDE90401584602F020
:101360001AFBCDE90001DDE9102302F034FACDE9E2
:101370000201DDE9042302F028FACDE90601DDE9E6
:101380000C2302F099FACDE90A0122462B46DDE949
:10139000100102F020FACDE9040130463946DDE9BA
:1013A0000E2302F018FACDE90201DDE9042302F070
:1013B0000CFACDE90601DDE90C2302F07DFACDE956
:1013C000080109F0FF0819E0404602F0F5FACDE9FE
:1013D0000201DDE90A2302F0FEF9CDE90401DDE9AD
:1013E000082302F053F9CDE9060102F0F2FA66494A
:1013F00001F8080008F1010000F0FF08D045E3DD26
:1014000000BF00BF00BF00BF13B0BDE8F08F0146B2
:101410000846002801DA424250B2704770B52723CF
:1014200048E05948C15C581E574A105C814207D0B9
:10143000591E515CD25C891A48B2FFF7E8FFC4B26A
:101440005148C15C0246581C105C814207D0591CAF
:10145000515CD25C891A48B2FFF7D9FFC5B2052C9E
:1014600001DD052D17DC581E4749085CC95C884220
:1014700005DA4549581C085CC95C88420BDB581EDC
:101480004149085CC95C884212DD3F49581C085C30
:10149000C95C88420CDD591E3B4A525C3A4E591CCD
:1014A000715C501800EBD071C1F347013246D15442
:1014B000581EC3B2032BB4DC70BD30B5344C247855
:1014C000344D2D78631903EBD374C4F347042E4DC8
:1014D00085F82740262048E02B4C431CE15C17E0B0
:1014E00000EB8003274C04EB43135B5C5BB92A4B96
:1014F00019544B1ED9B200EB800304EB43135B5C21
:1015000023B9012102E00123234C23544B1ED9B2FD
:101510000229E5DC1C4C431CE25C17E000EB800375
:10152000184C04EB43139B5C5BB91C4B1A54531CC3
:10153000DAB200EB800304EB43139B5C23B99F22D8
:1015400002E09F23154C2354531CDAB29D2AE5DB9D
:10155000114C245C114D2D5C631903EBD374C4F35F
:101560004704094D2C54431ED8B2032800DDB3E7CD
:10157000054B1B79064C2370034B5B79054C23709C
:1015800030BD0000F0000020080000208C0000208A
:101590003000002031000020320000205A000020DE
:1015A00070B52325EC1F544854490860FFF7EAFD45
:1015B000FFF783FFFFF732FF05E029462046FFF7DC
:1015C0004DFEA41FAD1F042CF7DA70BDF0B500244A
:1015D0000026002500270E2300BF05E04848C05C18
:1015E000204444B2581E43B2042BF7DA0A2094FB7D
:1015F000F0F046B20E2300250AE04149C95C891B80
:1016000048B2FFF704FF0746E81945B2581E43B237
:101610000E2BF2DA2846F0BD26200AE0002100EB6E
:101620008002354B03EB4212354B1B5CD154411EFB
:10163000C8B20328F2DC704710B500243048C07AE5
:101640002F49097B08442E49497B08442C49897B52
:1016500008442B49C97B0844052190FBF1F0503820
:1016600040B22849087006202749087100204871B7
:101670000120887108460079224991F900104843F9
:1016800004B2C4F5FA70214908804FF480712048F3
:1016900000F0B7FB4FF400711D4800F0B2FB1B488F
:1016A000008840F29E2188420DDD4FF416701749E4
:1016B00008804FF48071164800F0A3FB4FF40071CE
:1016C000134800F09CFB11480088B0F5A57F0DDAA7
:1016D0004FF4C8700D4908804FF480710C4800F039
:1016E0008EFB4FF400710A4800F08BFB074800881E
:1016F00000F02CF810BD0000F0000020B400002025
:1017000008000020B8000020F0190020840000200C
:10171000000C014008B50121084600F078FD0121C8
:10172000042000F074FD18208DF8030003208DF8CC
:1017300002004FF48070ADF8000069460B4800F0DD
:10174000B3FA08BD10B5FFF7E5FF10BD10B50446AC
:101750000021074801F002FB2146054801F054FC36
:101760000821034801F0FAFA10BD0000000801400A
:10177000002C014000B587B00121C80200F047FDF0
:1017800041F61F40ADF81400C720ADF8100000204E
:10179000ADF81600ADF8120004A9694800F076FE15
:1017A0006020ADF800000120ADF802004FF4FC709D
:1017B000ADF806000020ADF808006946604800F06A
:1017C000A2FE08215E4801F0C9FA69465C4800F0B3
:1017D0006CFF08215A4801F0DEFA0121584801F057
:1017E0008DFA0121564801F080F90121544801F099
:1017F00088F907B000BD10B588B004460121022069
:1018000000F012FD40F28F10ADF8180040F60F60A6
:10181000ADF814000020ADF81A00ADF8160005A9C7
:10182000484800F033FE6020ADF804000120ADF818
:1018300006001C20ADF80A000020ADF80C00012CB9
:1018400006D0022C0DD0032C14D0042C24D11AE085
:1018500001A93C4800F057FE08213A4801F07EFA01
:101860001BE001A9374800F090FE0821354801F03F
:101870007EFA00BF01A9334800F0D0FE08213148AC
:1018800001F080FA09E001A92E4800F00EFF0821BE
:101890002C4801F080FA00BF00BF00BF0121294899
:1018A00001F02CFA0121274801F01FF908B010BD02
:1018B00000B587B00121082000F0A9FCC020ADF8D8
:1018C000180004208DF81B0006A91F4800F0ECF951
:1018D0000121042000F0A8FC1C4800F003FD03A92E
:1018E0001A4800F0D3FD4FF6FF70ADF8100000204D
:1018F000ADF80C00ADF81200ADF80E0003A91348C6
:1019000000F0C4FD00231A460321104801F0AFF98E
:10191000684601F0D8F80620ADF8080069460B4883
:1019200001F025F80121094801F09CFB002008493D
:1019300008804FF00101054801F0D7F807B000BD5D
:10194000002C014000040040000C01400008004051
:101950002408004008B50121084600F058FC012188
:10196000042000F054FC18208DF8030003208DF8AB
:1019700002004FF40060ADF8000069460B4800F02B
:1019800093F908BD10B5FFF7E5FF10BD10B504468B
:101990000021074801F0FFF92146054801F03AFB14
:1019A0000821034801F0F7F910BD000000080140CC
:1019B000002C014036490143364A1160704770B52A
:1019C000002100230F22C4784CB3324C246804F465
:1019D000E064C4F5E0644FEA1421C1F1040322FA83
:1019E00001F2447804FA03F1847804EA020444EA38
:1019F00001014FEA0111284C0678A155047804F042
:101A00001F054FF0010404FA05F405784FEA651547
:101A10004FF0E02606EB8505C5F8004109E00478A3
:101A200004F01F050124AC401C4D0678761145F8E2
:101A3000264070BD1A4A0A4002431A4B1A6070478A
:101A400041B1194A126842EA00024FF0E023C3F89C
:101A5000102D07E0144A126822EA00024FF0E0233A
:101A6000C3F8102D7047042808D14FF0E021096910
:101A700041F004014FF0E022116107E04FF0E02156
:101A8000096921F004014FF0E02211617047000064
:101A90000000FA050CED00E000E400E080E100E069
:101AA00080FFFF1F08ED00E010ED00E00020474937
:101AB00008604749C1F804044649086001F104017F
:101AC0000860454845490860704700213F498279D0
:101AD000002A43D03E4AD2F8002403689A433C4B84
:101AE000C3F800241A46D2F8042403689A4301F18B
:101AF00004031A60027911440A68036842EA030287
:101B00000A60334AD2F80824036822EA0302304B01
:101B1000C3F808241A46D2F80C24036822EA030208
:101B20002F4B1A604279102A10D1294AD2F8082482
:101B300003681A43264BC3F808241A46D2F80C242B
:101B400003681A43224BC3F80C240DE01F49427965
:101B500011440A6803681A430A6005E002791144D7
:101B60000A6803689A430A607047002101600171A6
:101B70000C2141710021817170471A49096841EABD
:101B80000001134AC2F81014704701460020134A9E
:101B900012680A4201D0012000E0002070470F497E
:101BA00008607047014600200022084B1B6803EACA
:101BB0000102074BD3F814340B4202D00AB10120C2
:101BC00000E00020704705490860704700040140AC
:101BD0000000014008040140FFFF0F001404014011
:101BE0000C0401401004014010B50446CA48844268
:101BF00008D10121042000F024FB0021042000F082
:101C000020FB46E0C548844208D10121082000F0AD
:101C100018FB0021082000F014FB3AE0C048844281
:101C200008D10121102000F00CFB0021102000F051
:101C300008FB2EE0BB48844208D10121202000F09F
:101C400000FB0021202000F0FCFA22E0B64884428C
:101C500008D10121402000F0F4FA0021402000F0DA
:101C6000F0FA16E0B148844208D10121802000F04A
:101C7000E8FA0021802000F0E4FA0AE0AC4884424F
:101C800007D10121801500F0DCFA0021A01500F039
:101C9000D8FA10BD10B50121084600F0D2FA002193
:101CA000012000F0CEFA10BD2DE9F04102460025DA
:101CB0000026002000230024002791F803C00CF028
:101CC0000F0591F803C01CF0100F03D091F802C06B
:101CD0004CEA0505B1F800C01CF0FF0F31D01468C4
:101CE00000202BE04FF0010C0CFA00F3B1F800C01B
:101CF0000CEA03069E4220D183004FF00F0C0CFA31
:101D000003F7BC4305FA03FC4CEA040491F803C052
:101D1000BCF1280F06D14FF0010C0CFA00FCC2F800
:101D200014C00AE091F803C0BCF1480F05D14FF090
:101D3000010C0CFA00FCC2F810C0401C0828D1D3DA
:101D40001460B1F800C0BCF1FF0F34DD546800200E
:101D50002EE000F1080C4FF0010808FA0CF3B1F87E
:101D600000C00CEA03069E4221D183004FF00F0C05
:101D70000CFA03F7BC4305FA03FC4CEA040491F89F
:101D800003C0BCF1280F05D100F1080C08FA0CF8CB
:101D9000C2F8148091F803C0BCF1480F07D100F1DC
:101DA000080C4FF0010808FA0CF8C2F81080401C2B
:101DB0000828CED35460BDE8F0814FF6FF71018052
:101DC000022181700421C17070470246002093688F
:101DD0000B4201D0012000E00020704701468868D6
:101DE00080B2704702460020D3680B4201D0012028
:101DF00000E0002070470146C86880B2704701616A
:101E00007047416170470AB1016100E0416170476C
:101E1000C16070474FF480320A4382618161826100
:101E200082698269704702460020424B18684FF66B
:101E30008073184040EA021008433E4B1860704718
:101E40003D49C8617047F0B50A46002300240021CF
:101E5000002500F00046B6F1004F02D1354EF16981
:101E600001E0344E7168C0F3034583B200F44016BC
:101E7000B6F5401F08D121F070612E4E766826F02D
:101E800070662C4F7E6012E000F48016B6F5801F5D
:101E900006D1032606FA05F4A14341F0706106E07D
:101EA000460D360103FA06F6B14341F0706122B1E6
:101EB000460D360103FA06F6314300F00046B6F14E
:101EC000004F02D11B4EF16101E01A4E7160F0BD6E
:101ED00030B500228B071C0F0F2303FA04F2154BB9
:101EE00008338C1053F824309343124C08348D106F
:101EF00044F8253023468C1053F824308C07240FE7
:101F000000FA04F423430B4C08348D1044F82530B8
:101F100030BD0A490860704700080140000C0140CC
:101F2000001001400014014000180140001C014055
:101F3000002001400000014000002042DC0020425F
:101F4000DB48006840F00100D94908600846406855
:101F5000D8490840D649486008460068D649084034
:101F6000D34908600846006820F4802008600846CD
:101F7000406820F4FE0048604FF41F0088607047FE
:101F8000CB49096821F48031C94A116011460968BA
:101F900021F480211160B0F5803F03D0B0F5802F8F
:101FA0000ED106E0C249096841F48031C04A11608F
:101FB00007E0BF49096841F4A021BD4A116000E073
:101FC00000BF00BF704710B501460022002300206B
:101FD0004A11012A02D1B64C236806E0022A02D136
:101FE000B34C236A01E0B24C636A01F01F02012482
:101FF00094401C4201D0012000E0002010BD70B5CB
:1020000000240025002600BF3120FFF7DCFF064634
:10201000641CB4F5A06F01D0002EF5D03120FFF77D
:10202000D2FF08B1012500E00025284670BD014619
:1020300000209F4A106820F0F80040EAC1001060BC
:1020400070479E490860704702460020984B5868C8
:1020500020F47C1042EA01031843954B5860704706
:1020600096490866704701460020914A506820F062
:1020700003000843506070478D48406800F00C0032
:102080007047014600208A4A506820F0F00008435B
:102090005060704701460020854A506820F4E06097
:1020A00008435060704701460020814A506820F480
:1020B000605040EAC1005060704729B17C4A527AB2
:1020C00002437B4B5A7206E0794A527AC343DBB231
:1020D0001A40774B5A727047794908607047014639
:1020E0000020734A506820F4404008435060704715
:1020F0000021744A11706E4A82F82010012802D023
:10210000042808D103E001216E4A117004E0052182
:102110006C4A117000E000BF00BF70476A49086058
:1021200070476349096A0143614A11627047674910
:102130000860704730B500210022002400235C4D68
:102140006D6805F00C0121B1042905D0082923D1BF
:1021500005E05F4D056022E05D4D05601FE0544DD8
:102160006D6805F47012524D6D6805F480340225D7
:1021700005EB92421CB9574D554305600BE04C4DA1
:102180006D6815F4003F03D0524D5543056002E0E1
:102190004F4D5543056002E04D4D056000BF00BF47
:1021A000434D6D6805F0F00109094B4D6B5C056806
:1021B000DD4045603E4D6D6805F4E061090A464D1D
:1021C0006B5C4568DD408560394D6D6805F4605194
:1021D000C90A414D6B5C4568DD40C560344D6D6892
:1021E00005F44041890B3D4D6B5CC568B5FBF3F5CB
:1021F000056130BD29B12E4A526902432C4B5A6108
:1022000004E02B4A52698243294B5A61704729B135
:10221000274A92690243264B9A6104E0244A926954
:102220008243234B9A61704729B1214AD269024304
:102230001F4BDA6104E01E4AD26982431C4BDA610B
:10224000704729B11A4AD2680243194BDA6004E098
:10225000174AD2688243164BDA60704729B1144A94
:1022600012690243124B1A6104E0114A1269824357
:102270000F4B1A6170471A49086070470F49C864CC
:1022800070470B49C87170470948406A40F0807038
:1022900007494862704701460020054A92680A4291
:1022A00001D0012000E0002070470149887270478A
:1022B000001002400000FFF8FFFFF6FE000042425F
:1022C000D800424220100240800442423C04424274
:1022D00000127A0000093D00C4000020D400002054
:1022E0004004424210B50446FF48844208D101210F
:1022F000C014FFF7A6FF0021E014FFF7A2FFC4E01F
:10230000B4F1804F08D101210846FFF7A7FF002153
:102310000120FFF7A3FFB8E0F448844208D101216F
:102320000220FFF79BFF00210220FFF797FFACE0A0
:10233000EF48844208D101210420FFF78FFF0021DC
:102340000420FFF78BFFA0E0EA48844208D1012176
:102350000820FFF783FF00210820FFF77FFF94E0AC
:10236000E548844208D101211020FFF777FF0021C2
:102370001020FFF773FF88E0E048844208D1012174
:102380002020FFF76BFF00212020FFF767FF7CE094
:10239000DB48844208D101214014FFF752FF00219D
:1023A0006014FFF74EFF70E0D648844209D1012146
:1023B000C804FFF746FF00214FF40020FFF741FF5C
:1023C00063E0D148844209D101210805FFF739FFB4
:1023D00000214FF48010FFF734FF56E0CB488442D1
:1023E00009D101214805FFF72CFF00214FF400100F
:1023F000FFF727FF49E0C648844208D10121402069
:10240000FFF72CFF00214020FFF728FF3DE0C148E7
:10241000844208D101218020FFF720FF0021802085
:10242000FFF71CFF31E0BC48844208D10121801530
:10243000FFF714FF0021A015FFF710FF25E0B748B4
:10244000844209D101210804FFF7FBFE00214FF46B
:102450008030FFF7F6FE18E0B148844209D101212F
:102460004804FFF7EEFE00214FF40030FFF7E9FECD
:102470000BE0AC48844208D101218804FFF7E1FE5B
:1024800000214FF48020FFF7DCFE10BD00220288FF
:10249000954B98420ED09A4B98420BD0B0F1804F9A
:1024A00008D0924B984205D0914B984202D0914B64
:1024B000984204D14FF68F731A404B881A438E4BC3
:1024C000984207D08D4B984204D04FF6FF431A40F4
:1024D000CB881A4302808B8883850B880385824BC7
:1024E00098420BD0864B984208D08C4B984205D02E
:1024F0008B4B984202D08B4B984201D10B7A0386CA
:1025000001238382704770B5002400220023058CCC
:102510004FF6FE7635400584028C8388048B4FF697
:102520008F752C40B51E2C400D882C43751E2A40FB
:102530000D892A434D882A436B4DA8420BD0704D1C
:10254000A84208D0754DA84205D0754DA84202D0CA
:10255000744DA84213D14FF6F7752A404D892A438E
:102560004FF6FB752A408D882A434FF6FF652B40B6
:102570004FF6FF552B408D892B43CD892B4383800C
:102580000483CD888586028470BD70B50024002246
:102590000023058C4FF6EF7635400584028C838846
:1025A000048B48F6FF752C404FF6FF452C400D88F4
:1025B0002D0644EA15444FF6DF752A400D892D0596
:1025C00042EA15424D882D0542EA1542464DA84281
:1025D00002D04B4DA8421BD14FF67F752A404D8942
:1025E0002D0542EA15424FF6BF752A408D882D050C
:1025F00042EA15424FF6FF352B404FF2FF752B4054
:102600008D89AD0443EA1543CD89AD0443EA1543F2
:1026100083800483CD880587028470BD70B5002453
:1026200000220023058C4FF6FF6635400584028C9E
:102630008388848B4FF68F752C404FF6FC752C40A9
:102640000D882C434FF6FF552A400D892D0642EA8E
:1026500015424D882D0642EA1542234DA84202D06C
:10266000274DA8421BD14FF2FF752A404D892D06F8
:1026700042EA15424FF6FF352A408D882D0642EA80
:1026800015424EF6FF752B404DF6FF752B408D8998
:102690002D0543EA1543CD892D0543EA1543838073
:1026A0008483CD888587028470BD70B500220023A5
:1026B0000024058C4EF6FF7635400584038C848813
:1026C000828B48F6FF752A404FF6FF452A400D8859
:1026D0002D0642EA15424DF6FF752B400D892D0758
:1026E00043EA15434D881FE0002C014000040040E0
:1026F00000080040000C00400010004000140040A2
:1027000000340140004C01400050014000540140A1
:1027100000180040001C0040002000400040014024
:1027200000440140004801402D0743EA1543F94D9C
:10273000A84202D0F84DA84206D14BF6FF752C40B6
:102740008D89AD0544EA154484808283CD88A0F844
:102750004050038470BD828B4FF2FF331A40828356
:10276000828B0B0642EA134282837047F0B50C4617
:102770001546002200210026078C4EF6FF7C07EA52
:102780000C070784828B018C27073E0C40F6FF471D
:102790003A402F0642EA17421F0742EA1742DD4F2E
:1027A000B8420ED0DC4FB8420BD0B0F1804F08D009
:1027B000DA4FB84205D0DA4FB84202D0D94FB8420A
:1027C00006D14DF6FF77394046F48057394305E08E
:1027D00047F6FF57394044F48057394382830184D8
:1027E000F0BD828B4FF6F3731A408283828B0A43CB
:1027F00082837047F0B50C46154600220021002662
:10280000078C4FF6FF6C07EA0C070784828B018C5C
:1028100027063E0C4FF60C773A401F0545EA17474E
:102820003A43BC4FB8420ED0BB4FB8420BD0B0F1C8
:10283000804F08D0B94FB84205D0B94FB84202D046
:10284000B84FB84206D14FF6FF57394046F480776B
:10285000394305E04FF2FF57394044F4807739435C
:1028600082830184F0BD028B4FF2FF331A40028352
:10287000028B0B0642EA134202837047F0B50C4606
:102880001546002200210026078C4FF6EF7C07EA50
:102890000C070784028B018C27053E0C40F6FF478E
:1028A0003A401F0742EA17422F0642EA1742994F61
:1028B000B8420ED0984FB8420BD0B0F1804F08D03C
:1028C000964FB84205D0964FB84202D0954FB842C5
:1028D00006D14FF6DF77394046F01007394305E05F
:1028E0004FF65F77394044F0100739430283018483
:1028F000F0BD028B4FF6F3731A400283028B0A433A
:1029000002837047F0B50C46154600220021068C64
:102910004FF6FE773E400684028B018C4FF60C7614
:1029200032401E0545EA164632437A4EB0420ED07A
:10293000794EB0420BD0B0F1804F08D0774EB04204
:1029400005D0774EB04202D0764EB04206D14FF657
:10295000FD76314044F00106314305E04FF6F5764F
:10296000314044F00106314302830184F0BD70B56B
:1029700005460C46674885420ED0674885420BD015
:10298000B5F1804F08D06548854205D0644885423E
:1029900002D06448854200D100E000BF208850B9D1
:1029A0002389A28861882846FFF7ACFFE188284682
:1029B000FFF79FFF25E0208804280AD12389A288F9
:1029C00061882846FFF75AFFE1882846FFF74BFF4A
:1029D00017E0208808280AD12389A2886188284620
:1029E000FFF708FFE1882846FFF7FBFE09E023898F
:1029F000A28861882846FFF7B9FEE1882846FFF7DC
:102A0000AAFE70BD2DE9F04105460C4600260127BF
:102A1000608808B9022600E00026A088012801D1BC
:102A2000022700E001272088A0B92389A2886188B5
:102A30002846FFF767FFE1882846FFF75AFF2389FA
:102A40003A4631462846FFF719FFE1882846FFF746
:102A50000AFF13E02389A28861882846FFF70EFF4A
:102A6000E1882846FFF7FFFE23893A46314628468B
:102A7000FFF748FFE1882846FFF73BFFBDE8F081FC
:102A80000A884B881A438B881A43CB881A430B89D0
:102A90001A434B891A438B891A43A0F84420704784
:102AA0004FF6FF71818000210180C1804180017259
:102AB00070470021018041808180C1800181418176
:102AC0008181C18170470021018041800121818085
:102AD0000021C180018170470021018041808180F7
:102AE000C180018141818181704721B1028842F01A
:102AF0000102028004E002884FF6FE731A40028051
:102B0000704789B1B0F8442042F40042A0F8442054
:102B100010E00000002C014000340140000400409F
:102B200000080040000C0040B0F84420C2F30E0240
:102B3000A0F84420704710B51AB183890B438381F4
:102B400004E08389CC43A4B22340838110BD8182F9
:102B5000704741EA0203A0F84830704710B51AB137
:102B600083890B43838104E08389CC43A4B223404F
:102B7000838110BD01894FF6F872114001817047C1
:102B80000A46002101894FF68F73194011430181D4
:102B9000704730B504460D4629462046FFF7F0FF42
:102BA000208940F00700208130BD2DE9F041044626
:102BB0000D4616461F46602D06D13B460122314682
:102BC0002046FFF75BFE05E03B46012231462046EA
:102BD000FFF798FE29462046FFF7D2FF208940F0F4
:102BE00007002081BDE8F08130B50C460021018945
:102BF000C9B21D0642EA154525432943018130BD6E
:102C00002DE9F04105460E461746984600244346F6
:102C10003A4631462846FFF7E7FF2C894FF6F87110
:102C20000C4044F007044FF68F710C4044F07004E0
:102C30002C81BDE8F081F0B504460D4616461F46CE
:102C40003B46324629462046FFF7CEFF208940F416
:102C500080402081F0BD0185828270470A460021B4
:102C600001884FF68F731940114301807047F0B50A
:102C70000C4615461E460021002200230189028BC6
:102C8000038C4FF6F877394021434FF6FC473A4022
:102C900040F201173A434FF6DD773B40370545EAEE
:102CA00017473B43018102830384F0BD0A4600219C
:102CB000018B4FF68F7319401143018370470A4609
:102CC0000021018B48F6FF731940130641EA1341B6
:102CD000018370470A460021818B4FF68F7319409C
:102CE0001143818370470A460021818B48F6FF73A8
:102CF0001940130641EA13418183704721B10288CC
:102D000042F08002028004E002884FF67F731A408E
:102D10000280704721B1828842F00402828004E080
:102D200082884FF6FB731A408280704721B18288F7
:102D300042F00802828004E082884FF6F7731A405E
:102D40008280704721B1828842F00102828004E0D3
:102D500082884FF6FE731A40828070470A4600212F
:102D6000018B4FF6F77319401143018370470A46F0
:102D70000021018B4FF2FF731940130641EA134102
:102D8000018370470A460021818B4FF6F773194083
:102D90001143818370470A460021818B4FF2FF73F4
:102DA0001940130641EA1341818370470A46002106
:102DB000018B4FF6FB7319401143018370470A469C
:102DC0000021018B4FF6FF331940130641EA1341EE
:102DD000018370470A460021818B4FF6FB7319402F
:102DE0001143818370470A460021818B4FF6FF33E0
:102DF0001940130641EA1341818370470A460021B6
:102E0000018B4FF67F7319401143018370470A46C7
:102E10000021018BC1F30E01130641EA1341018326
:102E200070470A460021818B4FF67F73194011438A
:102E3000818370470A460021818BC1F30E0113067E
:102E400041EA1341818370470A460021018C4FF605
:102E5000FD7319401143018470470A460021018C1B
:102E60004FF6F77319401143018470470A46002159
:102E7000018C4FF6DF731940130541EA13410184B9
:102E800070470A460021018C4FF67F7319401305E5
:102E900041EA1341018470470A460021018C4FF634
:102EA000FF531940130641EA1341018470470A4653
:102EB0000021018C4FF2FF731940130641EA1341C0
:102EC000018470470A460021018C4DF6FF731940BA
:102ED000130741EA13410184704730B500230124F0
:102EE0008C40A3B2048CDD43ADB22C400484048C2E
:102EF00002FA01F5ADB22C43048430BD30B5002395
:102F000004248C40A3B2048CDD43ADB22C40048475
:102F1000048C02FA01F5ADB22C43048430BD70B5C7
:102F20000346002000241846183001258D40ACB21D
:102F30001D8CE643B6B235401D8409B1082909D17C
:102F400000EB6100056825F0700505600568154314
:102F500005600CE00D1FADB200EB6500056825F4BF
:102F6000E04505600568160645EA1645056070BD32
:102F700021B1028842F00202028004E002884FF68A
:102F8000FD731A400280704721B1028842F00402AA
:102F9000028004E002884FF6FB731A4002807047FB
:102FA00021B1828842F08002828004E082884FF65C
:102FB0007F731A408280704702884FF6F7731A4079
:102FC000028002880A430280704782884FF68F731E
:102FD0001A40828082880A438280704702894FF6B5
:102FE000F8731A40028102890A43028170470289FC
:102FF0004FF67F731A40028102890A4302817047AB
:10300000818470478185704781867047018770474A
:1030100081877047A0F84010704702884FF6FF4341
:103020001A40028002880A43028070470146888E57
:1030300070470146088F70470146888F70470146E8
:10304000B1F8400070470146888C70470146088DF2
:10305000704702460020138A0B4201D0012000E095
:1030600000207047CA430282704730B502460020F4
:1030700000230024158A05EA0103958905EA010465
:1030800013B10CB1012000E0002030BDCA43028220
:103090007047000010B50446FC48844209D1012164
:1030A0008803FFF7CEF800214FF48040FFF7C9F8FE
:1030B00032E0F748844209D101214804FFF7CEF8F5
:1030C00000214FF40030FFF7C9F825E0F1488442B1
:1030D00009D101218804FFF7C1F800214FF48020B5
:1030E000FFF7BCF818E0EC48844209D10121C8047C
:1030F000FFF7B4F800214FF40020FFF7AFF80BE022
:10310000E648844208D101210805FFF7A7F800210D
:103110004FF48010FFF7A2F810BD2DE9F04786B0FC
:1031200005460E460024A24600BFA1460027B089EE
:1031300000B100BF2F462C8A4CF6FF700440F08887
:1031400004432C82AC894EF6F3100440B0883189D8
:103150000843718908430443AC81AC8A4FF6FF40B1
:103160000440B0890443AC8201A8FEF7E3FFC748DE
:10317000874202D1DDF810A001E0DDF80CA0A8899B
:1031800010F4004F08D00AEBCA0000EB0A103168B7
:103190004900B0FBF1F807E00AEBCA0000EB0A10A7
:1031A00031688900B0FBF1F86420B8FBF0F004014D
:1031B0002009642101FB1089A88910F4004F08D070
:1031C000322000EBC900B0FBF1F000F0070004432F
:1031D00008E0322000EB09106421B0FBF1F000F0B0
:1031E0000F0004432C8106B0BDE8F0874FF4165160
:1031F000016000218180C18001810C214181002179
:103200008181704710B502460020108A4FF2FF03FB
:1032100018400B884C8823438C882343CC88234355
:103220001843108210BD0021018041808180C1803F
:10323000704721B1828942F40052828104E0828980
:103240004DF6FF731A4082817047F0B503460024A3
:10325000002600250020A1F510676A3F00D100BFBD
:103260001846C1F3421401F01F06012707FA06F5BC
:10327000012C01D10C3004E0022C01D1103000E00F
:1032800014301AB107682F43076002E00768AF43A4
:103290000760F0BD10B51AB1838A0B43838204E046
:1032A000838ACC43A4B22340838210BD028A4FF6A6
:1032B000F0731A400282028A0A43028270478289AE
:1032C0004FF2FF731A40828182890A4382817047DC
:1032D00021B1828942F00202828104E082894FF6A4
:1032E000FD731A4082817047028A4FF6DF731A40DD
:1032F0000282028A0A430282704721B1028A42F4A2
:103300008042028204E0028A4BF6FF731A40028276
:103310007047C1F308028280704701468888C0F375
:1033200008007047818941F0010181817047028B5B
:10333000D2B20283028B42EA012202837047028BDF
:1033400002F47F420283028B0A430283704721B159
:10335000828A42F02002828204E0828A4FF6DF7382
:103360001A408282704721B1828A42F01002828222
:1033700004E0828A4FF6EF731A408282704721B1CF
:10338000828A42F00802828204E0828A4FF6F77352
:103390001A408282704721B1828942F400428281C0
:1033A00003E08289C2F30E028281704721B1828AD2
:1033B00042F40062828204E0828A4FF2FF731A4074
:1033C00082827047828A4FF6FB731A408282828A19
:1033D0000A438282704721B1828A42F002028282CD
:1033E00004E0828A4FF6FD731A40828270470246DB
:1033F0000020B1F5007F00D100BF13880B4201D03F
:10340000012000E00020704701F40072B2F5007F57
:1034100000D100BFCA430280704770B50246002445
:10342000002300250020A1F510666A3E00D100BFF0
:10343000C1F3421501F01F03012606FA03F3012D23
:1034400002D19689334006E0022D02D1168A33401C
:1034500001E0968A33400C12012606FA04F416881D
:10346000344013B10CB1012000E0002070BD10B554
:1034700000220023A1F510646A3C00D100BF0A12AB
:1034800001249440A3B2DC43048010BD0038014005
:103490000044004000480040004C00400050004004
:1034A00000210020674A126842F48032654B1A609E
:1034B00000BF644A126802F40030491C10B9B1F52B
:1034C000A06FF6D15F4A126812F4003F01D00120CC
:1034D00000E00020012842D15B4A126842F010024D
:1034E000594B1A601A46126822F003021A601A46F3
:1034F000126842F002021A60524A5268514B5A60F6
:103500001A4652685A601A46526842F480625A60FB
:103510001A46526822F47C125A601A46526842F4E3
:10352000E8125A601A46126842F080721A6000BFB0
:10353000444A126812F0007FFAD0424A526822F0E0
:103540000302404B5A601A46526842F002025A6027
:1035500000BF3C4A526802F00C02082AF9D17047B9
:1035600010B5FFF79DFF10BD10B53648006840F05C
:103570000100344908600846406834490840314930
:10358000486008460068324908402E4908600846ED
:10359000006820F4802008600846406820F4FE009F
:1035A00048604FF41F008860FFF7DAFF4FF00060BB
:1035B0002849086010BD10B5002100200022214BD1
:1035C0005B6803F00C0121B1042906D0082928D139
:1035D00007E0214B214C236027E01F4B1F4C236049
:1035E00023E0184B5B6803F47010164B5B6803F420
:1035F0008032022303EB904022B9194B4343174C0E
:1036000023600DE00F4B5B6813F4003F04D0144BB4
:103610004343124C236003E00F4B43430F4C2360A2
:1036200003E00D4B0D4C236000BF00BF054B5B68F2
:10363000C3F303130B4CE15C084B1B68CB40074CF6
:10364000236010BD00100240002002400000FFF87F
:10365000FFFFF6FE08ED00E000127A00D80000201F
:1036600000093D00DC00002006488047064800476E
:10367000FEE7FEE7FEE7FEE7FEE7FEE7FEE7FEE722
:10368000FEE7FEE769350008ED0000082DE9FE4F72
:10369000074681EA0300C00F0E46019021F0004169
:1036A00023F00044B81AA14105D2384631461746E6
:1036B0001E460B46024623F00040104304D1384614
:1036C000314603B0BDE8F08F350DC5F30A00C3F3F2
:1036D0000A510290401A0090402867DAC3F31300A1
:1036E00040F4801B0198924620B10023D2EB030ADC
:1036F00063EB0B0B00985946C0F14002504600F0B6
:103700007FF980460C4650465946009A00F097F9DA
:10371000C0197141EF1785EA11533B433FD0019A1D
:103720004AB3009A012A11DC0022801A61EB05518C
:103730004FF0004303EA0555CDE90025801841F517
:1037400080114246234600F099F9BAE72E0500257C
:10375000401B61EB0601401941F5801200185241EF
:103760002818A6F5001343EB020140EAD47018EBC9
:103770000808644113E064084FEA38084FF000027B
:1037800044EAC0744FEA0553801A61EB03018018C4
:1037900041F5801149084FEA3000801859414246EE
:1037A000234603B0BDE8F04F00F05BB90198012259
:1037B00040000023D0EB020263EBE07301984FEA74
:1037C000E074381A66EB0401EBE783F000435DE731
:1037D00081F000415AE72DE9FE4F81EA030421F010
:1037E000004504F0004423F000414FF0000A00942B
:1037F00050EA050302D052EA010304D10020014639
:1038000003B0BDE8F08FC1F30A53C5F30A54234453
:10381000A3F2F3330193A0FB02B3C5F3130545F400
:10382000801CC1F3130141F480180CFB023300FB30
:10383000083E810A930A41EA8C5143EA8853A1FB6E
:1038400003474FEA9C2505FB03734FEA982601FBCB
:1038500006373D05260545EA1435BBEB06016EEB40
:103860000503850E920E45EA8C1542EA8812A5FBE7
:103870000206261E67EB00070C0D44EA0334A61966
:1038800047EB1350C1F313044FF000031946E5FB57
:1038900002014FEA033545EA1455019B4FEA043211
:1038A000009CA3F10C03CDE900A445EA06050293B0
:1038B0002B4600F0E3F8A3E72DE9F04D81EA03047D
:1038C00004F0004B21F0004714464FF0000A23F0AB
:1038D000004150EA070220D054EA01021DD0C1F392
:1038E0000A550246C1F31300C7F30A56C7F3130380
:1038F00040F4801143F48013A6EB0508101BD64654
:1039000008F2FD3873EB010002D308F1010801E071
:1039100092185B41B8F1000F03DA00200146BDE8C0
:10392000F08D00204FF48015064607460EE0B2EBFE
:10393000040C73EB010C04D3121B064363EB01036D
:103940002F436D084FEA300092185B4150EA050C96
:10395000EDD152EA030012D082EA040083EA0105A5
:10396000284303D100224FF0004308E0101B8B4195
:1039700002D20122002302E06FF0010253101AEB81
:10398000060047EB085110EB0A0041EB0B01BDE8C4
:10399000F04D00F066B80EB5C10F80EAE070084443
:1039A000CA07002140F233438DE80E000A460B4659
:1039B00000F064F803B000BD0EB5002240F23343BE
:1039C000CDE9002202931346114600F057F803B0E8
:1039D00000BDC1F30A52C1F3130140F2FF3341F4B9
:1039E00080119A4201DA0020704740F233439A4234
:1039F000A2F2334202DC524200F011B8904070470C
:103A0000202A04DB203A00FA02F10020704791409E
:103A1000C2F1200320FA03F3194390407047202A93
:103A200004DB203A21FA02F00021704721FA02F368
:103A3000D040C2F120029140084319467047202A25
:103A400006DBCB17203A41FA02F043EAE07306E0C6
:103A500041FA02F3D040C2F12002914008431946D6
:103A6000704710B5002B08DA401C41F10001921894
:103A70005B411A4301D120F0010010BD2DE9FF4D3B
:103A8000934611B1B1FA81F202E0B0FA80F220322D
:103A90009246FFF7B5FF039A0746884640EA0B00B7
:103AA00011435B46084304D13846414604B0BDE8A3
:103AB000F08D114653EA020016D0CAF14002584672
:103AC000FFF7ADFF04460D464FF00106584652463B
:103AD0000399FFF795FF084300D10026344345EAD8
:103AE000E675274345EA08080E984FF00005A0EB5D
:103AF0000A014FEAD7200A314FEA47532A4640EAE3
:103B000048504FEAD82402D500200146CEE72818B5
:103B100044EB0151DDE90C45001904B06941BDE8F1
:103B2000F04D9EE7064C074D06E0E06840F00103CB
:103B300094E8070098471034AC42F6D3FCF7DAFA61
:103B4000983B0008B83B0008014A024900F013B84E
:103B50006D040008EC00002002E008C8121F08C134
:103B6000002AFAD170477047002001E001C1121FFE
:103B7000002AFBD170472DE9F04104460F46164656
:103B8000002503E03946B0476D1C641C20780028EE
:103B9000F8D12846BDE8F081B83B000800000020BD
:103BA000F0000000583B0008A83C0008F00000208E
:103BB000101D0000683B000800000000000000002D
:103BC00050000000000000000000000000000000A5
:103BD00000000000000000000000000000000000E5
:103BE0000000000000000000505001000000000034
:103BF00000000000000000000000000000000000C5
:103C000000000000000000000000000000000000B4
:103C100000009F0000000000000000000000000005
:103C20000000000000000000000000000000000094
:103C30000000000000000000000000000000000084
:103C40000000000050000000000000000000000024
:103C50000000000000000000000000000000000064
:103C60000000000000000000000000000000000054
:103C70000000000000000000000000000000000044
:103C800001020304010203040607080902040608EE
:103C900000A24A040000000000000000010203042A
:083CA0000607080900000000FE
:04000005080000ED02
:00000001FF
