:020000040800F2
:10000000381D002021120008590100085B0100087A
:100010005F0100086301000867010008000000009C
:100020000000000000000000000000006B0100085C
:100030006D010008000000006F0100087101000858
:100040003B1200083B1200083B1200083B1200085C
:100050003B1200083B120008CF0100083B120008C9
:100060003B1200083B1200089B0200083B120008EC
:100070003B1200083B1200083B1200083B1200082C
:100080003B1200083B1200083B1200083B1200081C
:100090003B1200083B1200083B1200083B1200080C
:1000A0003B1200083B1200083B1200083B120008FC
:1000B0003B1200083B1200083B1200083B120008EC
:1000C0003B1200083B1200083B1200083B120008DC
:1000D0003B120008AD0200083B1200083B1200086A
:1000E000730100083B1200083B120008DFF80CD037
:1000F00001F0DEFF0048004749010008381D0020DC
:1001000010E01048007802280CD1002001F068FFB0
:1001100001F005FC01F085FC00200A49087001206F
:1001200001F05EFFEDE710B500F0FAFF482001F0A6
:1001300089FE01F091FF01F0E5FE01F02CFF01F0D6
:10014000E0FB10BD2C00002010B5FFF7ECFFFFF71F
:10015000D7FF002010BD0000704700BFFEE700BFC2
:10016000FEE700BFFEE700BFFEE77047704770473D
:10017000704710B54FF4806000F0C8F980B14FF4BB
:100180008071534800F0F1FA4FF40071504800F0CC
:10019000ECFA50A001F09EFF4FF4806000F0C7F928
:1001A0004FF4006000F0B2F980B14FF4807148481C
:1001B00000F0D9FA4FF40071454800F0D4FA49A094
:1001C00001F088FF4FF4006000F0B1F910BD10B5E8
:1001D000012000F09BF900285ED04648007810B15D
:1001E000012855D11CE0002001F0FAFE4FF4807187
:1001F000414800F0B8FA4FF480713F4800F0B5FA7A
:100200004FF480713C4800F0AEFA4FF48041304822
:1002100000F0A9FA01203749087001F0E1FE37E04B
:10022000002001F0DDFE4FF48041294800F09DFAE6
:100230004FF40071304800F098FA4FF40051244810
:1002400000F093FA4FF40051214800F08CFA4FF47B
:1002500000511F4800F089FA4FF400511C4800F08B
:1002600082FA4FF40071244800F07DFA012001F079
:10027000FFFD4FF40041164800F077FA02201D49B7
:10028000087000201D490880012001F0A9FE00BF70
:1002900000BF012000F04BF910BD10B5102000F098
:1002A00035F910B1102000F042F910BD10B540F240
:1002B0002551134800F08DFE012807D1104800F0A9
:1002C00008FEC4B221460FA001F004FF10BD0000DB
:1002D000000C0140B0B4BCFC203120D6D0B6CF0A0F
:1002E00000000000B0B4BCFC203220D6D0B6CF0A4B
:1002F000000000002C000020001001402E00002013
:1003000000380140BDD3CAD5B5BDC9CFCEBBBBFAFD
:10031000CAFDBEDD2025630A000000003649014306
:10032000364A1160704770B5002100230F22C4784F
:100330004CB3324C246804F4E064C4F5E0644FEA42
:100340001421C1F1040322FA01F2447804FA03F102
:10035000847804EA020444EA01014FEA0111284CBE
:100360000678A155047804F01F054FF0010404FA43
:1003700005F405784FEA65154FF0E02606EB850594
:10038000C5F8004109E0047804F01F050124AC40E1
:100390001C4D0678761145F8264070BD1A4A0A4071
:1003A00002431A4B1A60704741B1194A126842EA77
:1003B00000024FF0E023C3F8102D07E0144A126842
:1003C00022EA00024FF0E023C3F8102D7047042802
:1003D00008D14FF0E021096941F004014FF0E0221B
:1003E000116107E04FF0E021096921F004014FF0AD
:1003F000E0221161704700000000FA050CED00E0FA
:1004000000E400E080E100E080FFFF1F08ED00E075
:1004100010ED00E00020474908604749C1F8040496
:100420004649086001F104010860454845490860F3
:10043000704700213F498279002A43D03E4AD2F8D2
:10044000002403689A433C4BC3F800241A46D2F8B0
:10045000042403689A4301F104031A6002791144E9
:100460000A68036842EA03020A60334AD2F80824A1
:10047000036822EA0302304BC3F808241A46D2F874
:100480000C24036822EA03022F4B1A604279102AD7
:1004900010D1294AD2F8082403681A43264BC3F81E
:1004A00008241A46D2F80C2403681A43224BC3F8D6
:1004B0000C240DE01F49427911440A6803681A436D
:1004C0000A6005E0027911440A6803689A430A60E9
:1004D00070470021016001710C214171002181717F
:1004E00070471A49096841EA0001134AC2F810141A
:1004F000704701460020134A12680A4201D00120C9
:1005000000E0002070470F49086070470146002056
:100510000022084B1B6803EA0102074BD3F814348E
:100520000B4202D00AB1012000E0002070470549CB
:1005300008607047000401400000014008040140C9
:10054000FFFF0F00140401400C040140100401409F
:1005500010B50446CA48844208D10121042000F0A5
:1005600024FB0021042000F020FB46E0C548844223
:1005700008D10121082000F018FB0021082000F01C
:1005800014FB3AE0C048844208D10121102000F059
:100590000CFB0021102000F008FB2EE0BB48844239
:1005A00008D10121202000F000FB0021202000F0D4
:1005B000FCFA22E0B648844208D10121402000F034
:1005C000F4FA0021402000F0F0FA16E0B14884422D
:1005D00008D10121802000F0E8FA0021802000F0FD
:1005E000E4FA0AE0AC48844207D10121801500F00A
:1005F000DCFA0021A01500F0D8FA10BD10B50121D9
:10060000084600F0D2FA0021012000F0CEFA10BD19
:100610002DE9F04102460025002600200023002499
:10062000002791F803C00CF00F0591F803C01CF0EF
:10063000100F03D091F802C04CEA0505B1F800C0D4
:100640001CF0FF0F31D0146800202BE04FF0010C9C
:100650000CFA00F3B1F800C00CEA03069E4220D168
:1006600083004FF00F0C0CFA03F7BC4305FA03FCB0
:100670004CEA040491F803C0BCF1280F06D14FF0F6
:10068000010C0CFA00FCC2F814C00AE091F803C097
:10069000BCF1480F05D14FF0010C0CFA00FCC2F878
:1006A00010C0401C0828D1D31460B1F800C0BCF1C0
:1006B000FF0F34DD546800202EE000F1080C4FF0ED
:1006C000010808FA0CF3B1F800C00CEA03069E42D8
:1006D00021D183004FF00F0C0CFA03F7BC4305FA4D
:1006E00003FC4CEA040491F803C0BCF1280F05D1C7
:1006F00000F1080C08FA0CF8C2F8148091F803C055
:10070000BCF1480F07D100F1080C4FF0010808FABE
:100710000CF8C2F81080401C0828CED35460BDE805
:10072000F0814FF6FF710180022181700421C170B8
:1007300070470246002093680B4201D0012000E080
:10074000002070470146886880B27047024600204A
:10075000D3680B4201D0012000E000207047014621
:10076000C86880B2704701617047416170470AB143
:10077000016100E041617047C16070474FF4803211
:100780000A4382618161826182698269704702469F
:100790000020424B18684FF68073184040EA021060
:1007A00008433E4B186070473D49C8617047F0B53B
:1007B0000A46002300240021002500F00046B6F17F
:1007C000004F02D1354EF16901E0344E7168C0F33B
:1007D000034583B200F44016B6F5401F08D121F05E
:1007E00070612E4E766826F070662C4F7E6012E0A7
:1007F00000F48016B6F5801F06D1032606FA05F42C
:10080000A14341F0706106E0460D360103FA06F699
:10081000B14341F0706122B1460D360103FA06F68C
:10082000314300F00046B6F1004F02D11B4EF1619A
:1008300001E01A4E7160F0BD30B500228B071C0F2D
:100840000F2303FA04F2154B08338C1053F82430AD
:100850009343124C08348D1044F8253023468C10F5
:1008600053F824308C07240F00FA04F423430B4C74
:1008700008348D1044F8253030BD0A4908607047AF
:1008800000080140000C014000100140001401402C
:1008900000180140001C0140002001400000014000
:1008A00000002042DC002042DB48006840F00100EC
:1008B000D949086008464068D8490840D649486088
:1008C00008460068D6490840D349086008460068D1
:1008D00020F4802008600846406820F4FE0048604C
:1008E0004FF41F0088607047CB49096821F48031BC
:1008F000C94A11601146096821F480211160B0F5E0
:10090000803F03D0B0F5802F0ED106E0C2490968C0
:1009100041F48031C04A116007E0BF49096841F4E1
:10092000A021BD4A116000E000BF00BF704710B5B4
:1009300001460022002300204A11012A02D1B64CB0
:10094000236806E0022A02D1B34C236A01E0B24CCC
:10095000636A01F01F02012494401C4201D001206F
:1009600000E0002010BD70B500240025002600BF67
:100970003120FFF7DCFF0646641CB4F5A06F01D000
:10098000002EF5D03120FFF7D2FF08B1012500E09D
:100990000025284670BD014600209F4A106820F0BF
:1009A000F80040EAC100106070479E490860704737
:1009B00002460020984B586820F47C1042EA01035C
:1009C0001843954B58607047964908667047014632
:1009D0000020914A506820F003000843506070479F
:1009E0008D48406800F00C007047014600208A4A9C
:1009F000506820F0F0000843506070470146002026
:100A0000854A506820F4E060084350607047014612
:100A10000020814A506820F4605040EAC1005060D4
:100A2000704729B17C4A527A02437B4B5A7206E0E6
:100A3000794A527AC343DBB21A40774B5A727047F5
:100A400079490860704701460020734A506820F4D5
:100A500040400843506070470021744A11706E4A4C
:100A600082F82010012802D0042808D103E00121D7
:100A70006E4A117004E005216C4A117000E000BF5D
:100A800000BF70476A49086070476349096A0143BB
:100A9000614A1162704767490860704730B50021AC
:100AA0000022002400235C4D6D6805F00C0121B18B
:100AB000042905D0082923D105E05F4D056022E017
:100AC0005D4D05601FE0544D6D6805F47012524D88
:100AD0006D6805F48034022505EB92421CB9574D30
:100AE000554305600BE04C4D6D6815F4003F03D095
:100AF000524D5543056002E04F4D5543056002E0FD
:100B00004D4D056000BF00BF434D6D6805F0F0011D
:100B100009094B4D6B5C0568DD4045603E4D6D68D5
:100B200005F4E061090A464D6B5C4568DD4085606F
:100B3000394D6D6805F46051C90A414D6B5C4568DB
:100B4000DD40C560344D6D6805F44041890B3D4D75
:100B50006B5CC568B5FBF3F5056130BD29B12E4A64
:100B6000526902432C4B5A6104E02B4A526982437A
:100B7000294B5A61704729B1274A92690243264B93
:100B80009A6104E0244A92698243234B9A61704738
:100B900029B1214AD26902431F4BDA6104E01E4A9F
:100BA000D26982431C4BDA61704729B11A4AD26874
:100BB0000243194BDA6004E0174AD2688243164BAD
:100BC000DA60704729B1144A12690243124B1A6164
:100BD00004E0114A126982430F4B1A6170471A49A7
:100BE000086070470F49C86470470B49C871704767
:100BF0000948406A40F080700749486270470146E2
:100C00000020054A92680A4201D0012000E000203D
:100C10007047014988727047001002400000FFF8D9
:100C2000FFFFF6FE00004242D80042422010024080
:100C3000800442423C04424200127A0000093D0016
:100C400000000020100000204004424210B504467D
:100C5000FC48844209D101218803FFF7A6FF002147
:100C60004FF48040FFF7A1FF32E0F748844209D1FA
:100C700001214804FFF7A6FF00214FF40030FFF7E1
:100C8000A1FF25E0F148844209D101218804FFF742
:100C900099FF00214FF48020FFF794FF18E0EC4803
:100CA000844209D10121C804FFF78CFF00214FF4D1
:100CB0000020FFF787FF0BE0E648844208D10121BE
:100CC0000805FFF77FFF00214FF48010FFF77AFF40
:100CD00010BD2DE9F04786B005460E460024A24619
:100CE00000BFA1460027B08900B100BF2F462C8A63
:100CF0004CF6FF700440F08804432C82AC894EF619
:100D0000F3100440B08831890843718908430443D3
:100D1000AC81AC8A4FF6FF400440B0890443AC82FA
:100D200001A8FFF7BBFEC748874202D1DDF810A03B
:100D300001E0DDF80CA0A88910F4004F08D00AEB00
:100D4000CA0000EB0A1031684900B0FBF1F807E077
:100D50000AEBCA0000EB0A1031688900B0FBF1F819
:100D60006420B8FBF0F004012009642101FB108924
:100D7000A88910F4004F08D0322000EBC900B0FB66
:100D8000F1F000F00700044308E0322000EB091006
:100D90006421B0FBF1F000F00F0004432C8106B099
:100DA000BDE8F0874FF41651016000218180C180B9
:100DB00001810C21418100218181704710B50246DB
:100DC0000020108A4FF2FF0318400B884C88234301
:100DD0008C882343CC8823431843108210BD002104
:100DE000018041808180C180704721B1828942F4B5
:100DF0000052828104E082894DF6FF731A4082819D
:100E00007047F0B503460024002600250020A1F518
:100E100010676A3F00D100BF1846C1F3421401F0C9
:100E20001F06012707FA06F5012C01D10C3004E05A
:100E3000022C01D1103000E014301AB107682F43A2
:100E4000076002E00768AF430760F0BD10B51AB154
:100E5000838A0B43838204E0838ACC43A4B2234079
:100E6000838210BD028A4FF6F0731A400282028A12
:100E70000A430282704782894FF2FF731A408281CF
:100E800082890A438281704721B1828942F002023D
:100E9000828104E082894FF6FD731A408281704797
:100EA000028A4FF6DF731A400282028A0A430282E4
:100EB000704721B1028A42F48042028204E0028A31
:100EC0004BF6FF731A4002827047C1F3080282801A
:100ED000704701468888C0F308007047818941F057
:100EE000010181817047028BD2B20283028B42EAF8
:100EF000012202837047028B02F47F420283028B3D
:100F00000A430283704721B1828A42F02002828222
:100F100004E0828A4FF6DF731A408282704721B163
:100F2000828A42F01002828204E0828A4FF6EF73D6
:100F30001A408282704721B1828A42F0080282827E
:100F400004E0828A4FF6F7731A408282704721B11B
:100F5000828942F40042828103E08289C2F30E0258
:100F60008281704721B1828A42F40062828204E069
:100F7000828A4FF2FF731A4082827047828A4FF64C
:100F8000FB731A408282828A0A438282704721B1AF
:100F9000828A42F00202828204E0828A4FF6FD7366
:100FA0001A408282704702460020B1F5007F00D1CE
:100FB00000BF13880B4201D0012000E000207047E1
:100FC00001F40072B2F5007F00D100BFCA43028075
:100FD000704770B502460024002300250020A1F5CB
:100FE00010666A3E00D100BFC1F3421501F01F0335
:100FF000012606FA03F3012D02D19689334006E05B
:10100000022D02D1168A334001E0968A33400C1239
:10101000012606FA04F41688344013B10CB10120FD
:1010200000E0002070BD10B500220023A1F510647F
:101030006A3C00D100BF0A1201249440A3B2DC43F1
:10104000048010BD003801400044004000480040CA
:10105000004C00400050004000210020674A126808
:1010600042F48032654B1A6000BF644A126802F491
:101070000030491C10B9B1F5A06FF6D15F4A126873
:1010800012F4003F01D0012000E00020012842D1ED
:101090005B4A126842F01002594B1A601A461268F5
:1010A00022F003021A601A46126842F002021A6025
:1010B000524A5268514B5A601A4652685A601A4650
:1010C000526842F480625A601A46526822F47C12D6
:1010D0005A601A46526842F4E8125A601A46126878
:1010E00042F080721A6000BF444A126812F0007F1A
:1010F000FAD0424A526822F00302404B5A601A4624
:10110000526842F002025A6000BF3C4A526802F044
:101110000C02082AF9D1704710B5FFF79DFF10BDEA
:1011200010B53648006840F00100344908600846B0
:1011300040683449084031494860084600683249EF
:1011400008402E4908600846006820F480200860A6
:101150000846406820F4FE0048604FF41F00886095
:10116000FFF7DAFF4FF000602849086010BD10B5A6
:10117000002100200022214B5B6803F00C0121B10B
:10118000042906D0082928D107E0214B214C2360EF
:1011900027E01F4B1F4C236023E0184B5B6803F4D0
:1011A0007010164B5B6803F48032022303EB90400F
:1011B00022B9194B4343174C23600DE00F4B5B687A
:1011C00013F4003F04D0144B4343124C236003E05C
:1011D0000F4B43430F4C236003E00D4B0D4C23603A
:1011E00000BF00BF054B5B68C3F303130B4CE15C0E
:1011F000084B1B68CB40074C236010BD0010024019
:10120000002002400000FFF8FFFFF6FE08ED00E0BE
:1012100000127A001400002000093D001800002090
:101220000648804706480047FEE7FEE7FEE7FEE780
:10123000FEE7FEE7FEE7FEE7FEE7FEE72111000816
:10124000ED00000808B548208DF8030001210420B6
:10125000FFF791FC01210820FFF78DFC01211020F0
:10126000FFF789FC0120ADF800006946FF48FFF751
:10127000CFF90220ADF800006946FC48FFF7C8F935
:101280000420ADF800006946F848FFF7C1F90820CE
:10129000ADF800006946F548FFF7BAF91020ADF83F
:1012A00000006946F148FFF7B3F92020ADF80000CF
:1012B0006946EE48FFF7ACF94020ADF800006946FA
:1012C000EA48FFF7A5F98020ADF800006946E74835
:1012D000FFF79EF903208DF8020010208DF803001F
:1012E0000002ADF800006946E148FFF791F94FF4BC
:1012F0008050ADF800006946DE48FFF789F94FF4E9
:101300000050ADF800006946DA48FFF781F94FF464
:101310000040ADF800006946D648FFF779F94FF470
:101320000070ADF800006946D048FFF771F94FF43E
:101330008040ADF800006946CE48FFF769F94FF4E8
:101340008070ADF800006946C848FFF761F94FF4B6
:101350008050ADF800006946C448FFF759F908BD50
:1013600010B54FF48051C248FFF7FFF94FF4805198
:10137000C048FFF7FAF9142000F07AFD4FF48051CD
:10138000BC48FFF7F0F98021122000F0B7FC0421DF
:101390003A2000F0B3FCD021402000F0AFFC142133
:1013A000122000F0ABFC8021322000F0A7FC1621B7
:1013B000172000F0A3FC0421182000F09FFC02215C
:1013C000192000F09BFC7B211A2000F097FC0621DD
:1013D000032000F093FC00210C2000F08FFC002182
:1013E0003E2000F08BFC3A21702000F087FC352174
:1013F000712000F083FC1121722000F07FFC00219D
:10140000732000F07BFC0221A22000F077FC8121F8
:10141000112000F073FC20217A2000F06FFC1C21C9
:101420007B2000F06BFC28217C2000F067FC3C2135
:101430007D2000F063FC55217E2000F05FFC6821D8
:101440007F2000F05BFC7621802000F057FC80219B
:10145000812000F053FC8821822000F04FFC8F2176
:10146000832000F04BFC9621842000F047FCA32150
:10147000852000F043FCAF21862000F03FFCC42112
:10148000872000F03BFCD721882000F037FCE821C2
:10149000892000F033FCE021132000F02FFC002114
:1014A000084600F02BFC0021102000F027FC002152
:1014B0000D2000F023FC2821142000F01FFC052142
:1014C000A52000F01BFC0721AB2000F017FC7521C4
:1014D000242000F013FC6321252000F00FFCA5213F
:1014E000262000F00BFC78219F2000F007FC6821EB
:1014F000A02000F003FC0321A12000F0FFFBDF216E
:10150000A62000F0FBFBDF21A72000F0F7FBF02175
:10151000A82000F0F3FB9021A92000F0EFFB94211C
:10152000AA2000F0EBFBE521132000F0E7FB61218E
:101530000E2000F0E3FB4B210F2000F0DFFB022127
:10154000162000F0DBFB37211E2000F0D7FB022124
:10155000212000F0D3FB9121222000F0CFFB0721B6
:10156000292000F0CBFB0B21332000F0C7FB0B211F
:10157000352000F0C3FB1D21372000F0BFFB712197
:10158000382000F0BBFB2A21392000F0B7FB78217E
:101590003C2000F0B3FB40214D2000F0AFFB2021A8
:1015A0004E2000F0ABFB0021692000F0A7FB60217A
:1015B0006B2000F0A3FB1921742000F09FFB4F214A
:1015C0008D2000F09BFB00218E2000F097FB002176
:1015D0008F2000F093FB0021902000F08FFB002172
:1015E000912000F08BFB0021922000F087FB00216E
:1015F000962000F083FB80219A2000F07FFB84215D
:10160000B02000F07BFB0C21B12000F077FB0E2115
:10161000B22000F073FB8221B32000F06FFB0A219F
:10162000B82000F06BFB1421432000F067FBF02191
:10163000442000F063FB3421452000F05FFB58217B
:10164000462000F05BFB2821472000F057FB3A21A1
:10165000482000F053FB8821592000F04FFB8821DF
:101660005A2000F04BFB44215B2005E000100140B4
:1016700000080140000C014000F040FB67215C20A5
:1016800000F03CFB49215D2000F038FB0E215E207C
:1016900000F034FB0421642000F030FB20216520A1
:1016A00000F02CFB0521662000F028FB042194208B
:1016B00000F024FB0821952000F020FB0A216C207B
:1016C00000F01CFB55216D2000F018FB11216E204D
:1016D00000F014FB9F216F2000F010FB40216A20D6
:1016E00000F00CFB4021012000F008FB402102200B
:1016F00000F004FBE721132000F000FB002115207F
:1017000000F0FCFA80214F2000F0F8FA80215020F0
:1017100000F0F4FA0021512000F0F0FA22215220CA
:1017200000F0ECFA5E21532000F0E8FA802154200A
:1017300000F0E4FA9E21582000F0E0FA0821412050
:1017400000F0DCFA00213F2000F0D8FA05217520D6
:1017500000F0D4FAE121762000F0D0FA00214C20EC
:1017600000F0CCFA0121772000F0C8FAC2213D2018
:1017700000F0C4FA09214B2000F0C0FA6021C92012
:1017800000F0BCFA3821412000F0B8FA4021562080
:1017900000F0B4FA1121342000F0B0FA02213B200D
:1017A00000F0ACFA8921A42000F0A8FA00219620CC
:1017B00000F0A4FA3021972000F0A0FA2021982010
:1017C00000F09CFA3021992000F098FA84219A20A8
:1017D00000F094FA29219B2000F090FA03219C202C
:1017E00000F08CFA4C219D2000F088FA3F219E20C9
:1017F00000F084FA0421782000F080FA0121792099
:1018000000F07CFAF021C82000F078FA0F2179204E
:1018100000F074FA0021C82000F070FA102179203D
:1018200000F06CFA7E21C82000F068FA0A217920C5
:1018300000F064FA8021C82000F060FA0B217920C2
:1018400000F05CFA0121C82000F058FA0C21792040
:1018500000F054FA0F21C82000F050FA0D21792031
:1018600000F04CFA2021C82000F048FA0921792024
:1018700000F044FA8021C82000F040FA02217920CB
:1018800000F03CFAC021C82000F038FA032179208A
:1018900000F034FA4021C82000F030FA0521792008
:1018A00000F02CFA3021C82000F028FA26217920F7
:1018B00000F024FA0021092000F020FA1021122063
:1018C00000F01CFA14213A2000F018FA80213D2083
:1018D00000F014FA1121672000F010FAFF216820AF
:1018E00000F00CFAC021402000F008FA4FF480719B
:1018F0006448FEF73AFF4FF400716248FEF735FF87
:1019000010BD10B500F0C8F8FFF79CFCFFF728FDEC
:101910000120FEF70CFE012000F062FB10BD2DE956
:10192000F041002674E0062096FBF0F100FB116008
:1019300001284AD100243FE0A02C3BDA4FF40051AB
:101940005048FEF712FF4FF400514E48FEF70BFFD0
:101950004D488068C5B24FF400514A48FEF705FF74
:101960004FF400514748FEF7FEFE47488068C7B273
:101970004FF400514348FEF7F8FE4FF40051414840
:10198000FEF7F1FE40488068C7B24FF400513D4871
:10199000FEF7EBFE4FF400513A48FEF7E4FE3A48FA
:1019A0008068C7B23948008800EB8000384901EBF5
:1019B00040100555601C84B2B4F5A07FBCDB3348F1
:1019C0000088401C3149088020E000241BE04FF4CF
:1019D00000512C48FEF7C9FE4FF400512948FEF78C
:1019E000C2FE29488068C7B24FF400512548FEF76F
:1019F000BCFE4FF400512348FEF7B5FE2248806834
:101A0000C7B2601C84B2B4F5A07FE0DB701C86B264
:101A1000F02E88DB4FF400411A48FEF7A4FEBDE823
:101A2000F08170B540211B48FFF7CAFAFF21194821
:101A3000FFF74BFA00BF40211648FFF7B4FA002821
:101A4000F9D000241BE0002515E040211148FFF7E4
:101A5000B7FA04EB84000E4A02EB4010415D0D48DA
:101A6000FFF733FA00BF40210A48FFF79CFA00282D
:101A7000F9D0681CC5B2A02DE7DB601CC4B2282CCD
:101A8000E1DB70BD000C0140001001402E00002081
:101A9000380000200038014008B503208DF802000E
:101AA00014208DF8030001210820FFF764F84FF49B
:101AB0000060ADF800006946D148FEF7A9FD01219C
:101AC0000820FFF758F84FF48060ADF80000694631
:101AD000CB48FEF79DFD4FF48061C948FEF743FEF9
:101AE0004FF40061C648FEF73EFE08BD10B54FF446
:101AF0000061C348FEF737FE642000F0D6F94FF4CA
:101B00008061BF48FEF72FFE642000F0CEF94FF44D
:101B10000061BB48FEF729FE642000F0C6F94FF4CF
:101B20008061B748FEF721FE642000F0BEF910BDC9
:101B300010B54FF40061B248FEF717FE642000F0C4
:101B4000B4F94FF48061AE48FEF70DFE642000F05A
:101B5000ACF94FF40061AA48FEF705FE642000F0DE
:101B6000A4F910BD70B504464FF48061A448FEF797
:101B7000FCFD00252BE014F0800F05D04FF4006130
:101B80009F48FEF7F0FD04E04FF400619C48FEF72B
:101B9000ECFD6006040E642000F087F94FF48061CC
:101BA0009748FEF7E0FD642000F07FF94FF4806174
:101BB0009348FEF7DAFD642000F077F9072D04D191
:101BC0004FF400618E48FEF7CEFD681CC5B2082DAB
:101BD000D1DB70BD70B500244FF480618848FEF7FA
:101BE000C4FD00251BE06006040E4FF480618448AC
:101BF000FEF7B9FD642000F058F94FF40061804809
:101C0000FEF797FD08B1601CC4B24FF480617C48B8
:101C1000FEF7ABFD642000F048F9681CC5B2082D42
:101C2000E1DB204670BD10B500244FF4806174489C
:101C3000FEF79BFD4FF400617148FEF794FD4FF4F1
:101C400080616F48FEF78FFD642000F02EF94FF49D
:101C500000616B48FEF76DFD08B1012400E000242F
:101C60004FF480616648FEF780FD642000F01DF9A6
:101C7000204610BD10B54FF480616148FEF775FD38
:101C80000A2000F012F94FF400615D48FEF76DFD87
:101C90000A2000F00AF94FF480615948FEF763FD0D
:101CA0000A2000F002F94FF480615548FEF75DFD0F
:101CB0000A2000F0FAF810BD10B54FF4006150484A
:101CC000FEF751FD642000F0F0F84FF480614C48BD
:101CD000FEF749FD642000F0E8F84FF480614848C1
:101CE000FEF743FD642000F0E0F84FF40061444843
:101CF000FEF739FD642000F0D8F810BD70B5044639
:101D00000D46FFF7F3FE642000F0CFF84220FFF706
:101D100029FFFFF788FF012806D1FFF709FF39A047
:101D200000F0D8F9002070BD052000F0BEF8E0B248
:101D3000FFF718FFFFF777FF012806D1FFF7F8FE3E
:101D400034A000F0C7F90020EDE72846FFF70AFFAE
:101D5000FFF769FF012806D1FFF7EAFE32A000F085
:101D6000B9F90020DFE7FFF7E3FE0120DBE770B5FC
:101D70000446FFF7BBFE642000F097F84220FFF70F
:101D8000F1FEFFF750FF012806D1FFF7D1FE1DA09D
:101D900000F0A0F9002070BD052000F086F8204674
:101DA000FFF7E0FEFFF73FFF012806D1FFF7C0FE77
:101DB00018A000F08FF90020EDE7FFF7B9FE4FF40F
:101DC000FA7000F072F8FFF791FE4320FFF7CAFEA9
:101DD000FFF729FF012806D1FFF7AAFE17A000F0A0
:101DE00079F90020D7E7642000F05FF8FFF7F2FEF2
:101DF0000546FFF761FFFFF79BFE2846CBE7000093
:101E0000000C0140C6F7BCFEC3BBD3D0D3A6B4F0D0
:101E10000A000000D0B4BCC4B4E6C6F7B5D8D6B743
:101E2000CAA7B0DC0A000000D0B4BCC4B4E6C6F750
:101E3000C4DAC8DDCAA7B0DC0A000000B6C1CAA770
:101E4000B0DC0A004FF0E021096921F004014FF0F5
:101E5000E0221161C21700EB5272D2101F4B1A70B0
:101E6000194609784FF47A7251431D4A1180704720
:101E70001B49098841434FF0E0225161114609692D
:101E800041F00101116100BF4FF0E021096911F437
:101E9000803FF9D04FF0E021096921F001014FF0B6
:101EA000E02211610021916170470C49097841439A
:101EB0004FF0E02251611146096941F001011161C1
:101EC00000BF4FF0E021096911F4803FF9D00021F3
:101ED0004FF0E02211619161704700003000002056
:101EE0003200002070B504460D46E1B23648FEF7D8
:101EF000ECFF00BF40213448FFF755F80028F9D027
:101F0000204670BD00B585B001210520FEF733FEE7
:101F100001218803FEF72FFE4FF40070ADF810008A
:101F200018208DF8130003208DF8120004A927480B
:101F3000FEF76EFB4FF48060ADF8100004208DF8C2
:101F4000130004A92148FEF763FB4FF4E130009031
:101F50000020ADF80400ADF80600ADF80800ADF8BB
:101F60000C000C20ADF80A0069461748FEF7B1FED8
:101F700001211548FEF739FF012240F22551124890
:101F8000FEF73FFF40211048FFF71AF810A000F0BD
:101F9000A1F805B000BD08B500214FF00060FEF7C4
:101FA000FDF94FF4E060FEF7B9F925208DF8000047
:101FB00000208DF8010001208DF802008DF803004B
:101FC0006846FEF7B0F908BD00380140000801403E
:101FD000B4AEBFDACDA8D0C5D5FDB3A300000000D4
:101FE0001FB5044601210520FEF7C5FD4FF4C06072
:101FF000FEF794F906208DF80C0001208DF80D00F5
:102000008DF80E008DF80F0003A8FEF78CF9002163
:102010000846FEF711FC00208DF808000C208DF812
:102020000900012C03D101208DF80A0002E00020F4
:102030008DF80A000120019001A8FEF7FAF911209D
:10204000ADF8000048208DF8030069460148FEF70E
:10205000DFFA1FBD0008014008B501210820FEF786
:102060008AFD01210820FEF786FD10208DF803006F
:1020700003208DF802004FF48070ADF8000069462F
:102080000A48FEF7C5FA4FF40070ADF80000694643
:102090000648FEF7BDFA4FF480710448FEF763FB73
:1020A0004FF400710148FEF75EFB08BD000C0140D3
:1020B000064C074D06E0E06840F0010394E8070095
:1020C00098471034AC42F6D3FEF714F8E02100082C
:1020D000002200080FB4054B10B503A9044A02986A
:1020E00000F017F810BC5DF814FB0000E51E0008B6
:1020F0003400002002E008C8121F08C1002AFAD1EB
:1021000070477047002001E001C1121F002AFBD177
:1021100070472DE9F84F05469246994688460027B4
:1021200058E0252801D0514623E0002215F8011F70
:1021300010462E2915D115F8011F04222A290DD089
:102140006FF02F032978A1F13004092C09D800EB96
:10215000800003EB400008446D1CF3E758F8040BC3
:102160006D1C2B78CBB3632B08D0732B10D051464A
:1021700018464A46904707F101072AE058F8043B01
:102180008DF8003000218DF801106E46012103E02A
:1021900058F8046B4FF0FF3152074FF0000401D4A0
:1021A00009E0641C84420BDA8C42FADB325D002ABF
:1021B000F7D105E0641C8C42FCDB305D0028F9D1CE
:1021C000274404E016F8010B51464A469047641E26
:1021D000F8D26D1C28780028A3D13846BDE8F88FC6
:1021E000002200080000002038000000F420000851
:1021F0003822000838000020001D000004210008DB
:10220000000000000102030401020304060708099C
:102210000204060800A24A040000000000000000BA
:102220000102030406070809000000000000000086
:082230000000000000000000A6
:04000005080000ED02
:00000001FF
