:020000040800F2
:1000000050040020E92300085501000857010008AA
:100010005B0100085F0100086301000800000000A8
:100020000000000000000000000000006701000860
:1000300069010008000000006B0100086D01000864
:1000400003240008032400080324000803240008F4
:100050000324000803240008CB010008032400083F
:100060000324000803240008DD010008032400081D
:1000700003240008032400080324000803240008C4
:1000800003240008032400080324000803240008B4
:1000900003240008032400080324000803240008A4
:1000A0000324000803240008032400080324000894
:1000B0000324000803240008032400080324000884
:1000C0000324000803240008032400080324000874
:1000D00003240008EF01000803240008032400089B
:1000E0006F0100080324000803240008DFF80CD087
:1000F00002F08CF900480047470100085004002036
:100100004FF4077000F022FB01E000F0FFF8FCE77D
:1001100010B502F0E9F8482000F08AF800F036FA4D
:1001200000F096F900F00EFB00F090FA00F0D4FA1F
:10013000002405E04FF47A7000F090F8601CC4B21F
:10014000042CF7DB10BD10B5FFF7E2FFFFF7D8FF77
:10015000002010BD704700BFFEE700BFFEE700BFF4
:10016000FEE700BFFEE7704770477047704710B565
:100170004FF4806000F0E0FB80B14FF480712248C2
:1001800000F001FD4FF400711F4800F0FCFC1FA0BF
:1001900002F04EF94FF4806000F0DFFB4FF4006096
:1001A00000F0CAFB80B14FF48071174800F0E9FC01
:1001B0004FF40071144800F0E4FC18A002F038F984
:1001C0004FF4006000F0C9FB10BD10B5012000F035
:1001D000B3FB10B1012000F0C0FB10BD10B5102022
:1001E00000F0AAFB10B1102000F0B7FB10BD10B555
:1001F00040F225510D4801F0D0FF012803D10B48F2
:1002000001F04BFFC4B210BD000C0140B0B4BCFC07
:10021000203120D6D0B6CF0A00000000B0B4BCFC1C
:10022000203220D6D0B6CF0A0000000000380140AE
:100230004FF0E021096921F004014FF0E022116143
:10024000C21700EB5272D2101F4B1A701946097870
:100250004FF47A7251431D4A1180704701461B4A80
:1002600012884A434FF0E0235A6100229A6101222A
:100270001A6100BF4FF0E022106910F0010F02D0A8
:1002800010F4803FF6D000224FF0E0231A619A610B
:10029000704701460C4A12784A434FF0E0235A61F6
:1002A00000229A6101221A6100BF4FF0E02210691A
:1002B00010F0010F02D010F4803FF6D000224FF072
:1002C000E0231A619A6170470000002002000020BC
:1002D00030B503460C464FF6FF71002212E0985CE1
:1002E000414000250AE011F0010F04D04AF201005C
:1002F00080EA610100E04910681CC5B2082DF2DBFC
:10030000501CC2B2A242EADB08B230BD70B5002474
:1003100000254C48B0F90040200A4B4948700C7049
:1003200008460178494801F0B4FE00BF80214748E3
:1003300001F01DFF0028F9D043484178434801F0FF
:10034000A8FE00BF8021414801F011FF0028F9D02C
:10035000C82420123C49C8700846847081783B4804
:1003600001F097FE00BF8021384801F000FF00280F
:10037000F9D03548C178354801F08BFE00BF8021A7
:10038000324801F0F4FE0028F9D04FF496742012A0
:100390002D4948710C71084601792C4801F079FE0D
:1003A00000BF8021294801F0E2FE0028F9D026484C
:1003B0004179264801F06DFE00BF8021234801F0FD
:1003C000D6FE0028F9D0002420121F49C871084623
:1003D000847181791D4801F05CFE00BF80211B48BB
:1003E00001F0C5FE0028F9D01748C179174801F07F
:1003F00050FE00BF8021154801F0B9FE0028F9D059
:1004000008211148FFF764FF0546280A0E49487283
:100410000D720846017A0D4801F03BFE00BF8021B5
:100420000A4801F0A4FE0028F9D00748417A07489D
:1004300001F02FFE00BF8021044801F098FE002843
:10044000F9D070BD100000204000002000380140AD
:1004500000B587B00121C80200F09CFD41F61F40A5
:10046000ADF81400C720ADF810000020ADF816005C
:10047000ADF8120004A9694800F0C8FE6020ADF88C
:1004800000000120ADF802004FF4FC70ADF806004A
:100490000020ADF808006946604800F0F4FE08212D
:1004A0005E4801F01BFB69465C4800F0BEFF082176
:1004B0005A4801F030FB0121584801F0DFFA0121D0
:1004C000564801F0D3F90121544801F0DBF907B097
:1004D00000BD10B588B004460121022000F067FD80
:1004E00040F28F10ADF8180040F60F60ADF8140020
:1004F0000020ADF81A00ADF8160005A9484800F034
:1005000085FE6020ADF804000120ADF806001C2037
:10051000ADF80A000020ADF80C00012C06D0022C2A
:100520000DD0032C14D0042C24D11AE001A93C488E
:1005300000F0A9FE08213A4801F0D0FA1BE001A919
:10054000374800F0E2FE0821354801F0D0FA00BF3C
:1005500001A9334800F022FF0821314801F0D2FA06
:1005600009E001A92E4800F060FF08212C4801F0A5
:10057000D2FA00BF00BF00BF0121294801F07EFA76
:100580000121274801F072F908B010BD00B587B00D
:100590000121082000F0FEFCC020ADF81800042066
:1005A0008DF81B0006A91F4800F040FA0121042025
:1005B00000F0FDFC1C4800F055FD03A91A4800F0AE
:1005C00025FE4FF6FF70ADF810000020ADF80C00CE
:1005D000ADF81200ADF80E0003A9134800F016FEA6
:1005E00000231A460321104801F001FA684601F081
:1005F0002BF90620ADF8080069460B4801F078F8A1
:100600000121094801F0EEFB002007492431088050
:100610000121054801F02AF907B000BD002C014076
:1006200000040040000C01400008004070B5044682
:100630000D46E1B2354801F02CFD00BF40213348A2
:1006400001F095FD0028F9D0204670BD00B585B0B9
:100650000121052000F09EFC0121880300F09AFC96
:100660004FF40070ADF8100018208DF8130003202F
:100670008DF8120004A9264800F0D8F94FF48060E4
:10068000ADF8100004208DF8130004A9204800F0F4
:10069000CDF94FF4165000900020ADF80400ADF8ED
:1006A0000600ADF80800ADF80C000C20ADF80A000B
:1006B0006946164801F0F1FB0121144801F079FC6C
:1006C000012240F22551114801F07FFC40210F48E2
:1006D00001F05AFD05B000BD08B500214FF00060E3
:1006E00000F080F84FF4C06000F044F825208DF849
:1006F000000000208DF8010001208DF802008DF827
:100700000300684600F03BF808BD000000380140D7
:100710000008014008B50121084600F03BFC01211A
:10072000042000F037FC18208DF8030003208DF81A
:1007300002004FF40060ADF8000069460B4800F07D
:1007400075F908BD10B5FFF7E5FF10BD10B50446FB
:100750000021074801F0DFF92146054801F01AFBA6
:100760000821034801F0D7F910BD0000000801403E
:10077000002C014031490143314A1160704770B586
:10078000002100230F22C4780CB32D4C246804F4FC
:10079000E064C4F5E064210AC1F10403CA4044786E
:1007A00004FA03F18478144021430901254C0678AA
:1007B000A155047804F01F050124AC4005786D11A3
:1007C0004FF0E02606EB8505C5F8004109E0047806
:1007D00004F01F050124AC401B4D0678761145F846
:1007E000264070BD194A0A400243154B1B1F1A6070
:1007F000704739B1124A121D12680243104B1B1D7B
:100800001A6006E00E4A121D126882430C4B1B1D33
:100810001A607047042808D14FF0E021096941F0BF
:1008200004014FF0E022116107E04FF0E021096977
:1008300021F004014FF0E022116170470000FA0539
:100840000CED00E000E400E080E100E080FFFF1F2D
:10085000002044490860091D0860091D0860091D41
:10086000086041483F4914310860704700213D4904
:100870008279002A3AD00A46126803689A430B46E6
:100880001A600A1D126803689A430B1D1A600279E8
:1008900011440A6803681A430A60324A083212682F
:1008A00003689A432F4B08331A601A1D12680368B5
:1008B0009A432C4B0C331A604279102A0ED11A1F1E
:1008C000126803681A43274B08331A601A1D12680E
:1008D00003681A43234B0C331A600DE02149427917
:1008E00011440A6803681A430A6005E0027911445A
:1008F0000A6803689A430A60704700210160017129
:100900000C2141710021817170471649103109682D
:100910000143144A10321160704701460020114A09
:10092000143212680A4201D0012000E00020704712
:100930000C49143108607047014600200022094B21
:100940001B6803EA0102074B14331B680B4202D0F9
:100950000AB1012000E0002070470249143108600C
:100960007047000000040140FFFF0F0010B504466F
:10097000CA48844208D10121042000F025FB00214F
:10098000042000F021FB46E0C548844208D1012143
:10099000082000F019FB0021082000F015FB3AE0C8
:1009A000C048844208D10121102000F00DFB002135
:1009B000102000F009FB2EE0BB48844208D1012141
:1009C000202000F001FB0021202000F0FDFA22E0B1
:1009D000B648844208D10121402000F0F5FA0021F8
:1009E000402000F0F1FA16E0B148844208D101211C
:1009F000802000F0E9FA0021802000F0E5FA0AE00A
:100A0000AC48844207D10121801500F0DDFA0021B5
:100A1000A01500F0D9FA10BD10B50121084600F06C
:100A2000D3FA0021012000F0CFFA10BD2DE9F041EA
:100A3000024600250026002000230024002791F80C
:100A400003C00CF00F0591F803C01CF0100F03D089
:100A500091F802C04CEA0505B1F800C01CF0FF0F88
:100A600031D0146800202BE04FF0010C0CFA00F399
:100A7000B1F800C00CEA03069E4220D183004FF07B
:100A80000F0C0CFA03F7BC4305FA03FC4CEA040410
:100A900091F803C0BCF1280F06D14FF0010C0CFAFD
:100AA00000FCC2F814C00AE091F803C0BCF1480F82
:100AB00005D14FF0010C0CFA00FCC2F810C0401C2C
:100AC0000828D1D31460B1F800C0BCF1FF0F34DDA9
:100AD000546800202EE000F1080C4FF0010808FADD
:100AE0000CF3B1F800C00CEA03069E4221D183004A
:100AF0004FF00F0C0CFA03F7BC4305FA03FC4CEA69
:100B0000040491F803C0BCF1280F05D100F1080CD2
:100B100008FA0CF8C2F8148091F803C0BCF1480F31
:100B200007D100F1080C4FF0010808FA0CF8C2F8E0
:100B30001080401C0828CED35460BDE8F0814FF6E9
:100B4000FF710180022181700421C170704702464B
:100B5000002093680B4201D0012000E00020704784
:100B60000146886880B2704702460020D3680B4275
:100B700001D0012000E0002070470146C86880B223
:100B8000704701617047416170470AB1016100E03F
:100B900041617047C16070474FF480320A438261FF
:100BA0008161826182698269704702460020424BFE
:100BB00018684FF68073184040EA021008433E4B15
:100BC000186070473D49C8617047F0B50A46002378
:100BD00000240021002500F00046B6F1004F02D1AC
:100BE000354EF16901E0344E7168C0F3034583B2BC
:100BF00000F44016B6F5401F08D121F070612E4E6A
:100C0000766826F070662C4F7E6012E000F4801645
:100C1000B6F5801F06D1032606FA05F4A14341F07C
:100C2000706106E0460D360103FA06F6B14341F065
:100C3000706122B1460D360103FA06F6314300F029
:100C40000046B6F1004F02D11B4EF16101E01A4E91
:100C50007160F0BD30B500228B071C0F0F2303FA23
:100C600004F2154B08338C1053F824309343124C84
:100C700008348D1044F8253023468C1053F8243066
:100C80008C07240F00FA04F423430B4C08348D1016
:100C900044F8253030BD0A4908607047000801401B
:100CA000000C0140001001400014014000180140F8
:100CB000001C0140002001400000014000002042D3
:100CC000DC002042DC48006840F00100DA4908609E
:100CD00008464068D9490840D74948600846006836
:100CE000D7490840D44908600846006820F48020AD
:100CF00008600846406820F4FE0048604FF41F007A
:100D000088607047CC49096821F48031CA4A116073
:100D10001146096821F480211160B0F5803F03D0AD
:100D2000B0F5802F0ED106E0C349096841F4803147
:100D3000C14A116007E0C049096841F4A021BE4AD8
:100D4000116000E000BF00BF704710B501460022EF
:100D5000002300204A11012A02D1B74C236806E083
:100D6000022A02D1B44C236A01E0B34C636A01F059
:100D70001F02012494401C4201D0012000E0002009
:100D800010BD70B500240025002600BF3120FFF7FC
:100D9000DCFF0646641CB4F5A06F01D0002EF5D030
:100DA0003120FFF7D2FF08B1012500E000252846D9
:100DB00070BD01460020A04A106820F0F80040EA0B
:100DC000C100106070479F490860704702460020CC
:100DD000994B586820F47C1042EA01031843964B63
:100DE0005860704797490866704701460020924A4C
:100DF000506820F003000843506070478E484068F8
:100E000000F00C007047014600208B4A506820F02B
:100E1000F00008435060704701460020864A506841
:100E200020F4E06008435060704701460020824A89
:100E3000506820F4605040EAC1005060704729B10A
:100E40007D4A527A02437C4B5A7206E07A4A527AC1
:100E5000C343DBB21A40784B5A7270477A49086034
:100E6000704701460020744A506820F4404008430F
:100E7000506070470021754A11706F4A82F8201047
:100E8000012802D0042808D103E001216F4A117023
:100E900004E005216D4A117000E000BF00BF7047FB
:100EA0006B49086070476449096A0143624A1162EC
:100EB0007047674944390860704730B50021002207
:100EC000002400235C4D6D6805F00C0121B104295C
:100ED00005D0082923D105E05E4D056022E05D4D77
:100EE00005601FE0544D6D6805F47012524D6D6839
:100EF00005F48034022505EB92421CB9564D55434A
:100F000005600BE04C4D6D6815F4003F03D0524D69
:100F10005543056002E04F4D5543056002E04D4DDD
:100F2000056000BF00BF444D6D6805F0F001090980
:100F30004A4D6B5C0568DD4045603F4D6D6805F4CA
:100F4000E061090A454D6B5C4568DD4085603A4DBE
:100F50006D6805F46051C90A404D6B5C4568DD4021
:100F6000C560354D6D6805F44041890B3C4D6B5CA7
:100F7000C568B5FBF3F5056130BD29B12E4A52694C
:100F800002432D4B5A6104E02B4A526982432A4B9B
:100F90005A61704729B1284A92690243264B9A61E7
:100FA00004E0254A92698243234B9A61704729B134
:100FB000214AD2690243204BDA6104E01E4AD26919
:100FC00082431D4BDA61704729B11B4AD268024344
:100FD000194BDA6004E0184AD2688243164BDA6093
:100FE000704729B1144A12690243134B1A6104E095
:100FF000114A12698243104B1A61704714494039F3
:10100000086070470F49C86470470B49C871704742
:101010000948406A40F080700749486270470146BD
:101020000020054A92680A4201D0012000E0002019
:101030007047014988727047001002400000FFF8B5
:10104000FFFFF6FE00004242D8004242201002405C
:101050008004424200127A0000093D001200002084
:101060002200002010B50446FE48844208D1012128
:10107000C014FFF7A9FF0021E014FFF7A5FFC4E0AB
:10108000B4F1804F08D101210846FFF7AAFF0021E3
:101090000120FFF7A6FFB8E0F348844208D1012100
:1010A0000220FFF79EFF00210220FFF79AFFACE02D
:1010B000EE48844208D101210420FFF792FF00216D
:1010C0000420FFF78EFFA0E0E948844208D1012107
:1010D0000820FFF786FF00210820FFF782FF94E039
:1010E000E448844208D101211020FFF77AFF002153
:1010F0001020FFF776FF88E0DF48844208D1012105
:101100002020FFF76EFF00212020FFF76AFF7CE020
:10111000DA48844208D101214014FFF755FF00212D
:101120006014FFF751FF70E0D548844209D10121D6
:10113000C804FFF749FF00214FF40020FFF744FFE8
:1011400063E0D048844209D101210805FFF73CFF44
:1011500000214FF48010FFF737FF56E0CA48844261
:1011600009D101214805FFF72FFF00214FF400109E
:10117000FFF72AFF49E0C548844208D101214020F9
:10118000FFF72FFF00214020FFF72BFF3DE0C04875
:10119000844208D101218020FFF723FF0021802015
:1011A000FFF71FFF31E0BB48844208D101218015C1
:1011B000FFF717FF0021A015FFF713FF25E0B64842
:1011C000844209D101210804FFF7FEFE00214FF4FB
:1011D0008030FFF7F9FE18E0B048844209D10121C0
:1011E0004804FFF7F1FE00214FF40030FFF7ECFE5A
:1011F0000BE0AB48844208D101218804FFF7E4FEEC
:1012000000214FF48020FFF7DFFE10BD002202888E
:10121000944B98420ED0994B98420BD0B0F1804F2E
:1012200008D0914B984205D0904B984202D0904BF9
:10123000984204D14FF68F731A404B881A438D4B56
:10124000984207D08C4B984204D04FF6FF431A4087
:10125000CB881A4302808B8883850B880385814B5A
:1012600098420BD0854B984208D08B4B984205D0C2
:101270008A4B984202D08A4B984201D10B7A03865E
:1012800001238382704770B5002400220023058C5F
:101290004FF6FE7635400584028C8388048B4FF62A
:1012A0008F752C40B51E2C400D882C43751E2A408E
:1012B0000D892A434D882A436A4DA8420BD06F4DB1
:1012C000A84208D0744DA84205D0744DA84202D05F
:1012D000734DA84213D14FF6F7752A404D892A4322
:1012E0004FF6FB752A408D882A434FF6FF652B4049
:1012F0004FF6FF552B408D892B43CD892B4383809F
:101300000483CD888586028470BD70B500240022D8
:101310000023058C4FF6EF7635400584028C8388D8
:10132000048B48F6FF752C404FF6FF452C400D8886
:101330002D0644EA15444FF6DF752A400D892D0528
:1013400042EA15424D882D0542EA1542454DA84214
:1013500002D04A4DA8421BD14FF67F752A404D89D5
:101360002D0542EA15424FF6BF752A408D882D059E
:1013700042EA15424FF6FF352B404FF2FF752B40E6
:101380008D89AD0443EA1543CD89AD0443EA154385
:1013900083800483CD880587028470BD70B50024E6
:1013A00000220023058C4FF6FF6635400584028C31
:1013B0008388848B4FF68F752C404FF6FC752C403C
:1013C0000D882C434FF6FF552A400D892D0642EA21
:1013D00015424D882D0642EA1542224DA84202D000
:1013E000264DA8421BD14FF2FF752A404D892D068C
:1013F00042EA15424FF6FF352A408D882D0642EA13
:1014000015424EF6FF752B404DF6FF752B408D892A
:101410002D0543EA1543CD892D0543EA1543838005
:101420008483CD888587028470BD70B50022002337
:101430000024058C4EF6FF7635400584038C8488A5
:10144000828B48F6FF752A404FF6FF452A400D88EB
:101450002D0642EA15424DF6FF752B400D892D07EA
:1014600020E00000002C0140000400400008004083
:10147000000C004000100040001400400034014007
:10148000004C014000500140005401400018004051
:10149000001C00400020004000400140004401408A
:1014A0000048014043EA15434D882D0743EA1543A0
:1014B000F84DA84202D0F84DA84206D14BF6FF7570
:1014C0002C408D89AD0544EA154484808283CD8803
:1014D000A0F84050038470BD828B4FF2FF331A4056
:1014E0008283828B0B0642EA134282837047F0B5F7
:1014F0000C461546002200210026078C4EF6FF7C84
:1015000007EA0C070784828B018C27073E0C40F604
:10151000FF473A402F0642EA17421F0742EA1742A6
:10152000DC4FB8420ED0DC4FB8420BD0B0F1804F48
:1015300008D0DA4FB84205D0D94FB84202D0D94FBF
:10154000B84206D14DF6FF77394046F4805739430B
:1015500005E047F6FF57394044F48057394382830A
:101560000184F0BD828B4FF6F3731A408283828B25
:101570000A4382837047F0B50C46154600220021CD
:101580000026078C4FF6FF6C07EA0C070784828B56
:10159000018C27063E0C4FF60C773A401F0545EAB2
:1015A00017473A43BB4FB8420ED0BB4FB8420BD09F
:1015B000B0F1804F08D0B94FB84205D0B84FB8420B
:1015C00002D0B84FB84206D14FF6FF57394046F423
:1015D0008077394305E04FF2FF57394044F4807774
:1015E000394382830184F0BD028B4FF2FF331A40EE
:1015F0000283028B0B0642EA134202837047F0B566
:101600000C461546002200210026078C4FF6EF7C81
:1016100007EA0C070784028B018C27053E0C40F675
:10162000FF473A401F0742EA17422F0642EA174295
:10163000984FB8420ED0984FB8420BD0B0F1804FBF
:1016400008D0964FB84205D0954FB84202D0954F7A
:10165000B84206D14FF6DF77394046F010073943DC
:1016600005E04FF65F77394044F0100739430283B5
:101670000184F0BD028B4FF6F3731A400283028B94
:101680000A4302837047F0B50C461546002200213C
:10169000068C4FF6FE773E400684028B018C4FF697
:1016A0000C7632401E0545EA16463243794EB0426A
:1016B0000ED0794EB0420BD0B0F1804F08D0774EAB
:1016C000B04205D0764EB04202D0764EB04206D13E
:1016D0004FF6FD76314044F00106314305E04FF608
:1016E000F576314044F00106314302830184F0BDB8
:1016F00070B505460C46674885420ED0664885425F
:101700000BD0B5F1804F08D06448854205D06448BD
:10171000854202D06348854200D100E000BF2088A6
:1017200050B92389A28861882846FFF7ACFFE18879
:101730002846FFF79FFF25E0208804280AD1238947
:10174000A28861882846FFF75AFFE1882846FFF7FC
:101750004BFF17E0208808280AD12389A2886188D6
:101760002846FFF708FFE1882846FFF7FBFE09E05F
:101770002389A28861882846FFF7B9FEE1882846B8
:10178000FFF7AAFE70BD2DE9F04105460C46002684
:101790000127608808B9022600E00026A0880128F9
:1017A00001D1022700E001272088A0B92389A2885F
:1017B00061882846FFF767FFE1882846FFF75AFF50
:1017C00023893A4631462846FFF719FFE188284623
:1017D000FFF70AFF13E02389A28861882846FFF7F4
:1017E0000EFFE1882846FFF7FFFE23893A4631467F
:1017F0002846FFF748FFE1882846FFF73BFFBDE892
:10180000F0810A884B881A438B881A43CB881A4385
:101810000B891A434B891A438B891A43A0F8442039
:1018200070474FF6FF71818000210180C1804180A7
:10183000017270470021018041808180C180018157
:1018400041818181C1817047002101804180012156
:1018500081800021C1800181704700210180418089
:101860008180C180018141818181704721B10288DD
:1018700042F00102028004E002884FF6FE731A4033
:101880000280704781B1B0F8442042F40042A0F8D1
:1018900044200FE0002C01400034014000040040CF
:1018A00000080040000C0040B0F84420C2F30E02D3
:1018B000A0F84420704710B51AB183890B43838187
:1018C00004E08389CC43A4B22340838110BD81828C
:1018D000704741EA0203A0F84830704710B51AB1CA
:1018E00083890B43838104E08389CC43A4B22340E2
:1018F000838110BD01894FF6F87211400181704754
:101900000A46002101894FF68F7319401143018166
:10191000704730B504460D4629462046FFF7F0FFD4
:10192000208940F00700208130BD2DE9F0410446B8
:101930000D4616461F46602D06D13B460122314614
:101940002046FFF75CFE05E03B460122314620467B
:10195000FFF799FE29462046FFF7D2FF208940F085
:1019600007002081BDE8F08130B50C4600210189D7
:10197000C9B21D0642EA154525432943018130BD00
:101980002DE9F04105460E46174698460024434689
:101990003A4631462846FFF7E7FF2C894FF6F870A4
:1019A000044044F007044FF68F70044044F0700484
:1019B0002C81BDE8F081F0B504460D4616461F4661
:1019C0003B46324629462046FFF7CEFF208940F4A9
:1019D00080402081F0BD0185828270470A46002147
:1019E00001884FF68F731940114301807047F0B59D
:1019F0000C4615461E460021002200230189028B59
:101A0000038C4FF6F877394021434FF6FC473A40B4
:101A100040F201173A434FF6DD773B40370545EA80
:101A200017473B43018102830384F0BD0A4600212E
:101A3000018B4FF68F7319401143018370470A469B
:101A40000021018B48F6FF731940130641EA134148
:101A5000018370470A460021818B4FF68F7319402E
:101A60001143818370470A460021818B48F6FF733A
:101A70001940130641EA13418183704721B102885E
:101A800042F08002028004E002884FF67F731A4021
:101A90000280704721B1828842F00402828004E013
:101AA00082884FF6FB731A408280704721B182888A
:101AB00042F00802828004E082884FF6F7731A40F1
:101AC0008280704721B1828842F00102828004E066
:101AD00082884FF6FE731A40828070470A460021C2
:101AE000018B4FF6F77319401143018370470A4683
:101AF0000021018B4FF2FF731940130641EA134195
:101B0000018370470A460021818B4FF6F773194015
:101B10001143818370470A460021818B4FF2FF7386
:101B20001940130641EA1341818370470A46002198
:101B3000018B4FF6FB7319401143018370470A462E
:101B40000021018B4FF6FF331940130641EA134180
:101B5000018370470A460021818B4FF6FB731940C1
:101B60001143818370470A460021818B4FF6FF3372
:101B70001940130641EA1341818370470A46002148
:101B8000018B4FF67F7319401143018370470A465A
:101B90000021018BC1F30E01130641EA13410183B9
:101BA00070470A460021818B4FF67F73194011431D
:101BB000818370470A460021818BC1F30E01130611
:101BC00041EA1341818370470A460021018C4FF698
:101BD000FD7319401143018470470A460021018CAE
:101BE0004FF6F77319401143018470470A460021EC
:101BF000018C4FF6DF731940130541EA134101844C
:101C000070470A460021018C4FF67F731940130577
:101C100041EA1341018470470A460021018C4FF6C6
:101C2000FF531940130641EA1341018470470A46E5
:101C30000021018C4FF2FF731940130641EA134152
:101C4000018470470A460021018C4DF6FF7319404C
:101C5000130741EA13410184704730B50023012482
:101C60008C40A3B2048CDD43ADB22C400484048CC0
:101C700002FA01F5ADB22C43048430BD30B5002327
:101C800004248C40A3B2048CDD43ADB22C40048408
:101C9000048C02FA01F5ADB22C43048430BD70B55A
:101CA0000346002000241846183001258D40ACB2B0
:101CB0001D8CE643B6B235401D8409B1082909D10F
:101CC00000EB6100056825F07005056005681543A7
:101CD00005600CE00D1FADB200EB6500056825F452
:101CE000E04505600568160645EA1645056070BDC5
:101CF00021B1028842F00202028004E002884FF61D
:101D0000FD731A400280704721B1028842F004023C
:101D1000028004E002884FF6FB731A40028070478D
:101D200021B1828842F08002828004E082884FF6EE
:101D30007F731A408280704702884FF6F7731A400B
:101D4000028002880A430280704782884FF68F73B0
:101D50001A40828082880A438280704702894FF647
:101D6000F8731A40028102890A430281704702898E
:101D70004FF67F731A40028102890A43028170473D
:101D800081847047818570478186704701877047DD
:101D900081877047A0F84010704702884FF6FF43D4
:101DA0001A40028002880A43028070470146888EEA
:101DB00070470146088F70470146888F704701467B
:101DC000B1F8400070470146888C70470146088D85
:101DD000704702460020138A0B4201D0012000E028
:101DE00000207047CA430282704730B50246002087
:101DF00000230024158A05EA0103958905EA0104F8
:101E000013B10CB1012000E0002030BDCA430282B2
:101E10007047000010B50446FC48844209D10121F6
:101E20008803FFF7D1F800214FF48040FFF7CCF88A
:101E300032E0F748844209D101214804FFF7D1F884
:101E400000214FF40030FFF7CCF825E0F148844240
:101E500009D101218804FFF7C4F800214FF4802044
:101E6000FFF7BFF818E0EC48844209D10121C8040B
:101E7000FFF7B7F800214FF40020FFF7B2F80BE0AE
:101E8000E648844208D101210805FFF7AAF800219D
:101E90004FF48010FFF7A5F810BD2DE9F04786B08C
:101EA00005460E460024A24600BFA1460027B08981
:101EB00000B100BF2F462C8A4CF6FF700440F0881A
:101EC00004432C82AC894EF6F3100440B08831896B
:101ED0000843718908430443AC81AC8A4FF6FF4044
:101EE0000440B0890443AC8201A8FEF7E6FFC7486E
:101EF000874202D1DDF810A001E0DDF80CA0A8892E
:101F000010F4004F08D00AEBCA0000EB0A10316849
:101F10004900B0FBF1F807E00AEBCA0000EB0A1039
:101F200031688900B0FBF1F86420B8FBF0F00401DF
:101F30002009642101FB1089A88910F4004F08D002
:101F4000322000EBC900B0FBF1F000F007000443C1
:101F500008E0322000EB09106421B0FBF1F000F042
:101F60000F0004432C8106B0BDE8F0874FF41651F2
:101F7000016000218180C18001810C21418100210B
:101F80008181704710B502460020108A4FF2FF038E
:101F900018400B884C8823438C882343CC882343E8
:101FA0001843108210BD0021018041808180C180D2
:101FB000704721B1828942F40052828104E0828913
:101FC0004DF6FF731A4082817047F0B50346002436
:101FD000002600250020A1F510676A3F00D100BF50
:101FE0001846C1F3421401F01F06012707FA06F54F
:101FF000012C01D10C3004E0022C01D1103000E0A2
:1020000014301AB107682F43076002E00768AF4336
:102010000760F0BD10B51AB1838A0B43838204E0D8
:10202000838ACC43A4B22340838210BD028A4FF638
:10203000F0731A400282028A0A4302827047828940
:102040004FF2FF731A40828182890A43828170476E
:1020500021B1828942F00202828104E082894FF636
:10206000FD731A4082817047028A4FF6DF731A406F
:102070000282028A0A430282704721B1028A42F434
:102080008042028204E0028A4BF6FF731A40028209
:102090007047C1F308028280704701468888C0F308
:1020A00008007047818941F0010181817047028BEE
:1020B000D2B20283028B42EA012202837047028B72
:1020C00002F47F420283028B0A430283704721B1EC
:1020D000828A42F02002828204E0828A4FF6DF7315
:1020E0001A408282704721B1828A42F010028282B5
:1020F00004E0828A4FF6EF731A408282704721B162
:10210000828A42F00802828204E0828A4FF6F773E4
:102110001A408282704721B1828942F40042828152
:1021200003E08289C2F30E028281704721B1828A64
:1021300042F40062828204E0828A4FF2FF731A4006
:1021400082827047828A4FF6FB731A408282828AAB
:102150000A438282704721B1828A42F0020282825F
:1021600004E0828A4FF6FD731A408282704702466D
:102170000020B1F5007F00D100BF13880B4201D0D1
:10218000012000E00020704701F40072B2F5007FEA
:1021900000D100BFCA430280704770B502460024D8
:1021A000002300250020A1F510666A3E00D100BF83
:1021B000C1F3421501F01F03012606FA03F3012DB6
:1021C00002D19689334006E0022D02D1168A3340AF
:1021D00001E0968A33400C12012606FA04F41688B0
:1021E000344013B10CB1012000E0002070BD10B5E7
:1021F00000220023A1F510646A3C00D100BF0A123E
:1022000001249440A3B2DC43048010BD0038014097
:102210000044004000480040004C00400050004096
:1022200000210020674A126842F48032654B1A6030
:1022300000BF644A126802F40030491C10B9B1F5BD
:10224000A06FF6D15F4A126812F4003F01D001205E
:1022500000E00020012842D15B4A126842F01002DF
:10226000594B1A601A46126822F003021A601A4685
:10227000126842F002021A60524A5268514B5A6088
:102280001A4652685A601A46526842F480625A608E
:102290001A46526822F47C125A601A46526842F476
:1022A000E8125A601A46126842F080721A6000BF43
:1022B000444A126812F0007FFAD0424A526822F073
:1022C0000302404B5A601A46526842F002025A60BA
:1022D00000BF3C4A526802F00C02082AF9D170474C
:1022E00010B5FFF79DFF10BD10B53648006840F0EF
:1022F00001003449086008464068344908403149C3
:10230000486008460068324908402E49086008467F
:10231000006820F4802008600846406820F4FE0031
:1023200048604FF41F008860FFF7DAFF4FF000604D
:102330002849086010BD10B5002100200022214B63
:102340005B6803F00C0121B1042906D0082928D1CB
:1023500007E0214B214C236027E01F4B1F4C2360DB
:1023600023E0184B5B6803F47010164B5B6803F4B2
:102370008032022303EB904022B9194B4343174CA0
:1023800023600DE00F4B5B6813F4003F04D0144B47
:102390004343124C236003E00F4B43430F4C236035
:1023A00003E00D4B0D4C236000BF00BF054B5B6885
:1023B000C3F303130B4CE15C084B1B68CB40074C89
:1023C000236010BD00100240002002400000FFF812
:1023D000FFFFF6FE08ED00E000127A002800002062
:1023E00000093D002C0000200648804706480047B1
:1023F000FEE7FEE7FEE7FEE7FEE7FEE7FEE7FEE7B5
:10240000FEE7FEE7E9220008ED000008064C074D54
:1024100006E0E06840F0010394E8070098471034B4
:10242000AC42F6D3FDF766FE80240008A024000825
:10243000014A024900F013B82D0600083C000020B4
:1024400002E008C8121F08C1002AFAD1704770477D
:10245000002001E001C1121F002AFBD170472DE9C5
:10246000F04104460F461646002503E03946B047C2
:102470006D1C641C20780028F8D12846BDE8F08146
:10248000A0240008000000204000000040240008B4
:10249000E024000840000020100400005024000840
:1024A000000000004260E53B3480373A0000000045
:1024B00000000000000001020304010203040607FB
:1024C000080902040608000000A24A0400000000F7
:1024D00000000000010203040607080900000000D4
:04000005080000ED02
:00000001FF
