:020000040800F2
:10000000C01D0020C122000875010008770100080A
:100010007B0100087F010008830100080000000048
:100020000000000000000000000000008701000840
:1000300089010008000000008B0100088D01000804
:10004000DB220008DB220008DB220008DB2200089C
:10005000DB220008DB220008EB010008DB2200089D
:10006000DB220008DB220008AB020008DB220008CC
:10007000DB220008DB220008DB220008DB2200086C
:10008000DB220008DB220008DB220008DB2200085C
:10009000DB220008DB220008DB220008DB2200084C
:1000A000DB220008DB220008DB220008DB2200083C
:1000B000DB220008DB220008DB220008DB2200082C
:1000C000DB220008DB220008DB220008DB2200081C
:1000D000DB220008BD020008DB220008DB2200084A
:1000E0008F010008DB220008DB220008DFF80CD0BB
:1000F00002F0F8F80048004765010008C01D002024
:100100004FF48071154801F080FB4FF400711348E3
:1001100001F07BFB12E01248007802280ED100208B
:1001200000F030F900F060FF01F0F2F801F0FBF8A8
:1001300000200B490870012000F024F9EBE710B50E
:1001400002F03EF800F0F2F800F068F900F0ACF9C7
:10015000482000F09DFB00F03CFF10BD000C01406A
:100160000800002010B5FFF7EAFFFFF7C9FF0020E5
:1001700010BD0000704700BFFEE700BFFEE700BFF4
:10018000FEE700BFFEE7704770477047704710B545
:100190004FF4806001F00AFA80B14FF4807150484A
:1001A00001F033FB4FF400714D4801F02EFB4DA0E0
:1001B00002F0AAF84FF4806001F009FA4FF40060F1
:1001C00001F0F4F980B14FF48071454801F01BFB58
:1001D0004FF40071424801F016FB46A002F094F87B
:1001E0004FF4006001F0F3F910BD10B5012001F0EB
:1001F000DDF9F0B34348007810B1012850D11BE07D
:100200004FF48071404801F0FEFA4FF480713E488F
:1002100001F0FBFA4FF4FA7000F06DFB4FF48071BF
:10022000394801F0F0FA4FF480412D4801F0EBFA23
:1002300001203449087033E04FF48041284801F030
:10024000E4FA4FF40071304801F0DFFA4FF4005146
:10025000234801F0DAFA4FF40051214801F0D3FAB3
:100260004FF400511E4801F0D0FA4FF400511C48E1
:1002700000E019E001F0C7FA4FF40071224801F0E4
:10028000C2FA012000F01AFB4FF40041144801F0BB
:10029000BCFA02201B49087000201C49088000BFDE
:1002A00000BF012001F093F910BD10B5102001F03E
:1002B0007DF910B1102001F08AF910BD10B540F29F
:1002C0002551134801F0D5FE012807D1104801F04F
:1002D00050FEC4B221460FA002F016F810BD000077
:1002E000000C0140B0B4BCFC203120D6D0B6CF0AFF
:1002F00000000000B0B4BCFC203220D6D0B6CF0A3B
:100300000000000008000020001001400A0000204A
:1003100000380140BDD3CAD5B5BDC9CFCEBBBBFAED
:10032000CAFDBEDD2025630A0000000008B50121DA
:10033000082001F070FC0121082001F06CFC102065
:100340008DF8030003208DF802004FF48070ADF8A3
:10035000000069460A4801F0ABF94FF40070ADF8AF
:1003600000006946064801F0A3F94FF48071044883
:1003700001F049FA4FF40071014801F044FA08BD58
:10038000000C01401FB504460121052001F043FC8B
:100390004FF4C06001F012F806208DF80C00012027
:1003A0008DF80D008DF80E008DF80F0003A801F0F8
:1003B0000AF80021084601F08FFA00208DF80800A5
:1003C0000C208DF80900012C03D101208DF80A00C2
:1003D00002E000208DF80A000120019001A801F040
:1003E00078F81120ADF8000048208DF80300694628
:1003F000014801F05DF91FBD0008014070B50446D9
:100400000D46E1B2354801F0B0FD00BF4021334850
:1004100001F019FE0028F9D0204670BD00B585B066
:100420000121052001F0F7FB0121880301F0F3FB16
:100430004FF40070ADF8100018208DF81300032061
:100440008DF8120004A9264801F032F94FF48060BB
:10045000ADF8100004208DF8130004A9204801F025
:1004600027F94FF4165000900020ADF80400ADF8C5
:100470000600ADF80800ADF80C000C20ADF80A003D
:100480006946164801F075FC0121144801F0FDFC95
:10049000012240F22551114801F003FD40210F488F
:1004A00001F0DEFD05B000BD08B500214FF0006091
:1004B00000F0C4FF4FF4E06000F080FF25208DF8CD
:1004C000000000208DF8010001208DF802008DF859
:1004D0000300684600F077FF08BD000000380140C7
:1004E0000008014008B503208DF8020014208DF8A3
:1004F00003000121082001F08EFB4FF40060ADF8ED
:1005000000006946D14801F0D3F80121082001F02C
:1005100082FB4FF48060ADF800006946CB4801F0E3
:10052000C7F84FF48061C94801F06DF94FF40061DC
:10053000C64801F068F908BD10B54FF40061C34822
:1005400001F061F9642000F0D6F94FF48061BF48F2
:1005500001F059F9642000F0CEF94FF40061BB4876
:1005600001F053F9642000F0C6F94FF48061B748F8
:1005700001F04BF9642000F0BEF910BD10B54FF446
:100580000061B24801F041F9642000F0B4F94FF481
:100590008061AE4801F037F9642000F0ACF94FF407
:1005A0000061AA4801F02FF9642000F0A4F910BD01
:1005B00070B504464FF48061A44801F026F9002587
:1005C0002BE014F0800F05D04FF400619F4801F03C
:1005D0001AF904E04FF400619C4801F016F9600636
:1005E000040E642000F087F94FF48061974801F011
:1005F0000AF9642000F07FF94FF48061934801F01C
:1006000004F9642000F077F9072D04D14FF400615C
:100610008E4801F0F8F8681CC5B2082DD1DB70BD1A
:1006200070B500244FF48061884801F0EEF8002591
:100630001BE06006040E4FF48061844801F0E3F88B
:10064000642000F058F94FF40061804801F0C1F8CF
:1006500008B1601CC4B24FF480617C4801F0D5F849
:10066000642000F048F9681CC5B2082DE1DB204683
:1006700070BD10B500244FF48061744801F0C5F8D6
:100680004FF40061714801F0BEF84FF480616F488B
:1006900001F0B9F8642000F02EF94FF400616B48C6
:1006A00001F097F808B1012400E000244FF48061C4
:1006B000664801F0AAF8642000F01DF9204610BD3C
:1006C00010B54FF48061614801F09FF80A2000F0F6
:1006D00012F94FF400615D4801F097F80A2000F02C
:1006E0000AF94FF48061594801F08DF80A2000F0B2
:1006F00002F94FF48061554801F087F80A2000F0B4
:10070000FAF810BD10B54FF40061504801F07BF8C5
:10071000642000F0F0F84FF480614C4801F073F869
:10072000642000F0E8F84FF48061484801F06DF86B
:10073000642000F0E0F84FF40061444801F063F8F1
:10074000642000F0D8F810BD70B504460D46FFF7E0
:10075000F3FE642000F0CFF84220FFF729FFFFF7F7
:1007600088FF012806D1FFF709FF39A001F0CCFD71
:10077000002070BD052000F0BEF8E0B2FFF718FFC2
:10078000FFF777FF012806D1FFF7F8FE34A001F04C
:10079000BBFD0020EDE72846FFF70AFFFFF769FFE2
:1007A000012806D1FFF7EAFE32A001F0ADFD0020DE
:1007B000DFE7FFF7E3FE0120DBE770B50446FFF754
:1007C000BBFE642000F097F84220FFF7F1FEFFF730
:1007D00050FF012806D1FFF7D1FE1DA001F094FDC6
:1007E000002070BD052000F086F82046FFF7E0FEEF
:1007F000FFF73FFF012806D1FFF7C0FE18A001F068
:1008000083FD0020EDE7FFF7B9FE4FF4FA7000F02A
:1008100072F8FFF791FE4320FFF7CAFEFFF729FFAA
:10082000012806D1FFF7AAFE17A001F06DFD0020F8
:10083000D7E7642000F05FF8FFF7F2FE0546FFF708
:1008400061FFFFF79BFE2846CBE70000000C01404C
:10085000C6F7BCFEC3BBD3D0D3A6B4F00A000000D9
:10086000D0B4BCC4B4E6C6F7B5D8D6B7CAA7B0DC16
:100870000A000000D0B4BCC4B4E6C6F7C4DAC8DDD0
:10088000CAA7B0DC0A000000B6C1CAA7B0DC0A00E3
:100890004FF0E021096921F004014FF0E0221161DD
:1008A000C21700EB5272D2101F4B1A70194609780A
:1008B0004FF47A7251431D4A118070471B490988D1
:1008C00041434FF0E02251611146096941F00101B5
:1008D000116100BF4FF0E021096911F4803FF9D0A8
:1008E0004FF0E021096921F001014FF0E022116190
:1008F0000021916170470C49097841434FF0E02293
:1009000051611146096941F00101116100BF4FF0C9
:10091000E021096911F4803FF9D000214FF0E02275
:10092000116191617047000000000020020000206A
:1009300038B505460C4648208DF80300ADF8004058
:100940000121042001F067F90121082001F063F979
:100950000121102001F05FF96946284600F0A8FE49
:1009600038BD38B505460C4610208DF8030003202D
:100970008DF80200ADF800400121042001F04BF990
:100980000121082001F047F90121102001F043F96D
:100990006946284600F08CFE38BD000010B50121E4
:1009A000FF48FFF7C5FF0221FD48FFF7C1FF042103
:1009B000FB48FFF7BDFF0821F948FFF7B9FF1021F9
:1009C000F748FFF7B5FF2021F548FFF7B1FF4021B9
:1009D000F348FFF7ADFF8021F148FFF7A9FF4FF47F
:1009E0008051F048FFF7BDFF4FF48051EE48FFF70C
:1009F000B8FF4FF40051EC48FFF7B3FF4FF400414C
:100A0000E948FFF7AEFF4FF40071E548FFF7A9FF93
:100A10004FF48041E448FFF7A4FF4FF48071E048B1
:100A2000FFF79FFF4FF48051DD48FFF79AFF10BD9D
:100A300010B54FF48051DB4800F0E7FE4FF48051D1
:100A4000D94800F0E2FE1420FFF738FF4FF4805140
:100A5000D54800F0D8FE80211220FFF775FE042152
:100A60003A20FFF771FED0214020FFF76DFE1421E0
:100A70001220FFF769FE80213220FFF765FE162164
:100A80001720FFF761FE04211820FFF75DFE022109
:100A90001920FFF759FE7B211A20FFF755FE06218A
:100AA0000320FFF751FE00210C20FFF74DFE00212F
:100AB0003E20FFF749FE3A217020FFF745FE352121
:100AC0007120FFF741FE11217220FFF73DFE00214A
:100AD0007320FFF739FE0221A220FFF735FE8121A6
:100AE0001120FFF731FE20217A20FFF72DFE1C2177
:100AF0007B20FFF729FE28217C20FFF725FE3C21E3
:100B00007D20FFF721FE55217E20FFF71DFE682185
:100B10007F20FFF719FE76218020FFF715FE802148
:100B20008120FFF711FE88218220FFF70DFE8F2123
:100B30008320FFF709FE96218420FFF705FEA321FD
:100B40008520FFF701FEAF218620FFF7FDFDC421C0
:100B50008720FFF7F9FDD7218820FFF7F5FDE82171
:100B60008920FFF7F1FDE0211320FFF7EDFD0021C3
:100B70000846FFF7E9FD00211020FFF7E5FD002101
:100B80000D20FFF7E1FD28211420FFF7DDFD0521F1
:100B9000A520FFF7D9FD0721AB20FFF7D5FD752173
:100BA0002420FFF7D1FD63212520FFF7CDFDA521EE
:100BB0002620FFF7C9FD78219F20FFF7C5FD68219A
:100BC000A020FFF7C1FD0321A120FFF7BDFDDF211C
:100BD000A620FFF7B9FDDF21A720FFF7B5FDF02123
:100BE000A820FFF7B1FD9021A920FFF7ADFD9421CA
:100BF000AA20FFF7A9FDE5211320FFF7A5FD61213C
:100C00000E20FFF7A1FD4B210F20FFF79DFD0221D4
:100C10001620FFF799FD37211E20FFF795FD0221D1
:100C20002120FFF791FD91212220FFF78DFD072163
:100C30002920FFF789FD0B213320FFF785FD0B21CC
:100C40003520FFF781FD1D213720FFF77DFD712144
:100C50003820FFF779FD2A213920FFF775FD78212B
:100C60003C20FFF771FD40214D20FFF76DFD202155
:100C70004E20FFF769FD00216920FFF765FD602127
:100C80006B20FFF761FD19217420FFF75DFD4F21F7
:100C90008D20FFF759FD00218E20FFF755FD002123
:100CA0008F20FFF751FD00219020FFF74DFD00211F
:100CB0009120FFF749FD00219220FFF745FD00211B
:100CC0009620FFF741FD80219A20FFF73DFD84210A
:100CD000B020FFF739FD0C21B120FFF735FD0E21C3
:100CE000B220FFF731FD8221B320FFF72DFD0A214D
:100CF000B820FFF729FD14214320FFF725FDF0213F
:100D00004420FFF721FD34214520FFF71DFD582128
:100D10004620FFF719FD28214720FFF715FD3A214E
:100D20004820FFF711FD88215920FFF70DFD88218C
:100D30005A20FFF709FD44215B20FFF705FD6721DD
:100D40005C20FFF701FD49215D20FFF7FDFC0E212E
:100D50005E20FFF7F9FC04216420FFF7F5FC202159
:100D60006520FFF7F1FC05216620FFF7EDFC04216B
:100D70009420FFF7E9FC08219520FFF7E5FC0A2104
:100D80006C20FFF7E1FC55216D20FFF7DDFC112100
:100D90006E20FFF7D9FC9F216F20FFF7D5FC05E0FF
:100DA0000010014000080140000C014040216A2071
:100DB000FFF7CAFC40210120FFF7C6FC40210220BA
:100DC000FFF7C2FCE7211320FFF7BEFC002115202E
:100DD000FFF7BAFC80214F20FFF7B6FC802150209E
:100DE000FFF7B2FC00215120FFF7AEFC2221522078
:100DF000FFF7AAFC5E215320FFF7A6FC80215420B8
:100E0000FFF7A2FC9E215820FFF79EFC08214120FD
:100E1000FFF79AFC00213F20FFF796FC0521752083
:100E2000FFF792FCE1217620FFF78EFC00214C2099
:100E3000FFF78AFC01217720FFF786FCC2213D20C5
:100E4000FFF782FC09214B20FFF77EFC6021C920BF
:100E5000FFF77AFC38214120FFF776FC402156202D
:100E6000FFF772FC11213420FFF76EFC02213B20BA
:100E7000FFF76AFC8921A420FFF766FC0021962079
:100E8000FFF762FC30219720FFF75EFC20219820BD
:100E9000FFF75AFC30219920FFF756FC84219A2055
:100EA000FFF752FC29219B20FFF74EFC03219C20D9
:100EB000FFF74AFC4C219D20FFF746FC3F219E2076
:100EC000FFF742FC04217820FFF73EFC0121792046
:100ED000FFF73AFCF021C820FFF736FC0F217920FC
:100EE000FFF732FC0021C820FFF72EFC10217920EB
:100EF000FFF72AFC7E21C820FFF726FC0A21792073
:100F0000FFF722FC8021C820FFF71EFC0B2179206F
:100F1000FFF71AFC0121C820FFF716FC0C217920ED
:100F2000FFF712FC0F21C820FFF70EFC0D217920DE
:100F3000FFF70AFC2021C820FFF706FC09217920D1
:100F4000FFF702FC8021C820FFF7FEFB0221792079
:100F5000FFF7FAFBC021C820FFF7F6FB0321792039
:100F6000FFF7F2FB4021C820FFF7EEFB05217920B7
:100F7000FFF7EAFB3021C820FFF7E6FB26217920A6
:100F8000FFF7E2FB00210920FFF7DEFB1021122012
:100F9000FFF7DAFB14213A20FFF7D6FB80213D2032
:100FA000FFF7D2FB11216720FFF7CEFBFF2168205E
:100FB000FFF7CAFBC0214020FFF7C6FB4FF480714A
:100FC000634800F022FC4FF40071614800F01DFC02
:100FD00010BD10B5FFF786FAFFF7E0FCFFF728FD1C
:100FE0000120FFF7CFF910BD2DE9F041002674E094
:100FF000062096FBF0F100FB116001284AD1002485
:101000003FE0A02C3BDA4FF40051514800F0FDFBCB
:101010004FF400514E4800F0F6FB4E488068C5B2D0
:101020004FF400514A4800F0F0FB4FF4005148489B
:1010300000F0E9FB47488068C7B24FF400514448CC
:1010400000F0E3FB4FF40051414800F0DCFB414865
:101050008068C7B24FF400513D4800F0D6FB4FF412
:1010600000513B4800F0CFFB3A488068C7B23A488D
:10107000008800EB8000394901EB40100555601CE9
:1010800084B2B4F5A07FBCDB33480088401C3249F1
:10109000088020E000241BE04FF400512C4800F0B1
:1010A000B4FB4FF400512A4800F0ADFB294880689A
:1010B000C7B24FF40051264800F0A7FB4FF400518F
:1010C000234800F0A0FB23488068C7B2601C84B2AC
:1010D000B4F5A07FE0DB701C86B2F02E88DB4FF405
:1010E00000411B4800F08FFBBDE8F08170B5402146
:1010F0001B4800F0B5FFFF21194800F036FF00BF84
:101100004021174800F09FFF0028F9D000241BE081
:10111000002515E04021124800F0A2FF04EB8400F6
:101120000E4A02EB4010415D0D4800F01EFF00BF6B
:1011300040210B4800F087FF0028F9D0681CC5B299
:10114000A02DE7DB601CC4B2282CE1DB70BD0000E1
:10115000000C0140001001400A000020980000200F
:101160000038014010B5002100220020894B18688A
:1011700008E00378822B02DDF423037001E00023F2
:101180000370401C834B1B6803F5C8539842F0D989
:10119000002122E001EB81037E4C246804EB431321
:1011A000581C002216E010F8013CF42B06D10378FD
:1011B00023B94378F42B01D1037009E010F8013C06
:1011C00033B90378F42B03D143780BB900230370B0
:1011D000521C401C9E2AE6DB491C2829DADB10BD84
:1011E00001460846002802DC08B14242D0B27047EE
:1011F00010B5252322E06849CA5C591E664C615C23
:10120000511AC8B2FFF7ECFF052815DD2146CA5C6C
:10121000591C615C511AC8B2FFF7E2FF05280BDDCB
:10122000591E2246525C591C615C501800EBD0716B
:10123000C1F347012246D154581EC3B2022BDADC57
:1012400010BDF0B50025554E3678534F87F827600E
:1012500026204EE0002300244F4F461CB95D0DE0D0
:1012600000EB80064B4F3F6807EB4616765C1EB9D5
:1012700001234B4E315401214E1EF1B20229EFDC05
:10128000012B02D00126464F3E54434F461CBA5D07
:101290000DE000EB80063F4F3F6807EB4616B65C5B
:1012A0001EB901243F4E3254A022561CF2B29E2A8F
:1012B000EFDB012C02D09F263A4F3E54384F3F5C63
:1012C000DFF8E0C01CF800C007EB0C0606EBD67791
:1012D000C7F34707DFF8C0C00CF800706646365CFD
:1012E0009C2E03DC6646365C042E00DA0125461E81
:1012F000F0B2032801DD012DACD1274E96F8236012
:10130000264F3E70244E96F82260274F3E70F0BD67
:1013100000B526481F490860FFF724FFFFF791FF3B
:10132000FFF766FF00BD30B500211B4C247B1A4D32
:101330006D7B2C44184DAD7B2C44174DED7B2C441C
:10134000154DED7A2C44052594FBF5F4503C184DD1
:101350002C700820002200232C46247800FB04F186
:10136000C1F5FA74134D2C802C462488B4F5A57F62
:1013700002DC4FF4A5742C800E4C248840F29E258C
:10138000AC4202DB2C460B4D2C800A4C24880A4DC3
:101390002C8030BD6400002098190020100000202F
:1013A000120000203A0000201100002098000020C8
:1013B0006800002062000020342C014036490143BF
:1013C000364A1160704770B5002100230F22C4789F
:1013D0004CB3324C246804F4E064C4F5E0644FEA92
:1013E0001421C1F1040322FA01F2447804FA03F152
:1013F000847804EA020444EA01014FEA0111284C0E
:101400000678A155047804F01F054FF0010404FA92
:1014100005F405784FEA65154FF0E02606EB8505E3
:10142000C5F8004109E0047804F01F050124AC4030
:101430001C4D0678761145F8264070BD1A4A0A40C0
:1014400002431A4B1A60704741B1194A126842EAC6
:1014500000024FF0E023C3F8102D07E0144A126891
:1014600022EA00024FF0E023C3F8102D7047042851
:1014700008D14FF0E021096941F004014FF0E0226A
:10148000116107E04FF0E021096921F004014FF0FC
:10149000E0221161704700000000FA050CED00E049
:1014A00000E400E080E100E080FFFF1F08ED00E0C5
:1014B00010ED00E00020474908604749C1F80404E6
:1014C0004649086001F10401086045484549086043
:1014D000704700213F498279DAB33F4AD2F80024AD
:1014E00003689A433C4BC3F800241A46D2F80424FC
:1014F00003689A4301F104031A60027911440A68EF
:10150000036842EA03020A60334AD2F808240368F7
:1015100022EA0302304BC3F808241A46D2F80C24FE
:10152000036822EA0302304B1A604279102A11D173
:10153000294AD2F8082403681A43274BC3F8082421
:101540001A46D2F80C2403681A43234BC3F80C2420
:101550000EE007E01F49427911440A6803681A4304
:101560000A6005E0027911440A6803689A430A6038
:1015700070470021016001710C21417100218171CE
:1015800070471A49096841EA0001134AC2F8101469
:10159000704701460020134A12680A4201D0012018
:1015A00000E0002070470F490860704701460020A6
:1015B0000022084B1B6803EA0102074BD3F81434DE
:1015C0000B4202D00AB1012000E00020704705491B
:1015D0000860704700040140000001400804014019
:1015E000FFFF0F00140401400C04014010040140EF
:1015F00010B50446CA48844208D10121042000F0F5
:1016000024FB0021042000F020FB46E0C548844272
:1016100008D10121082000F018FB0021082000F06B
:1016200014FB3AE0C048844208D10121102000F0A8
:101630000CFB0021102000F008FB2EE0BB48844288
:1016400008D10121202000F000FB0021202000F023
:10165000FCFA22E0B648844208D10121402000F083
:10166000F4FA0021402000F0F0FA16E0B14884427C
:1016700008D10121802000F0E8FA0021802000F04C
:10168000E4FA0AE0AC48844207D10121801500F059
:10169000DCFA0021A01500F0D8FA10BD10B5012128
:1016A000084600F0D2FA0021012000F0CEFA10BD69
:1016B0002DE9F041024600250026002000230024E9
:1016C000002791F803C00CF00F0591F803C01CF03F
:1016D000100F03D091F802C04CEA0505B1F800C024
:1016E0001CF0FF0F31D0146800202BE04FF0010CEC
:1016F0000CFA00F3B1F800C00CEA03069E4220D1B8
:1017000083004FF00F0C0CFA03F7BC4305FA03FCFF
:101710004CEA040491F803C0BCF1280F06D14FF045
:10172000010C0CFA00FCC2F814C00AE091F803C0E6
:10173000BCF1480F05D14FF0010C0CFA00FCC2F8C7
:1017400010C0401C0828D1D31460B1F800C0BCF10F
:10175000FF0F34DD546800202EE000F1080C4FF03C
:10176000010808FA0CF3B1F800C00CEA03069E4227
:1017700021D183004FF00F0C0CFA03F7BC4305FA9C
:1017800003FC4CEA040491F803C0BCF1280F05D116
:1017900000F1080C08FA0CF8C2F8148091F803C0A4
:1017A000BCF1480F07D100F1080C4FF0010808FA0E
:1017B0000CF8C2F81080401C0828CED35460BDE855
:1017C000F0814FF6FF710180022181700421C17008
:1017D00070470246002093680B4201D0012000E0D0
:1017E000002070470146886880B27047024600209A
:1017F000D3680B4201D0012000E000207047014671
:10180000C86880B2704701617047416170470AB192
:10181000016100E041617047C16070474FF4803260
:101820000A438261816182618269826970470246EE
:101830000020424B18684FF68073184040EA0210AF
:1018400008433E4B186070473D49C8617047F0B58A
:101850000A46002300240021002500F00046B6F1CE
:10186000004F02D1354EF16901E0344E7168C0F38A
:10187000034583B200F44016B6F5401F08D121F0AD
:1018800070612E4E766826F070662C4F7E6012E0F6
:1018900000F48016B6F5801F06D1032606FA05F47B
:1018A000A14341F0706106E0460D360103FA06F6E9
:1018B000B14341F0706122B1460D360103FA06F6DC
:1018C000314300F00046B6F1004F02D11B4EF161EA
:1018D00001E01A4E7160F0BD30B500228B071C0F7D
:1018E0000F2303FA04F2154B08338C1053F82430FD
:1018F0009343124C08348D1044F8253023468C1045
:1019000053F824308C07240F00FA04F423430B4CC3
:1019100008348D1044F8253030BD0A4908607047FE
:1019200000080140000C014000100140001401407B
:1019300000180140001C014000200140000001404F
:1019400000002042DC002042DB48006840F001003B
:10195000D949086008464068D8490840D6494860D7
:1019600008460068D6490840D34908600846006820
:1019700020F4802008600846406820F4FE0048609B
:101980004FF41F0088607047CB49096821F480310B
:10199000C94A11601146096821F480211160B0F52F
:1019A000803F03D0B0F5802F0ED106E0C249096810
:1019B00041F48031C04A116007E0BF49096841F431
:1019C000A021BD4A116000E000BF00BF704710B504
:1019D00001460022002300204A11012A02D1B64C00
:1019E000236806E0022A02D1B34C236A01E0B24C1C
:1019F000636A01F01F02012494401C4201D00120BF
:101A000000E0002010BD70B500240025002600BFB6
:101A10003120FFF7DCFF0646641CB4F5A06F01D04F
:101A2000002EF5D03120FFF7D2FF08B1012500E0EC
:101A30000025284670BD014600209F4A106820F00E
:101A4000F80040EAC100106070479E490860704786
:101A500002460020984B586820F47C1042EA0103AB
:101A60001843954B58607047964908667047014681
:101A70000020914A506820F00300084350607047EE
:101A80008D48406800F00C007047014600208A4AEB
:101A9000506820F0F0000843506070470146002075
:101AA000854A506820F4E060084350607047014662
:101AB0000020814A506820F4605040EAC100506024
:101AC000704729B17C4A527A02437B4B5A7206E036
:101AD000794A527AC343DBB21A40774B5A72704745
:101AE00079490860704701460020734A506820F425
:101AF00040400843506070470021744A11706E4A9C
:101B000082F82010012802D0042808D103E0012126
:101B10006E4A117004E005216C4A117000E000BFAC
:101B200000BF70476A49086070476349096A01430A
:101B3000614A1162704767490860704730B50021FB
:101B40000022002400235C4D6D6805F00C0121B1DA
:101B5000042905D0082923D105E05F4D056022E066
:101B60005D4D05601FE0544D6D6805F47012524DD7
:101B70006D6805F48034022505EB92421CB9574D7F
:101B8000554305600BE04C4D6D6815F4003F03D0E4
:101B9000524D5543056002E04F4D5543056002E04C
:101BA0004D4D056000BF00BF434D6D6805F0F0016D
:101BB00009094B4D6B5C0568DD4045603E4D6D6825
:101BC00005F4E061090A464D6B5C4568DD408560BF
:101BD000394D6D6805F46051C90A414D6B5C45682B
:101BE000DD40C560344D6D6805F44041890B3D4DC5
:101BF0006B5CC568B5FBF3F5056130BD29B12E4AB4
:101C0000526902432C4B5A6104E02B4A52698243C9
:101C1000294B5A61704729B1274A92690243264BE2
:101C20009A6104E0244A92698243234B9A61704787
:101C300029B1214AD26902431F4BDA6104E01E4AEE
:101C4000D26982431C4BDA61704729B11A4AD268C3
:101C50000243194BDA6004E0174AD2688243164BFC
:101C6000DA60704729B1144A12690243124B1A61B3
:101C700004E0114A126982430F4B1A6170471A49F6
:101C8000086070470F49C86470470B49C8717047B6
:101C90000948406A40F08070074948627047014631
:101CA0000020054A92680A4201D0012000E000208D
:101CB0007047014988727047001002400000FFF829
:101CC000FFFFF6FE00004242D800424220100240D0
:101CD000800442423C04424200127A0000093D0066
:101CE00069000020790000204004424210B50446FB
:101CF000FC48844209D101218803FFF7A6FF002197
:101D00004FF48040FFF7A1FF32E0F748844209D149
:101D100001214804FFF7A6FF00214FF40030FFF730
:101D2000A1FF25E0F148844209D101218804FFF791
:101D300099FF00214FF48020FFF794FF18E0EC4852
:101D4000844209D10121C804FFF78CFF00214FF420
:101D50000020FFF787FF0BE0E648844208D101210D
:101D60000805FFF77FFF00214FF48010FFF77AFF8F
:101D700010BD2DE9F04786B005460E460024A24668
:101D800000BFA1460027B08900B100BF2F462C8AB2
:101D90004CF6FF700440F08804432C82AC894EF668
:101DA000F3100440B0883189084371890843044323
:101DB000AC81AC8A4FF6FF400440B0890443AC824A
:101DC00001A8FFF7BBFEC748874202D1DDF810A08B
:101DD00001E0DDF80CA0A88910F4004F08D00AEB50
:101DE000CA0000EB0A1031684900B0FBF1F807E0C7
:101DF0000AEBCA0000EB0A1031688900B0FBF1F869
:101E00006420B8FBF0F004012009642101FB108973
:101E1000A88910F4004F08D0322000EBC900B0FBB5
:101E2000F1F000F00700044308E0322000EB091055
:101E30006421B0FBF1F000F00F0004432C8106B0E8
:101E4000BDE8F0874FF41651016000218180C18008
:101E500001810C21418100218181704710B502462A
:101E60000020108A4FF2FF0318400B884C88234350
:101E70008C882343CC8823431843108210BD002153
:101E8000018041808180C180704721B1828942F404
:101E90000052828104E082894DF6FF731A408281EC
:101EA0007047F0B503460024002600250020A1F568
:101EB00010676A3F00D100BF1846C1F3421401F019
:101EC0001F06012707FA06F5012C01D10C3004E0AA
:101ED000022C01D1103000E014301AB107682F43F2
:101EE000076002E00768AF430760F0BD10B51AB1A4
:101EF000838A0B43838204E0838ACC43A4B22340C9
:101F0000838210BD028A4FF6F0731A400282028A61
:101F10000A430282704782894FF2FF731A4082811E
:101F200082890A438281704721B1828942F002028C
:101F3000828104E082894FF6FD731A4082817047E6
:101F4000028A4FF6DF731A400282028A0A43028233
:101F5000704721B1028A42F48042028204E0028A80
:101F60004BF6FF731A4002827047C1F30802828069
:101F7000704701468888C0F308007047818941F0A6
:101F8000010181817047028BD2B20283028B42EA47
:101F9000012202837047028B02F47F420283028B8C
:101FA0000A430283704721B1828A42F02002828272
:101FB00004E0828A4FF6DF731A408282704721B1B3
:101FC000828A42F01002828204E0828A4FF6EF7326
:101FD0001A408282704721B1828A42F008028282CE
:101FE00004E0828A4FF6F7731A408282704721B16B
:101FF000828942F40042828103E08289C2F30E02A8
:102000008281704721B1828A42F40062828204E0B8
:10201000828A4FF2FF731A4082827047828A4FF69B
:10202000FB731A408282828A0A438282704721B1FE
:10203000828A42F00202828204E0828A4FF6FD73B5
:102040001A408282704702460020B1F5007F00D11D
:1020500000BF13880B4201D0012000E00020704730
:1020600001F40072B2F5007F00D100BFCA430280C4
:10207000704770B502460024002300250020A1F51A
:1020800010666A3E00D100BFC1F3421501F01F0384
:10209000012606FA03F3012D02D19689334006E0AA
:1020A000022D02D1168A334001E0968A33400C1289
:1020B000012606FA04F41688344013B10CB101204D
:1020C00000E0002070BD10B500220023A1F51064CF
:1020D0006A3C00D100BF0A1201249440A3B2DC4341
:1020E000048010BD0038014000440040004800401A
:1020F000004C00400050004000210020674A126858
:1021000042F48032654B1A6000BF644A126802F4E0
:102110000030491C10B9B1F5A06FF6D15F4A1268C2
:1021200012F4003F01D0012000E00020012842D13C
:102130005B4A126842F01002594B1A601A46126844
:1021400022F003021A601A46126842F002021A6074
:10215000524A5268514B5A601A4652685A601A469F
:10216000526842F480625A601A46526822F47C1225
:102170005A601A46526842F4E8125A601A461268C7
:1021800042F080721A6000BF444A126812F0007F69
:10219000FAD0424A526822F00302404B5A601A4673
:1021A000526842F002025A6000BF3C4A526802F094
:1021B0000C02082AF9D1704710B5FFF79DFF10BD3A
:1021C00010B53648006840F0010034490860084600
:1021D000406834490840314948600846006832493F
:1021E00008402E4908600846006820F480200860F6
:1021F0000846406820F4FE0048604FF41F008860E5
:10220000FFF7DAFF4FF000602849086010BD10B5F5
:10221000002100200022214B5B6803F00C0121B15A
:10222000042906D0082928D107E0214B214C23603E
:1022300027E01F4B1F4C236023E0184B5B6803F41F
:102240007010164B5B6803F48032022303EB90405E
:1022500022B9194B4343174C23600DE00F4B5B68C9
:1022600013F4003F04D0144B4343124C236003E0AB
:102270000F4B43430F4C236003E00D4B0D4C236089
:1022800000BF00BF054B5B68C3F303130B4CE15C5D
:10229000084B1B68CB40074C236010BD0010024068
:1022A000002002400000FFF8FFFFF6FE08ED00E00E
:1022B00000127A008000002000093D008400002008
:1022C0000648804706480047FEE7FEE7FEE7FEE7D0
:1022D000FEE7FEE7FEE7FEE7FEE7FEE7C1210008B6
:1022E000ED000008064C074D06E0E06840F00103F1
:1022F00094E8070098471034AC42F6D3FDF7FAFE95
:1023000014240008342400080FB4054B10B503A9A9
:10231000044A029800F017F810BC5DF814FB0000A6
:10232000FD0300089400002002E008C8121F08C145
:10233000002AFAD170477047002001E001C1121F46
:10234000002AFBD170472DE9F84F05469246994681
:102350008846002758E0252801D0514623E0002276
:1023600015F8011F10462E2915D115F8011F04225A
:102370002A290DD06FF02F032978A1F13004092C00
:1023800009D800EB800003EB400008446D1CF3E724
:1023900058F8040B6D1C2B78CBB3632B08D0732B30
:1023A00010D0514618464A46904707F101072AE0E7
:1023B00058F8043B8DF8003000218DF801106E466E
:1023C000012103E058F8046B4FF0FF3152074FF042
:1023D000000401D409E0641C84420BDA8C42FADB6D
:1023E000325D002AF7D105E0641C8C42FCDB305DD5
:1023F0000028F9D1274404E016F8010B51464A465B
:102400009047641EF8D26D1C28780028A3D1384666
:10241000BDE8F88F34240008000000209800000078
:1024200028230008CC24000898000020281D000064
:102430003823000800000000000000000000000039
:1024400000000000505001000000000000000000EB
:10245000000000000000000000000000000000007C
:1024600000000000000000000000000000009F00CD
:10247000000000000000000000000000000000005C
:10248000000000000000000000000000000000004C
:10249000000000000000000000000000000000003C
:1024A00000010203040102030406070809020406EE
:1024B0000800000000A24A04000000000000000024
:0C24C000010203040607080900000000E8
:04000005080000ED02
:00000001FF
